:020000040800F2
:10000000283F00201103000867360008AD330008C0
:10001000653600086D1F00089B3D000800000000C9
:10002000000000000000000000000000790200084D
:100030006F1F000800000000BD02000871360008B4
:100040002B0300082B0300082B0300082B030008D8
:100050002B0300082B0300082B0300082B030008C8
:100060002B0300082B0300082B0300082B030008B8
:100070002B0300082B0300082B0300082B030008A8
:100080002B0300082B0300082B0300082B03000898
:100090002B0300082B0300082B0300082B03000888
:1000A0002B0300082B0300082B0300082B03000878
:1000B0002B0300082B030008093700082B03000856
:1000C0002B0300082B0300082B0300082B03000858
:1000D0002B0300082B0300082B0300082B03000848
:1000E0002B0300082B0300082B0300082B03000838
:1000F0002B0300082B0300082B0300082B03000828
:100100002B0300082B0300082B0300082B03000817
:100110002B0300082B0300082B0300082B03000807
:100120002B0300082B0300082B0300082B030008F7
:1001300000F002F800F090F80AA090E8000C824469
:100140008344AAF10107DA4501D100F085F8AFF246
:10015000090EBAE80F0013F0010F18BFFB1A43F0A5
:10016000010318473468000054680000103A24BFA7
:1001700078C878C1FAD8520724BF30C830C144BF0C
:1001800004680C607047000000230024002500264E
:10019000103A28BF78C1FBD8520728BF30C148BFEA
:1001A0000B6070476E2900F0AE83702900F00F8558
:1001B000662906F03082652906F02D82672906F04F
:1001C0002A82612906F0298203681B0A28BF41F0B0
:1001D0008001692900F03481642900F0318175299A
:1001E00000F02E816F2900F09C84782900F0DB84D8
:1001F000E92900F03784E42900F03484F52900F07F
:100200003184EF2900F09984F82900F0DA8403683A
:10021000DB0928BF41F08001632900F0B88373290E
:1002200000F0BD83E32901F01181F32901F016816B
:10023000002070471FB501F067F90400002000217D
:1002400005F000FF401C60600020002105F0E4FE86
:10025000E0601FBD10B510BD01F028F91146FFF791
:10026000E9FF03F09BFF01F005FA03B4FFF7F2FF8B
:1002700003BC03F0CAFD0000224B19680868B0E80F
:10028000F00F80F30988BFF36F8F4FF0000080F309
:1002900011884EF00D0E70470000000006480068FF
:1002A000006880F3088862B661B6BFF34F8FBFF372
:1002B0006F8F00DF00BF00BF08ED00E0EFF30980A3
:1002C000BFF36F8F0F4B1A6820E9F00F106008B56D
:1002D0004FF0500080F31188BFF34F8FBFF36F8F43
:1002E00005F054F84FF0000080F31188BDE8084095
:1002F00019680868B0E8F00F80F30988BFF36F8FC2
:10030000704700BF14000020EFF305807047000025
:100310000948804709480047FEE7FEE7FEE7FEE799
:10032000FEE7FEE7FEE7FEE7FEE7FEE704480549D5
:10033000054A064B704700000537000831010008E8
:1003400028390020283F0020283B0020283B00209F
:10035000704700007CB51D4616460C00009001D089
:100360002044401E074B7B442A4669460190304694
:1003700000F0E3FA05461CB10020694600F0F0FAEF
:1003800028467CBD010600000FB41CB5084B06AA28
:100390007B4469460090059800F0CFFA044600209F
:1003A000694600F0DDFA20461CBC5DF814FB000035
:1003B000CD0500000FB47CB50C0009AA009001D057
:1003C0002044401E084B7B4469460190089800F089
:1003D000B4FA05461CB10020694600F0C1FA28466F
:1003E0007CBC5DF814FB0000A105000070B50C4654
:1003F0000546012A05D02878800600D5EA69002341
:1004000002E0012305E05B1C934202D2E05C00287D
:10041000F9D1A869E618C01AA861286A18442862A8
:10042000284600F0DEF904E0D5E9012114F8010BBB
:100430009047B442F8D3284600F0E9F970BD0000B7
:100440002DE9F0410646002410687529314616A5AD
:1004500010D000F0EDF9002802DA404213A507E0C1
:1004600031688A0701D512A502E0490704D511A514
:10047000012401E000F0E5F900210A2206F1240739
:1004800009E0B0FBF2FCB0FBF2F302FB1C003030E1
:1004900078541846491C0028F3D123462A46304692
:1004A000BDE8F04100F0D6B9000000002D000000CA
:1004B0002B000000200000002DE9F05F8946044673
:1004C0004FF0000ADFF874B1FB44C0F820A02046CA
:1004D000E1688847002874D0252806D0D4E9012196
:1004E0009047206A401C2062F1E700265F462046C4
:1004F000E16888472028054607DB312D05D27819A9
:1005000010F8200C08B10643F1E7B00701D526F03A
:100510000406C4F81CA00027C4F818A02A2D09D08E
:10052000284603F06BFC38B304EB8708303DC8F86D
:10053000185019E059F8041B204604EB870291611A
:10054000E1688847012F054618D1E069002820DAC4
:1005500026F020061DE0D8F8180000EB800005EB1F
:1005600040003038C8F818002046E1688847054642
:1005700003F044FC0028EED1012F0AD02E2D08D123
:100580002046E16888477F1C0546022F46F020067A
:10059000C4DBA069002803DA404246F00106A061EE
:1005A000F00701D026F010066C2D0BD0682D09D075
:1005B0004C2D39D06A2D35D0742D35D07A2D33D0CD
:1005C00016E038E0E1682F4620468847B8420546E5
:1005D00009D16C2F26D04FF48060E1680643204695
:1005E0008847054604E06C2F1AD04FF4807006430C
:1005F0000DB3A5F14100192802D8203546F4006654
:100600004A462946204626604E46FFF7CBFD80B17C
:1006100001280BD0F61D26F0070000F1080956E767
:100620004020E4E78020D8E70020D6E706F104095F
:100630004DE7284652E7206ABDE8F09FF4620000CB
:1006400040EA0103024630B59B0710D14FF0013458
:1006500000E008C208C91D1B9D4315EAC41FF8D05D
:1006600013F0FF0102F8011B0DD01B0AF8E711F887
:10067000013B002B02F8013B05D011F8013B002B98
:1006800002F8013BF3D130BD0022CBB210F8011BC0
:10069000994200D1421E0029F8D11046704710B58A
:1006A000431C02E010F8011B71B18107FAD14FF031
:1006B000013202C88C1A8C4314EAC211F9D0C01A54
:1006C0000A0603D0C01E10BDC01A10BD0A0401D016
:1006D000801E10BD0902FCD0401E10BD032A40F24E
:1006E000308010F0030C00F0158011F8013BBCF1D4
:1006F000020F624498BF11F801CB00F8013B38BFEC
:1007000011F8013BA2F1040298BF00F801CB38BFF9
:1007100000F8013B11F0030300F06482083AC0F0D6
:10072000088051F8043B083A51F804CBA0E80810BF
:10073000F5E7121D5CBF51F8043B40F8043BAFF3F2
:100740000080D20724BF11F8013B11F801CB48BF4C
:1007500011F8012B24BF00F8013B00F801CB48BF82
:1007600000F8012B704702F0FF0343EA032242EA3C
:10077000024200F06BBA4FF0000200B513469446F7
:100780009646203922BFA0E80C50A0E80C50B1F1E9
:100790002001BFF4F7AF090728BFA0E80C5048BFFD
:1007A0000CC05DF804EB890028BF40F8042B08BF9B
:1007B000704748BF20F8022B11F0804F18BF00F897
:1007C000012B7047704770477047704710B500F0B5
:1007D0005DFA006810BD10B5044600F057FA0460D9
:1007E00010BD70B5044685690068C10601D5302684
:1007F00000E02026C00707D070BDD4E901213046B3
:100800009047206A401C20626D1EF6D570BD70B501
:10081000044685690078C00707D170BDD4E901217D
:1008200020209047206A401C20626D1EF6D570BDC6
:1008300009684A0501D540B27047C905FCD500B228
:10084000704709684A0501D5C0B27047C905FCD593
:1008500080B270472DE9F0470D469946924604460E
:1008600000F124080168880604D5E06921F0100130
:10087000216000E00120A84201DD471B00E00027C5
:10088000A1697A1902EB0900081AA0612078C00654
:1008900002D42046FFF7A5FF002608E0D4E9012195
:1008A0001AF806009047206A401C761C20624E45CC
:1008B000F4DB2078C0060AD52046FFF792FF06E059
:1008C000D4E9012130209047206A401C2062381E64
:1008D000A7F10107F4DC07E0D4E9012118F80500CD
:1008E0009047206A401C2062281EA5F10105F3DC18
:1008F0002046FFF78CFF2078000602D50220BDE8D5
:10090000F0870120FBE711680268006A530501D5F2
:1009100008700AE0D30501D5088006E0130603D568
:10092000C217C1E9000200E0086001207047000022
:1009300001694A1C02610878704700B58FB0CDE9A3
:1009400001310021059105497944CDE90310114693
:100950006846FFF7B1FD0FB000BD0000E5FFFFFFE7
:100960000A6802F8010B0A607047D1E900239A4235
:1009700002D2531C0B601070704710B5436913B15D
:10098000AFF3008001E0FFF731FD012010BD1278C8
:1009900000F124010A7000224A700122EDE711687B
:1009A0004FF0FF32E9E700002DE9FF5F15468A4668
:1009B0000446DFF8AC80F8440027D8E900103E4632
:1009C000CDE9001010E03AF816106A4602A800F0CF
:1009D00049FD411C07D02178890603D5E269391801
:1009E00091420DD80744761C2078800602D5E06934
:1009F000B84205DDAE42E6DB3AF816000028E2D147
:100A0000A069C01BA0612046FFF7EBFED8E90010EB
:100A1000CDE90010002017E03AF818106A4602A845
:100A200000F020FDB0F1FF3F81460BD000250DF115
:100A3000080B05E0D4E901211BF8050090476D1C67
:100A40004D45F7D308F10100B0428046E4DB206A4F
:100A5000384420622046FFF7DAFEBDE8FF9F000021
:100A60005A5E00002DE9F0418046D21D22F00702B7
:100A70000025D2E90002F52915A614D0011E72F155
:100A8000000106DA0023D0EB030063EB020211A69B
:100A900008E0D8F800108B0701D50FA602E049073F
:100AA00001D50EA601251146002408F1240704E013
:100AB00000F0F0F830323A55641C50EA0102F7D1E8
:100AC0002B46324621464046BDE8F041FFF7C2BE04
:100AD000000000002D0000002B000000200000009E
:100AE00030B4002100F1240408E002F00705D20828
:100AF000303542EA4372DB086554491C52EA03056B
:100B0000F3D10468002310A2250707D5A40600D45A
:100B100021B1C46901230DA2641EC46130BCFFF77A
:100B200099BE10B5044621461068FFF78AFE0246BA
:100B30002046BDE810400023D2E7D21D22F0070175
:100B4000D1E90023CCE700000000000030000000E5
:100B5000F0B40D460188090502D5214C7C4402E021
:100B60001F4C7C440E34002100F1240608E002F002
:100B70000F071209E75D42EA03721B097754491C0B
:100B800052EA0307F3D102780023120704D5702D2F
:100B900006D009B1022311342246F0BCFFF75ABE39
:100BA00001231034F8E770B504460D46214610685D
:100BB000FFF747FE024629462046BDE87040002365
:100BC000C6E7D21D22F00703D3E90023C0E703687C
:100BD000126843F0200303600823C3610023B7E7D2
:100BE000BC5C000010B5203AC0F00B80B1E8185092
:100BF000203AA0E81850B1E81850A0E81850BFF407
:100C0000F5AF5FEA027C24BFB1E81850A0E81850A5
:100C100044BF18C918C0BDE810405FEA827C24BFF9
:100C200051F8043B40F8043B08BF7047D20728BF87
:100C300031F8023B48BF11F8012B28BF20F8023BD6
:100C400048BF00F8012B70474FF000020429C0F0A4
:100C5000128010F0030C3FF490ADCCF1040CBCF109
:100C6000020F18BF00F8012BA8BF20F8022BA1EB40
:100C70000C01FFF782BD5FEAC17C24BF00F8012BA5
:100C800000F8012B48BF00F8012B7047004870475F
:100C9000C838002030B5B0F10A024FEA900E71F169
:100CA00000034EEA817EB0EB0E0061EB91014FEA4A
:100CB000101E4EEA017E10EB0E0041EB11114FEABF
:100CC000102E4EEA016E10EB0E0041EB11214FEA9F
:100CD000104E4EEA014E10EB0E0041EB1141401850
:100CE00041F100014FEAD00040EA41704FEAD101E2
:100CF00010EB80054FEA810444EA907444EB010450
:100D00006D1944EB0404521BA3414FF0000348BF8C
:100D10000A3200D530BD401C41F1000130BD7047A2
:100D20002DE9FF4F0C461E464FF0FF378BB0D2E93E
:100D30000001DDF860800A908A46C1F30A5505B9C2
:100D40003D46002108464FF00000BAF1000F00F4C4
:100D5000400005DA00EB80004FF4400101EA50004A
:100D60004FEA9059B9F1010F00DDB9460A9850EAEF
:100D70004A000ED044F61050A5F2FF3545432F141B
:100D8000B8F1000F1ED07542291E1EDDC9F1000208
:100D90001CE0B8F1010F4FF0000001D0302103E05A
:100DA000F24305E02154401CB042FBDB30460022F8
:100DB000002121540B99C1F80880C1E900200FB02F
:100DC000BDE8F08FBD1B6D1CDEE74A4600DA6942C4
:100DD00006A800F0DDFB06AB93E8070003AB83E851
:100DE000070050460A9900F08FFC8DE80700A0F537
:100DF00000501F3800900398002D0ADD42F21F01B9
:100E00004A460844002303A90390684600F0F8FE10
:100E100009E0A0F500504A461F38002303A90390BB
:100E2000684600F002FF8DE807000004000C03D0C4
:100E30004FF0FF30410800E01046B8F1000F03D03A
:100E40000022009215461EE0751E05D4FFF722FF12
:100E5000303262556D1EF9D5B3460122084302D0E7
:100E600000227F1C04E02078302801D100227F1E60
:100E7000002A099784D01DE0112D07DAFFF70AFF39
:100E8000303262556D1C50EA0102F5D1084302D0A0
:100E90000098C8B10EE00021681E05E0235C625C8A
:100EA00063542254401E491C8142F7DBAB46A81B09
:100EB000401E0990002004F80B000B98099AC0F816
:100EC0000880C0E9002B7AE711264FF0000857E7A9
:100ED0002DE9F04F88460446D21D22F0070191B05B
:100EE000D1E90001CDE90A0102F058FF02460B9852
:100EF000C00F01D02D2007E02068810701D52B20ED
:100F000002E0202101EAC000032A099001D0072A4B
:100F100005DB03464146204600F0FAFA0BE1207853
:100F2000800601D5E06900E00620B8F1650F814632
:100F300006D0B8F1660F18D0B8F1670F70D131E064
:100F40000020B9F1110F009001DB112301E009F13C
:100F500001030AAA01A90CA8FFF7E2FEDDE90C7063
:100F6000002609F10105834647E001204B46009029
:100F70004FF000470AAA01A90CA8FFF7D1FEDDE94E
:100F80000DB00C995D46002610B909F101000D184D
:100F9000B9EB050003D4C0F1FF3609F10105A5EB5B
:100FA00009002BE0B9F1010F01DA4FF0010900202F
:100FB000B9F1110F0090484601DD112300E003460E
:100FC0000AAA01A90CA8FFF7ABFEDDE90C704D469B
:100FD00000268346207800070AD4AB4500DA5D4638
:100FE00001A8012D04DD411911F8011C302907D099
:100FF0004F4502DA17F1040F04DA012082460FE0B0
:101000006D1EEEE7002F02DCED1B3E4403E0781C72
:10101000A84200DD7D1CB81B00F1010A4FF000471B
:101020002078000703D4AA4501DB4FF0FF3A0021E6
:10103000B7F1004F0DF143088DF8431024D0022082
:101040002B23002F01DA7F422D230A21021EA0F15B
:10105000010000DC5FB197FBF1FC97FBF1F201FBB3
:101060001C7C17460CF1300C08F801CDEEE7A8F116
:10107000010003702188090501D5452100E06521A3
:10108000A0F1010800F8011C09980FA9A1EB0807BD
:10109000FF1D00B10120411901EBEA70A16938443C
:1010A000081A401EA0612078C00602D42046FFF72F
:1010B00098FB099828B1D4E901219047206A401C87
:1010C00020622078C00622D52046FFF78AFB1EE06A
:1010D000002E04DBB34502DD01A8805D00E0302076
:1010E000D4E901219047206A401C2062761CAAF1B5
:1010F00001005FEA000A0AD100F006FAC068016840
:10110000405CD4E901219047206A401C2062281EDF
:10111000A5F10105DCDC07E0D4E9012118F8010B99
:101120009047206A401C2062381EA7F10107F3DCBB
:101130002046FFF76CFB032011B041E62DE9F04F8C
:1011400004460D46D21D22F0070089B0D0E9009771
:101150004846394602F022FE0246F80F01D02D2300
:1011600007E02068810701D52B2302E0202101EA56
:10117000C0038DF820300BB1012000E00020032ACD
:10118000824601D0072A04DB2946204600F0C0F938
:101190003FE12078800601D40D2500E0E569C7F322
:1011A0000A560D2D49DA00214FEA175B08464FF029
:1011B0000000002F00F4400007DA00EB80004FF43D
:1011C000400100EBD07001EA60008115012901DDCA
:1011D0004FF0FF3100224FEA850CBCF1180F06D307
:1011E0001346ACF118004FF08052C24003E04FF4B8
:1011F000801323FA0CF30CF10C0CBCF1200F04D378
:10120000ACF1200C09FA0CF001E007FA0CF000290F
:101210004FF0004801DD18B90FE00ED140450CD366
:1012200019EB02095F4121B9404502D19F4329EAE8
:101230000209BBEB175F00D0761C2088000502D5A1
:101240007B48784402E07A487844193808AA302369
:1012500002F80A30037C0AF10101002E0AF1020AA9
:1012600053546A4602DC4FF0300101E04FF0310187
:101270004FF001088DF8001002D0A6F2FF3603E00F
:1012800059EA470100D06B4E002D02DC2178090796
:1012900004D54FF002082E218DF80110C44600211C
:1012A0000BE0C7F303433F01C35C491C6D1E02F80A
:1012B0000830052908F1010801DA002DF1DC0021D0
:1012C0000CE000EB1973491C1B786D1E082902F80D
:1012D00008304FEA091908F1010801DA002DF0DCA5
:1012E00021688B0602D516E0A8F10108E04505DD6E
:1012F00002EB080313F8013C302BF5D0B8F1000FD6
:1013000009DD02EB080313F8013C2E2B03D109077A
:1013100001D4A8F10108002D05DD3E2102F80810D6
:101320006D1E08F10108407C002E02F8080008F14B
:10133000010804DA2D20764202F8080002E02B2092
:1013400002F808000A214FF47A70864208F1010879
:101350000BDB96FBF0F3303302F8083096FBF0F32A
:1013600008F1010800FB136601E0642E0CDB642029
:1013700096FBF0F3303302F8083096FBF0F308F1F7
:10138000010800FB136601E00A2E06DB96FBF1F074
:10139000303002F8080008F1010896FBF1F001FB7B
:1013A0001060303002F80800A16908F1010808EB6C
:1013B000050202EB0A00081AA0612078C00602D4D8
:1013C0002046FFF70EFA216A08AE01EB0A00206200
:1013D00004E0D4E9012116F8010B9047BAF1010AA3
:1013E000F7D22078C00602D52046FFF7FAF96E46FC
:1013F00009E016F8010B3E280FD0D4E901219047EF
:10140000206A401C2062B8F10108F2D22046FFF7A2
:10141000FEF909B00320BDE8F08F206A284420625D
:1014200003E0D4E90121302090476D1EEBD3F8E7AB
:101430001156000002FCFFFF10B5436913B1AFF372
:10144000008001E0FFF7B0FA012010BD128800F122
:10145000240182840022C2840122EDE711684FF04A
:10146000FF32E9E770B516460C46054600F044F831
:10147000036893F80101012806D0FF2C0FD8185DEE
:1014800068B101202C7070BDD3F8070132462146A7
:1014900003F2071303442846BDE8704018474FF095
:1014A000FF3070BD00487047C83800207546FFF710
:1014B000F9FFAE4605006946534620F00700854611
:1014C00018B020B5FEF732FFBDE820404FF000060F
:1014D0004FF000074FF000084FF0000B21F007011C
:1014E000AC46ACE8C009ACE8C009ACE8C009ACE85F
:1014F000C0098D467047000010B500F005F8001DCA
:1015000010BD00BF414B000000487047E838002084
:101510002DE9F0411F46044603260168072A01F41D
:10152000006004DB08B116A505E016A503E008B1CC
:1015300015A500E015A521F010002060A069C01ECF
:10154000A0610FB1401EA0612046FFF74AF94FB1DC
:10155000D4E9012138469047206A401C2062C01C13
:10156000206206E0206AFAE7D4E9012115F8010BB0
:101570009047761EF8D22046FFF749F9BDE8F08182
:101580004E414E006E616E00494E4600696E660027
:101590002DE9F047814616468AB0354878440DC893
:1015A0008DE80D0032487844801C03AC0DC884E8F7
:1015B0000D0041F69B300844372190FBF1F290FB7F
:1015C000F1F5A5F1800501FB12041B3C02D5644234
:1015D000012000E00020DFF898A080460027FA44B0
:1015E000AAF1BE0A0EE0E0070AD03246684607EBD1
:1015F000470101230AEB810100F017FB8DE807008A
:1016000064107F1C002CEED1194F7F44AE3F19E0CF
:10161000E80715D007EB04100DF1180A90E80E004A
:101620008AE80E00C068F04201D19819089032464D
:10163000012306A903A800F0F8FA03AB83E807002A
:101640006D10641C002DE3D14FF001033246694652
:10165000B8F1000F03A802D000F0D2FA01E000F0C8
:10166000E4FAC9E90001C9F808200AB0BDE8F0872A
:101670004853000010B50446AFF300802046BDE893
:101680001040FEF7F2BD00004FF0013C50F8042B73
:1016900051F8043B9A4221D1A2EB0C03934313EA85
:1016A000CC1317D150F8042B51F8043B9A4215D1B2
:1016B000A2EB0C03934313EACC130BD150F8042B89
:1016C00051F8043B9A4209D1A2EB0C03934313EA6D
:1016D000CC13DBD04FF00000704700BFD01A01BA26
:1016E000B1FA81F101F0180122FA01F0CB40C1F109
:1016F0002001DBB2C0B2C01A2CFA01F3D11A914317
:1017000011EAC311E6D170475FEA400C08BF91F0BF
:10171000000F4FEA8C234FEAC12243EA51514FEAAE
:101720001C5018BF00F5F0404FEA300018BF41F0E0
:1017300000415FEA6C5C00F02980BCF1FF3F08BF0C
:1017400040F080407047130C06BF12044FF0100C9D
:101750004FF0000C130E04BF12020CF1080C130F13
:1017600004BF12010CF1040C930F04BF92000CF1A2
:10177000020CD30F04BF52000CF1010C11464FF0C4
:101780000002A0F11F00A0EB0C00704711F0004F09
:1017900008BF704731F000413FF4D5AF0B0C06BFD6
:1017A00009044FF0100C4FF0000C0B0E04BF09029F
:1017B0000CF1080C0B0F04BF09010CF1040C8B0F8A
:1017C00004BF89000CF1020CCB0F04BF49000CF1DF
:1017D000010CCCF12003A0EB0C0022FA03F302FA77
:1017E0000CF241EA030100F10100704720F07F4C48
:1017F00080EA030023F07F47ACEB070303F57C533B
:1018000000F0004003F1FF032DE980494FEA154B3A
:1018100009B44FEA144325EA0B4E24EA03480FF2B9
:10182000042606EB132749083E785FEA320203FBE1
:101830000667C7F5000707FB06F64FEA54374FEA7D
:10184000D64606F1020607FB066CCCF1005C4FEAB7
:101850001C472CEA074C07FB06F40CFB06F504EBCF
:1018600015464FEA961634BF00204FF000404FEA6D
:10187000D13706FB07FC4FEA1C4C0CFB0BF7D21BC5
:1018800003FB0CF761EB07010CFB0EF7B0EB074015
:1018900072EB17420CFB08F734BFA2EB0742B2EB26
:1018A000074261EB17414FEA0C444FEA910706FBF0
:1018B00007FC4FEA1C4C0CFB0BF7B0EBC74072EB7C
:1018C000573203FB0CF734BFA2EBC742B2EBC7425F
:1018D00061EB57310CFB0EF7B0EBC70072EB5772A0
:1018E0000CFB08F734BFA2EBC702B2EBC70261EBF7
:1018F0005771039F4FEA816141EA921104EBCC04D6
:101900004FEAD1374FEA826206FB07FC42EA9012A7
:101910004FEA80604FEA1C4C0CFB0BF7D21B03FB19
:101920000CF761EB07010CFB0EF7B0EB074072EB15
:1019300017420CFB08F734BFA2EB0742B2EB074299
:1019400061EB17414FEA8C554FEA910704EB9C2459
:1019500006FB07FC4FEA1C4C0CFB0BF7B0EBC74037
:1019600072EB573203FB0CF734BFA2EBC742B2EB6A
:10197000C74261EB57310CFB0EF7B0EBC70072EBBF
:1019800057720CFB08F734BFA2EBC702B2EBC702D9
:1019900061EB577115EB4C254FEA816141EA9211D9
:1019A0004FEA82624FEAD13742EA901206FB07FC07
:1019B00044F100044FEA80604FEA1C4C0CFB0BF72B
:1019C000D21B03FB0CF761EB07010CFB0EF7B0EB2E
:1019D000074072EB17420CFB08F734BFA2EB07423B
:1019E000B2EB074261EB174115EB1C154FEA813151
:1019F00041EA92414FEA823242EA90424FEA803015
:101A00004FEA0C7644F1000448EA03434EEA0B48DF
:101A10004FF0000EB2EB080C71EB030724BF6246D7
:101A200039464EEB0E0E4FF0000B00185241494163
:101A30004BEB0B0BB2EB080C71EB03077BF1000BCC
:101A400024BF624639464EEB0E0E4FF0000B0018D5
:101A5000524149414BEB0B0BB2EB080C71EB030706
:101A60007BF1000B24BF624639464EEB0E0E51EA65
:101A7000020718BF46F0010616EB0E7655F100027C
:101A800054F1000103D5BDE88901BDE80088BDE837
:101A90008901BDE80048B619524141EB0101A3F1AB
:101AA0000103704780807F7E7D7C7B7A79787776B2
:101AB00076757473727171706F6E6E6D6C6C6B6A2B
:101AC0006A696868676666656464636362616160C9
:101AD000605F5F5E5E5D5D5C5C5B5B5A5A59595846
:101AE00058575756565555555454535352525251B0
:101AF000515050504F4F4F4E4E4D4D4D4C4C4C4B06
:101B00004B4B4A4A4A49494948484847474747464C
:101B10004646454545444444444343434342424288
:101B200042414141002B9C4630D477002BD01CB55C
:101B30004FEA370703B44FF010004FF01001BAF12D
:101B4000000F06D0BCF1000FDCBF40F0080040F0F1
:101B500008014FF000000FBCBDE810400BF1010B75
:101B6000BBF1010F08BF5FEA170722BF12F10102A4
:101B700011F101014FF0004143F1000300F000407A
:101B800043EA00007047F9D35708D0E746EA064613
:101B900013F1400F4FEA16461FDD13F1200FDFBF90
:101BA00016430A46002120335B42BED0C3F1200712
:101BB00046EA064602FA07F74FEA164646EA0706DD
:101BC000C3F1200722FA03F201FA07F721FA03F121
:101BD0004FF0000342EA0702A7E746EA020646EA98
:101BE00006464FEA164646EA0106BCBF46EA0646E6
:101BF000360C4FF000034FF000024FF0000194E765
:101C00002DE9804C9A46934670B491E8380007C895
:101C100031EA400C48BF34EA430C03D5FFF7E6FD38
:101C2000FFF780FFF0BCBDE8008C2DE9804C9A46A0
:101C3000934670B491E8380007C810F0804F08BF91
:101C400013F0804F03D100F005F8FFF76BFFF0BCF5
:101C5000BDE8008C20F07F4780EA030023F07F4C32
:101C600007EB0C03A3F57C5300F00040A3F1FE0347
:101C700092F0000F00F0B38095F0000F00F0778035
:101C80002DE901494FEA11404FEA144621EA004884
:101C900000FB06FC24EA064708FB06F607FB08F8EB
:101CA00000FB07F718EB06484CEB164C4FEA124BBB
:101CB00018EB07484FEA15464CEB174022EA0B4E4B
:101CC0000BFB06FC25EA06470EFB06F607FB0EFE9D
:101CD0000BFB07F71EEB064E4CEB164C4FF00006C5
:101CE0001EEB074E4CEB174B18EB0B0840F10000B6
:101CF00018EB0E0B58EB000840F100008F1A4FF064
:101D000000013CBFC943661B14BFB5EB040C0021A6
:101D10003CBFC943F61B4FEA17444EEA8E0E27EA32
:101D200004454FEA1C4704FB07622CEA074C05FBFD
:101D300007F70CFB05F604FB0CFC16EB074642EB21
:101D4000174216EB0C4642EB1C421BEB060658EB07
:101D50000202414146EA9E0601D5BDE80189B61955
:101D6000524141EB0101A3F10103BDE801894FEAB2
:101D700014454FEA114724EA054621EA074C05FBC2
:101D800007F406FB07F70CFB06F105FB0CFC11EB57
:101D9000074144EB17444FEA124711EB0C4144EB67
:101DA0001C4422EA074C05FB07F206FB07F70CFB75
:101DB00006F605FB0CFC16EB074642EB174216EB4A
:101DC0000C4642EB1C456A1854F1000148BF7047AD
:101DD000B619524141EB0101A3F10103704795F09F
:101DE000000F37D04FEA11424FEA144721EA02466A
:101DF00024EA074C02FB07F106FB07F70CFB06F48D
:101E000002FB0CFC14EB074441EB17414FEA15476A
:101E100014EB0C4441EB1C4125EA074C02FB07F58F
:101E200006FB07F70CFB06F602FB0CFC16EB07465D
:101E300045EB174516EB0C4645EB1C42121951F1C8
:101E4000000148BF7047B619524141EB0101A3F1AF
:101E5000010370474FEA14454FEA114724EA05464B
:101E600021EA074C05FB07F106FB07F70CFB06F21E
:101E70004FF0000605FB0CFC12EB074241EB17414B
:101E800012EB0C4251EB1C4148BF7047921841EBDA
:101E90000101A3F10103704770B504460068816831
:101EA000C943C90717D1816821F00101816000F0A1
:101EB0003FFC05460AE000BF00F03AFC401B022848
:101EC00004D920688068C043C00706D020688068B5
:101ED000C043C007F0D0002070BDA06A40F01000E1
:101EE000A062E06A40F00100E062012070BD0000E5
:101EF000F8B500260446009600688168C943C90702
:101F00002DD0816841F001018160164816490068B2
:101F1000B0FBF1F000E0401E00900028FBD100F083
:101F200007FC054616E000BF00F002FC401B02283B
:101F300010D920688068C043C0070BD0A06A40F069
:101F40001000A062E06A40F00100E06284F82460C2
:101F50000120F8BD20688068C043C007E4D100209C
:101F6000F8BD00001000002040420F00FEE770475F
:101F700072B6FEE7F8B500250446009590F82400F7
:101F800001280BD0012084F824002046FFF784FFAD
:101F90002046FFF7ADFF060002D050E00220F8BD5A
:101FA000A06A20F4885040F00200A062022000F0F5
:101FB0008FFC25490968B1FBF0F0400000E0401EAD
:101FC00000900028FBD12068816841F00801816001
:101FD00000F0AEFB074608E000F0AAFBC01B0A2891
:101FE00003D920688068000715D42068806800073E
:101FF000F2D42068816841F00401816000F098FB10
:10200000074612E000F094FBC01B0A280DD9206897
:102010008068400709D5A06A20F0020040F0100057
:10202000A06284F824500120F8BD20688068400731
:10203000E8D4A06A20F0020040F00100A06284F819
:1020400024503046F8BD000010000020F8B50024F0
:10205000009490F824202546012A12D0012280F80D
:1020600024204A681F23072A0DD20668776B521E68
:1020700002EB820293409F430B6893401F437763B8
:1020800019E00220F8BD06680D2A0AD2376BD21F6C
:1020900002EB820293409F430B6893401F433763D8
:1020A00009E0F76A0D3A02EB820293409F430B6806
:1020B00093401F43F7620A68072306680A2A0AD377
:1020C000F7680A3A02EB420293409F438B689340C1
:1020D0001F43F76008E0376902EB420293409F43D9
:1020E0008B6893401F4337610A68102A01D0112A78
:1020F00020D1124B02689A4217D193681B0219D45F
:10210000936843F4000393600968102912D10C49C5
:102110000C4A0968B1FBF2F101EB8101490000E0D2
:10212000491E00910029FBD104E0816A41F02001A1
:102130008162012480F824502046F8BD002401402B
:102140001000002040420F000068C06C7047000083
:102150002DE9F04104004FF000057FD0A06A002671
:1021600028B9E66284F82460204600F081F8204611
:10217000FFF792FEA16AC90600D420B1A06A40F020
:102180001000A0626AE0A16A21F4885141F00201C6
:10219000A162334923688B42E16904D1B1F5402F34
:1021A00001D14FF40021277B4FF4807C41EA4702A4
:1021B00061680A43A168614508D0012906D0002161
:1021C00094F814E0BEF1010F02D00AE06146F7E78F
:1021D000C7B1A76A47F02007A762E76A47F001077F
:1021E000E7625F6827F469470F435F602368996877
:1021F0001C4F394011439960A16861450BD00129FA
:1022000009D00CE0DFF860E0A7690EEB47370F4319
:1022100047F40061E5E7218A0D05A5F580152168E1
:10222000CB6A23F470032B43CB62216889680F4B80
:102230001940914208D1E662A16A21F0020141F001
:102240000101A162BDE8F081A06A20F0020040F027
:102250001000A062E06A40F00100E0620120F1E7B6
:10226000003C0140FDF7E1FF00E0FFFFFE0E1FFF15
:1022700010B586B000210091019102910391006890
:102280001649884227D11648816941F4007181615D
:10229000816901F400710491816941F0100181614B
:1022A000816901F010010491816941F008018161A7
:1022B0008069032400F0080004901620CDE9000492
:1022C0006946084800F02AF90120CDE90004694672
:1022D000054800F023F906B010BD000000240140BD
:1022E0000010024000100140000C01402DE9F843AD
:1022F00000270D460446009700F01AFA8046206831
:102300008168C90508D5A06A40F02000A06284F861
:1023100024700120BDE8F8834168C90503D4C06A70
:1023200010F4700F2AD0022000F0D2FA3B4909685D
:10233000B1FBF0F62068036939490B424FEA6101AD
:102340004FEAA1121FD1C3684FEA611C13EA0C0FB8
:1023500019D103690B4225D1C068104222D1142043
:1023600023E0681C0AD02DB100F0E2F9A0EB0800D0
:10237000A84203D920680068800725D52068006836
:102380008007EED52DE003690B4202D1C1681142EE
:1023900006D0026923490A4206D1C068084203D127
:1023A000542002E0292000E0FC204643009816E07B
:1023B000681C11D02DB100F0BBF9A0EB0800A842B9
:1023C0000AD90098B04207D2A06A40F00400A06287
:1023D00084F8247003209DE70098401C0090B042D0
:1023E000E6D321686FF012000860A06A40F4007024
:1023F000A06220688068C0F3424007280CD1207B8F
:1024000050B9A06A20F48070A062A06AC00403D40E
:10241000A06A40F00100A06200207BE710000020CD
:10242000244992244992240070B5044690F824006F
:1024300001280DD0012084F824002046FFF758FD24
:1024400002004FF0000005D084F82400104670BD53
:10245000022070BDA16A40F20123994341F48071CA
:10246000A1621F4D23681F49AB4218D10E6816F4B4
:10247000702F14D0A66A46F48016A6620E68760500
:1024800005D5A66A26F4005646F48056A662A66ACA
:10249000F6040AD5E66A26F00606E66206E0A66AB3
:1024A00026F48016A6625E68E9E7E06284F82400FC
:1024B0006FF00200186020688368C3F34243072B63
:1024C00005D1A84208D1096811F4702F04D08168A1
:1024D00041F480118160B9E7816841F4A001F9E716
:1024E000002801400424014010B5044690F824005F
:1024F000012807D0012084F824002046FFF7CCFCF7
:1025000010B107E0022010BDA16A21F4885141F00A
:102510000101A162002184F8241010BD2DE9F84FBB
:10252000DFF8C8910024A9F1040B23460F2709F115
:10253000040AABF1040ED1E00125A54006EA05022C
:10254000AA4276D1DFF8A8C14E68A6EB0C08664512
:102550002BD00DDC032E34D005DC36B3012E19D080
:10256000022E2FD11BE0112E16D0122E2AD119E0E7
:10257000B8F5881F19D006DCB8F5803F15D0B8F53E
:10258000801F1FD111E0B8F5001F0ED0B8F5041F51
:1025900018D10AE0CB6815E0CB681B1D12E0CB68B0
:1025A00008330FE0CB680C330CE08B682BB1012BA8
:1025B0004FF0080303D0456104E0042302E0056105
:1025C00000E00023FF2A01D8064601E000F10406DE
:1025D0004FEA840501D9A5F12005D6F8008007FA55
:1025E00005FC28EA0C0803FA05F548EA0508C6F8D0
:1025F00000804D68ED0070D53E4DAE6946F0010695
:10260000AE61AD6924F0030605F0010500953A4D71
:1026100006EB050CDCF80850A607360F07FA06F89B
:1026200025EA0805DFF8D480404503D14FF00008C3
:1026300025E052E0DFF8C880404502D14FF00108A4
:102640001DE0DFF8C080404502D14FF0020816E0DF
:10265000DFF8B480404502D14FF003080FE0DFF807
:10266000AC80404502D14FF0040808E0DFF8A080BC
:10267000404502D14FF0050801E04FF0060808FA86
:1026800006F848EA0508CCF808804D68D9F80060DB
:10269000ED024D4601D5164300E096432E604D688D
:1026A000DAF80060AD02554601D5164300E09643C6
:1026B0002E604D68DBF80060AD035D4601D5164322
:1026C00000E096432E604D68DEF80060ED0375462D
:1026D00001D5164300E096432E60641C0A68164636
:1026E000E2407FF429AFBDE8F88F00000804014004
:1026F00000001110001002400000014000080140DD
:10270000000C01400010014000140140001801407D
:10271000001C0140C26821EA02030A4043EA024168
:10272000016170470AB1016170470904FBE70000CD
:10273000014880687047000004000020024881685A
:10274000027811448160704704000020074810B5EA
:10275000016841F010010160032000F0A7F80F208C
:1027600000F006F800F050F8002010BD00200240F4
:1027700030B505461F4887B0C16941F00401C16109
:10278000C06906A900F00400009001A800F008FA52
:102790000498B0B100F02AFA40001749174AB0FB7C
:1027A000F1F11748491E0260416040F2E732002112
:1027B000C0E903218160816100F0F0FB040003D0D7
:1027C00015E000F013FAE8E70D4800F015FC0400EE
:1027D0000DD11E2000F03CF8102D07D20022294612
:1027E0001E2000F043F80748056000E0012407B010
:1027F000204630BD0010024040420F00000800405B
:10280000AC010020080000200F4808B5816941F0A4
:1028100001018161816901F001010091C16941F00B
:102820008051C161C069002200F0805000900F21EA
:10283000901E00F01BF80548416821F0E06141F06E
:102840000071416008BD000000100240000001401E
:10285000002809DB00F01F0201219140400980009F
:1028600000F1E020C0F8001170470000F0B40E4BFA
:102870001B680C46C3F30223C3F10705042D00D9DE
:102880000425191D072901D2002300E0DB1E0126C3
:1028900006FA05F1491E214099409E40761E1640D9
:1028A0003143F0BC01F08EBA0CED00E0064900F0B7
:1028B000070208684FF6FF03184040EA0220034A67
:1028C00010430860704700000CED00E00000FA05BE
:1028D00010B501460020284C04292FD00BDC01291B
:1028E00030D0022929D100F091F96168C1F381311A
:1028F000491C49001FE0082920D010291DD161681A
:102900002268D20119D51D48C1F38342C903805CF6
:102910000AD56168194AC1F34041921E515C184AB8
:10292000B2FBF1F1484301E01649484361684902AE
:1029300003D440000321B0FBF1F010BDBDE810400E
:1029400000F074B9226AC2F30121012903D1920770
:1029500001D5C80310BD022905D1626A920702D5CC
:1029600049F6404010BD0329FCD121688903F9D5FF
:102970004FF2244010BD00000010024038670008EC
:1029800000127A0000093D002DE9F8430546007861
:10299000354CC00754D0E0690026C00008D4E06977
:1029A00040F08050E061E069012600F08050009026
:1029B0002E480168C90512D40168804641F480712F
:1029C0000160FFF7B5FE074605E000BFFFF7B0FE68
:1029D000C01B642823D8D8F80000C005F6D5206AAB
:1029E00010F4407021D0A98801F4407181421CD0BC
:1029F000206A1F49012220F440700A6000220A6008
:102A00002062C00711D0FFF793FE074641F28838D5
:102A100008E000BFFFF78CFEC11B414502D903202F
:102A2000BDE8F883206A8007F4D5206A696820F43D
:102A30004070084320621EB1E06920F08050E061E0
:102A40002878800705D56068A96820F440400843CD
:102A500060602878C00605D56068696920F4800048
:102A6000084360600020DBE7001002400070004077
:102A7000400442422DE9F0470F46050061D0434E25
:102A8000306800F00700B84209D2306820F0070033
:102A900038433060306800F00700B84251D12868F0
:102AA0003B4C810712D5400703D5606840F4E060D5
:102AB00060602878000703D5606840F4605060606B
:102AC0006068A96820F0F000084360602878C007BB
:102AD00028D06868012810D02168022810D0890702
:102AE00000292EDA616821F0030101436160FFF7DC
:102AF0001FFE804641F288390DE021688903EFE727
:102B00008901EDE7FFF714FEA0EB0801494502D962
:102B10000320BDE8F0876068696800F00C00B0EB46
:102B2000810FEFD1306800F00700B8420BD9306850
:102B300020F0070038433060306800F00700B842EA
:102B400001D00120E5E72878400705D56068E968ED
:102B500020F4E060084360602878000706D56068CC
:102B6000296920F4605040EAC100606000F05EF81E
:102B70006168084AC1F30311515CC8400649086006
:102B800006480068FFF7F4FD0020C2E7002002407D
:102B900000100240486700081000002008000020D4
:102BA0000F2202600C4A536803F00303436053682A
:102BB00003F0F0038360536803F4E063C36052687A
:102BC0004FF4E06303EAD20202610448006800F0B7
:102BD000070008607047000000100240002002401B
:102BE00001480068704700001000002004480549B3
:102BF00000684968044AC1F30221515CC84070472B
:102C000010000020001002405867000804480549E1
:102C100000684968044AC1F3C221515CC84070474A
:102C20001000002000100240586700080E4A51684A
:102C30000E4801F00C03042B11D0082B0FD10C48C7
:102C4000C1F38343C903C05C0AD55168084AC1F384
:102C50004041921E515C054A5043B0FBF1F0704771
:102C600004494843704700000010024000127A00F7
:102C70002667000800093D002DE9F84F040070D0D8
:102C80002078C04DC00749D06868C0F38100012892
:102C900007D06868C0F38100022809D16868C003C2
:102CA00006D52868800339D560680028E7D035E06C
:102CB0006068B0F5803F0BD010B1B0F5A02F11D0F7
:102CC000286820F480302860286820F4802002E002
:102CD000286840F480302860606890B1FFF728FDD4
:102CE00006460AE0286840F480202860F0E700BF2C
:102CF000FFF71EFD801B642873D828688003F7D572
:102D00000CE0FFF715FD064605E000BFFFF710FDDC
:102D1000801B6428F0D828688003F7D420789A4E66
:102D200080074FF001094FF0000839D5686810F0AE
:102D30000C0F07D06868C0F38100022809D16868C9
:102D4000C00306D42868800714D52069012808D15B
:102D500010E02069B0B1C6F80090FFF7E9FC074623
:102D600005E00AE1FFF7E4FCC01B0228C4D828688C
:102D70008007F7D52868616920F0F80040EAC100B3
:102D800028600DE0C6F80080FFF7D2FC074604E09B
:102D9000FFF7CEFCC01B022823D828688007F7D491
:102DA000207800072CD57948A169D9B1C0F80090E6
:102DB000FFF7BEFC074604E0FFF7BAFCC01B022881
:102DC0000FD8686A8007F7D571484FF4FA51006848
:102DD000B0FBF1F0009000BF0098411E0091FAD2C4
:102DE0000EE080E0C0F80080FFF7A2FC074604E098
:102DF000FFF79EFCC01B022875D8686A8007F7D4CD
:102E00002078400760D5E8690027C00008D4E86949
:102E100040F08050E861E869012700F080500090A0
:102E20005C480168C90513D40168834641F4807188
:102E30000160FFF77DFC824606E000BFFFF778FCEB
:102E4000A0EB0A0064284ED8DBF80000C005F5D5D9
:102E5000E06801280AD008B1052813D0286A20F0BC
:102E600001002862286A20F0040002E0286A40F08D
:102E700001002862E06841F2883B98B1FFF758FCF6
:102E800082460BE0286A40F004002862EEE700BFAB
:102E9000FFF74EFCA0EB0A0159455AD8286A800773
:102EA000F6D50CE0FFF744FC824605E0FFF740FC56
:102EB000A0EB0A0159454CD8286A8007F6D41FB107
:102EC000E86920F08050E861E06988B36968C1F37F
:102ED0008101022944D00228C6F8608004D0FFF79F
:102EE00027FC044638E034E0FFF722FC074604E004
:102EF000FFF71EFCC01B02282BD828688001F7D4DE
:102F0000206AB0F5803F05D16868A16820F40030E0
:102F100008436860D4E908010843696821F4741122
:102F200008436860C6F86090FFF702FC044606E0BC
:102F300025E000BFFFF7FCFB001B022809D828682A
:102F40008001F7D51BE000BFFFF7F2FB001B022852
:102F500002D90320BDE8F88F28688001F4D40EE080
:102F60000128F7D06868226A00F48031914204D1C8
:102F7000616A00F47010884201D00120EAE7002065
:102F8000E8E7000000100240000042428004424294
:102F900010000020007000407047704710B504001A
:102FA00003D094F83D0010B107E0012010BD0020CF
:102FB00084F83C00204600F01EF8022084F83D0012
:102FC000211D206800F0A6FB012084F8460084F84B
:102FD0003E0084F83F0084F8400084F8410084F803
:102FE000420084F8430084F8440084F8450084F8E3
:102FF0003D00002010BD704790F83D10012901D020
:1030000001207047022180F83D100168CA6842F033
:103010000102CA6000680E4988420ED00D498842FC
:103020000BD0B0F1804F08D00B49884205D00B4936
:10303000884202D00A49884204D1816801F0070120
:10304000062903D0016841F00101016000207047AA
:10305000002C014000340140000400400008004002
:10306000000C004070472DE9F04104460068C66836
:1030700005694FF00007A90713D5B10711D5F91E4F
:10308000016101202077206880698007204602D0F6
:10309000FFF7E8FF04E000F07EF8204600F07CF83F
:1030A0002777680716D5700714D521686FF00400DC
:1030B0000861022020772068806910F4407F204654
:1030C00002D0FFF7CFFF04E000F065F8204600F0E3
:1030D00063F82777280715D5300713D521686FF0D7
:1030E00008000861042020772068C0698007204616
:1030F00002D0FFF7B7FF04E000F04DF8204600F0E3
:103100004BF82777E80616D5F00614D521686FF03E
:1031100010000861082020772068C06910F4407F03
:10312000204602D0FFF79EFF04E000F034F820466E
:1031300000F032F82777E80708D0F00706D02168BA
:103140006FF001000861204600F028F8280608D535
:10315000300606D521686FF0800008612046FFF731
:103160001BFF680608D5700606D521686FF0400081
:103170000861204600F01CF8A8060AD5B00608D55C
:1031800021686FF0200008612046BDE8F041FFF79C
:1031900004BFBDE8F0817047704700000068034934
:1031A000884201D1FFF7CABA70470000000800400A
:1031B000704770B5040004D094F84100002510B1A8
:1031C00006E0012070BD84F84050204600F024F84D
:1031D000242084F841002068C16821F40051C160B6
:1031E000204600F045FD2068016921F4904101610D
:1031F0002068416921F02A0141612068C16841F4D9
:103200000051C1606564202084F8410084F84200C8
:103210006563002070BD0000F0B585B00024009407
:103220000194029403940368324F0220324903222E
:10323000324D4602BB421AD18B6943F480438B6105
:103240008B6903F4804304938B6943F004038B611F
:103250008969039201F0040104910102CDE9001093
:1032600069462846FFF75AF9CDE900641CE0244F6F
:10327000BB4220D1CB6943F40033CB61CB6903F46B
:10328000003304938B6943F004038B6189690392D3
:1032900001F0040104910421CDE90010694628469B
:1032A000FFF73CF9082022E0694628460294FFF720
:1032B00035F905B0F0BD134DAB42FAD1CB6943F4FB
:1032C0008023CB61CB6903F4802304938B6943F0A3
:1032D00008038B6189690C4D01F00801CDE90321D8
:1032E000CDE9006069462846FFF718F9E814CDE9F2
:1032F0000004D9E7003801400010024000080140F6
:103300000044004000480040000C01402DE9F84313
:10331000044690F84100984616460D46202802D0F3
:103320000220BDE8F88385B17EB1002060642120D1
:1033300084F84100FFF7FCF9A6848146E684A06882
:103340002027B0F5805F02D003E00120E9E7206983
:1033500010B12E4600250EE000260CE0802120460C
:1033600000F0E2FCA8B9C6B116F8010B216848606C
:10337000E08C401EE084E08C4B464FF00002CDF81C
:1033800000800028EAD14FF04001204600F0CCFC3C
:1033900040B184F841700320C3E735F8020BC0F355
:1033A0000800E3E784F841700020BAE7FEE7000078
:1033B0000C4810B50A490160002181600173017554
:1033C0004FF46022C261416001210161FEF7C0FE3D
:1033D00008B1FEF7CDFDBDE810400248FEF7CABDBA
:1033E00000240140A40000207CB501250024CDE983
:1033F00000542E02234632460DA1104802F0C2FBB3
:10340000CDE90054002332460DA10F4802F0BAFB6B
:10341000CDE90054002332460CA10D4802F0B2FB66
:103420000C4A00210C4800F00DFF0C4908607CBDDF
:10343000686561727462656174000000B1370008EC
:103440006D6F6E69746F7200493B00086C6F6700A6
:10345000213B0008006700086936000800000020D2
:103460002DE9F04F85B000244D480094019402945A
:103470000394816941F010018161816901F01001BB
:103480000491816941F004018161816901F00401C5
:103490000491816941F008018161816901F00801AD
:1034A0000491816941F040018161816901F040012D
:1034B0000491816941F020018161816901F020015D
:1034C0000491816941F4807181618069DFF8D4A041
:1034D00000F480700490002208215046FFF722F982
:1034E000DFF8C4B0002240F611015846FFF71AF980
:1034F0004FF40078002241462C48FFF713F90122CF
:1035000011035846FFF70EF9002298212848FFF7CB
:1035100009F94FF40059002249462648FFF702F9FD
:10352000002208212448FFF7FDF80827022601257C
:1035300000970396CDE9015469465046FEF7EEFF29
:1035400041F61100CDE90005CDE90246694658462D
:10355000FEF7E4FFCDF800800396CDE901546946FB
:103560001248FEF7DBFF9820CDE90005CDE90246C1
:1035700069460F48FEF7D2FFCDF800900396CDE9DB
:10358000015469460B48FEF7C9FF00970396CDE941
:10359000015469460848FEF7C1FF05B0BDE8F08F49
:1035A00000100240001001400008014000180140D6
:1035B0000014014000200140000C01400C4810B5EF
:1035C0000A4901604FF4E1314160002181600C2221
:1035D000C160C0E904128161C161FFF7EAFD002802
:1035E00003D0BDE81040FEF7C3BC10BD0038014059
:1035F000D40000200C4810B50A4901604FF4E131B5
:103600004160002181600C22C160C0E90412816127
:10361000C161FFF7CEFD002803D0BDE81040FEF7E2
:10362000A7BC10BD004400401C0100200C4810B590
:103630000A4901604FF4E1314160002181600C22B0
:10364000C160C0E904128161C161FFF7B2FD0028C9
:1036500003D0BDE81040FEF78BBC10BD0048004011
:1036600064010020FEE7FEE7012000F0B0FDFBE76B
:1036700010B54FF0E020006902F0DCFA012803D019
:10368000BDE8104001F022BF10BD30B595B0282133
:103690006846FDF770F814210AA8FDF76CF81821A8
:1036A0000FA8FDF768F801210804CDE900100025F6
:1036B000029502240491CDE907404FF4E0100990EF
:1036C0006846FFF7D9FA08B172B6FEE70AA90F20DB
:1036D00081E831004FF48060CDE90D0502210AA890
:1036E000FFF7C8F908B172B6FEE74FF40040119039
:1036F0000F940FA8FFF748F9002801D072B6FEE733
:1037000015B030BD704700000148FFF7ACBC0000A9
:10371000AC010020F0B50268204C214D214E224F13
:10372000224B4FF0804CA04209D0984207D0604510
:1037300005D0A84203D0B04201D0B84204D122F053
:10374000700E4A6842EA0E02A04209D0984207D0A1
:10375000604505D0A84203D0B04201D0B84203D1A1
:1037600022F44075CA682A434D6922F080022A4338
:1037700002608A68C2620A688262A04201D09842EE
:1037800001D109690163012141610169C90703D0C0
:10379000016921F001010161F0BD0000002C014030
:1037A0000004004000080040000C004000340140CC
:1037B00000245C217FA0FCF767FF08B15C2105E0D5
:1037C0002F217CA0FCF760FF28B12F2179A0FCF706
:1037D0005BFF401C00E077A001467EA2022000F0C3
:1037E0008FFB8548416A890014D55C2171A0FCF7E4
:1037F0004BFF08B15C2105E02F216EA0FCF744FFD0
:1038000028B12F216BA0FCF73FFF401C00E069A00E
:103810007AA242E0416AC90014D55C2165A0FCF798
:1038200033FF08B15C2105E02F2162A0FCF72CFFDB
:1038300028B12F215FA0FCF727FF401C00E05DA00E
:103840007EA22AE0406A4FF05C01000159A012D527
:10385000FCF71AFF08B15C2105E02F2155A0FCF709
:1038600013FF28B12F2153A0FCF70EFF401C00E0EE
:1038700050A07DA211E0FCF707FF08B15C2105E034
:103880002F214CA0FCF700FF28B12F2149A0FCF705
:10389000FBFE401C00E047A07FA20146022000F092
:1038A0002FFB854901200860FFF79AF905465C2146
:1038B00040A0FCF7E9FE08B15C2105E02F213DA006
:1038C000FCF7E2FE28B12F213AA0FCF7DDFE401CF8
:1038D00000E038A001462B4678A2022000F010FB41
:1038E00001F09AFD05465C2132A0FCF7CDFE08B13F
:1038F0005C2105E02F212FA0FCF7C6FE28B12F2167
:103900002CA0FCF7C1FE401C00E02AA001462B467B
:103910006EA2022000F0F4FA724E4FF4FA7741F2F0
:10392000883510213046FEF7F5FE384601F096FB4B
:1039300002F08EF9001BA842F3D302F089F9044685
:10394000694801F0F3FB5C211AA0FCF79DFE08B169
:103950005C2105E02F2117A0FCF796FE28B12F214E
:1039600014A0FCF791FE401C00E012A001465E4B43
:103970005EA2022000F0C4FA01F04EFD80465C21F8
:103980000CA0FCF781FE08B15C2105E02F2109A005
:10399000FCF77AFE28B12F2106A0FCF775FE401C2B
:1039A00000E004A00146434648A2022000F0A8FA25
:1039B000B7E700002E2E5C4150505C5461736B736E
:1039C0005C7461736B5F6865617274626561742EAB
:1039D000630000000D0A3D3D3D3D3D20E7B3BBE7E0
:1039E000BB9FE590AFE58AA8E4BFA1E681AF203D8B
:1039F0003D3D3D3D0D0A000000100240E4B88AE65E
:103A0000ACA1E5A48DE4BD8DEFBC9AE78BACE7AB30
:103A10008BE79C8BE997A8E78B97EFBC88E8AFB45E
:103A2000E6988EE7A88BE5BA8FE69BBEE58DA1E60A
:103A3000ADBBE8BF87EFBC890D0A0000E4B88AE699
:103A4000ACA1E5A48DE4BD8DEFBC9AE8BDAFE4BBAD
:103A5000B6E5A48DE4BD8D2FE9878DE590AFE591A6
:103A6000BDE4BBA40D0A0000E4B88AE6ACA1E5A45D
:103A70008DE4BD8DEFBC9AE4B88AE794B5E68896EC
:103A8000E68E89E794B5EFBC88E6ADA3E5B8B8EF5C
:103A9000BC890D0A00000000E4B88AE6ACA1E5A4E8
:103AA0008DE4BD8DEFBC9AE585B6E4BB962FE69C10
:103AB000AAE79FA50D0A0000E004424248434C4B90
:103AC000203D20256C7520487A0D0A00E589A9E47F
:103AD000BD99E5A086203D20257520E5AD97E88AB3
:103AE000820D0A0000140140C83600200D0AE4BB14
:103AF000BBE58AA109E78AB6E680815C74E4BC98DC
:103B0000E58588E7BAA75C74E589A9E4BD99E6A0D4
:103B1000885C74E5BA8FE58FB70D0A25730D0A002E
:103B2000C2B0084C4FF0FF356E462A4669466068C1
:103B300001F096FE0128F8D1BDF80010B01C00F08D
:103B400045FAF2E7940000208CB041F2883017E08B
:103B50005C2105E02F2129A0FCF796FD28B12F213B
:103B600026A0FCF791FD401C00E024A08DE8E00FAA
:103B700001462346284A022000F0C2F94FF47A7029
:103B800001F06CFA07A801F083F8244D0A98294641
:103B900002F000FC02F096FB0A2490FBF4F190FB8B
:103BA000F4FA04FB110B2946099802F0F3FB02F02A
:103BB00089FB90FBF4F190FBF4F804FB1109294612
:103BC000089802F0E7FB02F07DFB90FBF4F190FB1C
:103BD000F4F604FB11072946079802F0DBFB02F01C
:103BE0008DFBB0FBF4F104FB1105B0FBF4F45C2198
:103BF00002A0FCF749FD0028ACD0A9E72E2E5C41BD
:103C000050505C5461736B735C7461736B5F6D6F68
:103C10006E69746F722E63000C6900080000204109
:103C200001680C3151E8002F22F4907241E8002322
:103C3000002BF5D10168143151E8002F22F0010268
:103C400041E80023002BF5D1016B012909D101685E
:103C50000C3151E8002F22F0100241E80023002B24
:103C6000F5D1202180F84210002101637047000047
:103C700070B5044600680169E26821F440511143BF
:103C800001612169A0680843616908432168CA6825
:103C900041F20C639A430243CA6020684169A269F9
:103CA00021F44071114341611E492068884202D1CC
:103CB000FEF7ACFF01E0FEF799FF00EBC00101EB5E
:103CC0000012606864218000B2FBF0F3B3FBF1F3F3
:103CD0006FF018067343B2FBF0F5B2FBF0F605EB9C
:103CE0008305322303EB0515B5FBF1F5B6FBF1F6C1
:103CF00005F0F00505EB0615B2FBF0F6B2FBF0F0AF
:103D0000B0FBF1F06FF01802504306EB800003EBBC
:103D10000010B0FBF1F0216800F00F00284488602B
:103D200070BD0000003801402DE9F8439846174661
:103D30000D460446089E24E0701C22D0FEF7F8FCD5
:103D4000A0EB0800B0421AD8CEB12068C16849077C
:103D500017D5802D15D0402D13D00168C943090710
:103D60000FD401680025406800902046FFF758FFF7
:103D70000820606484F840500120BDE8F8830320E7
:103D8000FBE72068006835EA000004D00020B84254
:103D9000D2D00020F1E70120F9E7FEE7490050EA20
:103DA000C12018BF04204A0D18BF40F0010040F2A6
:103DB000FF72B2EB515F08BF40F00200012808BF5C
:103DC000052070470907090E002804DB00F1E020F8
:103DD00080F80014704700F00F0000F1E02080F838
:103DE000141D704700214FF07E5002F0A9B9012147
:103DF00002F047BC0021084602F0A2B930380A2878
:103E000001D20120704700207047704710B5002490
:103E1000E0B2002100F004F8641C082CF8DB10BDAF
:103E200010B508280ED2084A00EB400002EB8004CF
:103E3000204600F00BF80246A1882068BDE810403B
:103E4000FEF770BC10BD0000606700088079002993
:103E500001D108B100207047012070472DE9F041E1
:103E6000040006D0184E306884420AD10020BDE814
:103E7000F081502080F31188BFF34F8FBFF36F8F15
:103E8000FEE701F013F86569776BB66B01F02EF869
:103E9000BD4201D0B54201D10220E8E70B4885427E
:103EA00008D1A06A0028F7D194F858000128F3D06F
:103EB0000320DCE705481438854202D00DB101200B
:103EC000D5E70420D3E7000014000020E40600201A
:103ED00010B500224FF48171062001F018FB074C49
:103EE0006060012001F008FBA060616809B1002852
:103EF00002D100206060A06010BD0000940000208E
:103F00000FB470B5254DC2B02A78904236D8C8B3E8
:103F100001283AD002283AD021A3009101AE22A272
:103F20004FF48071B01CFCF745FA0446FF2825D8F1
:103F3000301949ABC4F58071801C489AFCF70AFA25
:103F400000281BDB2118FD2900DDFD2173180D223F
:103F50009A70491C0A227318491C9A7089B2ADF8EC
:103F600004106C68ACB100231A4601A9204601F088
:103F700067FB012802D0E868401CE86042B070BCD2
:103F80005DF814FBFFE70BA3C7E70CA3C5E70DA380
:103F9000C3E7B01C00F01AF8F0E70000940000201E
:103FA00044454255470000005B25735D2025733A68
:103FB000200000004552524F520000005741524E1F
:103FC00020000000494E464F2000000070B50D4C07
:103FD00006460D46A06818B14FF0FF3101F0DCFC39
:103FE00064232A4631460848FFF790F9A068002864
:103FF00006D0BDE8704000231A46194601F020BBE8
:1040000070BD000094000020D40000202DE9F04194
:104010000026A0F50001B1F1FE4F7DD200F500228F
:104020006FF07E0101EBE251C2F3025477184FF0BA
:104030007E52A0EBC15602EB045557EA040047D06C
:104040002946304602F014F880462946304602F0F0
:104050006DFA414602F074F80546014602F09AF9FD
:104060008046454902F096F9444902F001F80646B7
:104070004146284602F08EF9314602F08BF9064699
:10408000384602F05BF907463D4902F083F93D49A5
:10409000794451F8241001F0EBFF314601F0E8FFBC
:1040A00006460121284602F0ECFA314601F0E0FF15
:1040B00005463846344902F06DF93449794451F8DF
:1040C000241001F0D5FF2946BDE8F04101F0D0BF32
:1040D0004FF07E51304602F029FA05462C4902F095
:1040E00059F92C4901F0C4FF294602F053F92A4935
:1040F00001F0BEFF294602F04DF96FF0824101F058
:10410000B7FF04462946084602F044F9214602F06A
:1041100041F90146284600E003E0BDE8F04101F026
:10412000A7BF4FF07F42B2EB400F03D2BDE8F04192
:10413000FFF75DBEB0F1FF4F08BFBDE8F081B0F101
:10414000004F06D90120FCF746FBBDE8F041FFF720
:1041500051BE30F0004105D06FF01606172102F075
:1041600090FA5BE70220FCF736FBFFF73BFE80F09E
:104170000040BDE8F081000066F1CC3EAAAA2A3FCB
:10418000F4FD0538602700000070313F142700005F
:1041900021ED423E0A1180BEC1ABAA3EFEF7D6FA1F
:1041A000FFF734FEFFF794FEFFF76FFAFFF758F9B9
:1041B000FFF704FAFFF71EFAFFF738FAFFF7F8F8EF
:1041C00000F012F8FFF710F900F020F8FEE710B544
:1041D000EFF3058111B16FF0050403E0002408B18D
:1041E00000F03CFF204610BDEFF3058010B16FF0EA
:1041F000050070470448016811B14FF0FF30704767
:1042000001210160002070476400002010B5EFF329
:10421000058010B16FF0050010BD08480168012944
:1042200002D04FF0FF3010BD054A002182F8141D66
:104230000221016001F05EF8002010BD6400002042
:104240000BE000E02DE9FF414FEA01034FF00005CC
:10425000EFF30581039549BB40B380271821002463
:104260004AB3166806B1344696691EB13146761EC9
:10427000382E02D21679F60703D0002004B0BDE82C
:10428000F081566906B1B708D2F808C0BCF1000F3A
:104290000DD0D5685C2D18D312693AB136B18DE8CE
:1042A00006103A46214601F09AFC03900DE0D668CC
:1042B0005EB912694AB903AACDE90012BAB2214621
:1042C00001F060FC012800D003950398D6E70000B8
:1042D0002DE9F041134C0F460546E6682068001DA5
:1042E00000F028FD681C07D137B12168BDE8F04116
:1042F0000D48091D00F0CDBD20683544B54245602C
:10430000216805D2A06BBDE8F041091D00F0A9BDF0
:10431000606B091D00F0A5FDA06A854200D2A56270
:10432000BDE8F08114000020E40600202DE9F041F2
:10433000054600F0BBFD2D4CA068401CA060206825
:104340002B4F10B1606930B32BE02560A0680128C5
:1043500027D1002606EB860007EB800000F073FDF6
:10436000761C382EF6D3234800F06DFD214814301A
:1043700000F069FD1F48283000F065FD1D483C3005
:1043800000F061FD1B48503000F05DFD194860638E
:104390001430A06305E02068E96AC06A884200D84A
:1043A0002560606A401C60626864E86A216988422E
:1043B00000D9206100EB800007EB8000291D00F090
:1043C00068FD00F093FD606900280CD02068E96A60
:1043D000C06A884207D208494FF080500860BFF396
:1043E0004F8FBFF36F8FBDE8F081000014000020F5
:1043F000340200209406002004ED00E038B500F0FF
:1044000055FD104C2068C8B90F4800F01CFD0E483F
:10441000143000F018FD0C48E060143020610A4BA5
:104420000020F03B009003F1500210210A2001F01F
:104430008FF8206010B105A100F0DAFDBDE838402A
:1044400000F054BD50000020E8070020546D725168
:104450000000000030B4026C0B46002A0BD0C1688B
:104460001144C1608468A14201D30168C16030BCBD
:104470001846FCF733B930BC70472DE9F041856B25
:10448000174604460026026C82B1C7B1E068FCF70B
:1044900025F9E168206C091AE1602268914202D294
:1044A000A168081AE060022F16D017E02068A8B9AA
:1044B000A06801F037FC06460020A0600EE06068AE
:1044C000FCF70CF9216C606808446060A1688842C0
:1044D00004D32068606001E005B16D1E6D1CA5630A
:1044E0003046BDE8F08110B5044690F8590058B147
:1044F00001280CD002280FD0502080F31188BFF380
:104500004F8FBFF36F8FFEE7206B00F003FD204657
:10451000BDE8104000F0FEBC10BD000010484FF494
:104520002051420706D0C01D0D4920F00700411A56
:10453000C1F520510B4A00230144C2E900030839A8
:10454000183A21F0070111604B600B600B1AC0E9AB
:10455000001393604FF000405360506170470000BB
:10456000C80E002080000020144E154CA6F29C4777
:104570004FF08058DFF84C9012E000BF00F096FC3E
:10458000F068C568281D00F0D5FBA068401EA0603B
:104590006068401E606000F0A9FC2846FFF7A3FF9A
:1045A00060680028EAD138680128F9D9C9F8008084
:1045B000BFF34F8FBFF36F8FF2E70000D0060020EC
:1045C0001400002004ED00E0002807D000218160E5
:1045D00001600B460A46C16001F032B87047000026
:1045E00070B51D46049C51B1C4F80020C4E90F0108
:1045F0000121204600F0E0FF84F84C5070BD24609B
:10460000F4E700002DE9F05F8846DDE90B941546DC
:10461000834691009A460A9EA522206BFCF7A3F8D8
:104620006FF00301206B01EB8501084420F00707C0
:10463000780707D0502080F31188BFF34F8FBFF366
:104640006F8FFEE70025B8F1000F0FD05FF000007C
:10465000221818F8001082F8341018F8001011B160
:10466000401C1028F4D384F8435001E084F83450FF
:10467000382E00D33726E662C4E91365201D00F00A
:10468000EDFB04F1180000F0E9FB2461C6F13800ED
:104690006462A061656584F85850524659463846B0
:1046A00000F0A2FA2060B9F1000F01D0C9F8004073
:1046B000BDE8F09F30B5114900E011460A6882421A
:1046C000FBD34B685C18844203D1406818444860AF
:1046D000084643681C18944209D1084C183C2468C9
:1046E000A24209D052681A4442600A681268026005
:1046F000814200D0086030BD0460F9E780000020EE
:1047000070B5002441600B4D0061914206D8D11A6A
:104710008269914206D2011D286907E09A4203D2BC
:10472000994201D3012403E0011DE86800F099FBE0
:10473000204670BD5000002010B5044600F0B6FBC6
:10474000A06B28B15FF0000400F0D0FB204610BD44
:104750000124F9E72DE9F0478146086892460C46A6
:10476000002600B3606804F1080540686060A84254
:1047700001D1416861606068D0F80C806068406871
:104780006060A84201D141686160606806EBC601C3
:1047900009EB8101C76853460122384600F084FCCA
:1047A000761C4745EAD13046BDE8F08730B589B080
:1047B0003C4D6EE00498002806DADDE90601059A12
:1047C00090470498002864DB069C606910B1201DA6
:1047D00000F0B0FA03A800F0D7F8024604980A28BF
:1047E00057D2DFE800F00505052D334A05052D33C6
:1047F00094F8280040F0010084F828000599A06989
:10480000059B01442046FFF77BFF68B3216A2046E1
:10481000884794F8280040073BD500200090059871
:10482000A169002342181946204601F0C1FBD8B9FE
:10483000502080F31188BFF34F8FBFF36F8FFEE7D7
:1048400014F8280F20F00100207022E094F82800CE
:1048500040F0010084F828000598A06128B1811873
:1048600013462046FFF74CFF13E0502080F31188D9
:10487000BFF34F8FBFF36F8FFEE794F828008107D7
:1048800003D4204600F046FB03E020F0010084F84A
:104890002800002204A9286800F0E2FF002889D13E
:1048A00009B030BD500000202DE9FC410F460546FF
:1048B00000F064FD01A800F067F80446019818B103
:1048C00001F0E4FABDE8FC81254EAFB13069006823
:1048D000D0B30027291B3A46306800F09DFB01F059
:1048E000D5FA0028EED11F494FF080500860BFF381
:1048F0004F8FBFF36F8FE5E7A542EBD801F0C6FA03
:10490000F0682746C068C468201D00F013FA94F8C8
:104910002800410719D5A0692B4641193A4620467F
:10492000FFF7EEFEA8B100200346014600902A469C
:10493000204601F03DFB60B9502080F31188BFF3A1
:104940004F8FBFF36F8FFEE707E020F0010084F880
:104950002800216A20468847B4E70127BAE700000B
:104960005000002004ED00E00648416B096829B1C1
:10497000416BC968C9684968816270474FF0FF316F
:10498000FAE700001400002070B5054601F060F958
:10499000064E0446B068844203D200F009F80120B4
:1049A00000E0002028602046B46070BD5000002068
:1049B000F8B5194D20E0C068C4680668201D00F0F5
:1049C000B9F9216A2046884794F82800400713D592
:1049D000A0693044B04206D924616060211DE868B6
:1049E00000F03FFA08E000200346014600903246FE
:1049F000204601F0DDFA38B1E86801680029DAD113
:104A00002969C5E90310F8BD502080F31188BFF370
:104A10004F8FBFF36F8FFEE750000020002101E0B1
:104A2000401C491C0278A52AFAD0C1F38F007047B8
:104A300008484068401C4FF0500080F3118804D0B3
:104A4000BFF34F8FBFF36F8FFEE7BFF34F8FBFF3FF
:104A50006F8FFEE788000020074CE068016841B1D5
:104A6000C0680021D0F80000FFF71EFFFFF79EFE90
:104A7000F3E701210020F7E7500000202DE9F04185
:104A8000044600F013FA94F9455004F1240609E0B5
:104A9000606A48B1304601F0C1F908B100F0A8FBE6
:104AA0006D1E6DB2002DF3DC4FF0FF3684F84560CB
:104AB00000F01CFA00F0FAF994F9445004F11007E0
:104AC00009E0206948B1384601F0A8F908B100F0C2
:104AD0008FFB6D1E6DB2002DF3DC84F84460BDE8E1
:104AE000F04100F003BA00002DE9F041054600272F
:104AF00000F044FC354E306808B9FFF70FFD7069CF
:104B0000054216D1ADB1083568070ED005F0070093
:104B1000C0F108000544680707D0502080F31188D1
:104B2000BFF34F8FBFF36F8FFEE715B170688542FB
:104B300002D901F0ABF939E02448183001460C687D
:104B400001E020460C466168A94202D22168002992
:104B5000F7D131688C42ECD0076821680160606849
:104B60000837411B10290ED96019420707D0502081
:104B700080F31188BFF34F8FBFF36F8FFEE7416063
:104B80006560FFF797FD61687068401A7060B268F1
:104B9000904200D2B060706901430020C4E9000176
:104BA000F068401CF06001F071F90FB900F042F9B3
:104BB000780707D0502080F31188BFF34F8FBFF3E1
:104BC0006F8FFEE73846BDE8F081000068000020E6
:104BD0000449086818B10868026D521C026508682B
:104BE000704700001400002010B5031F4FF08074C0
:104BF0001C601B1F21F001011960191F024B0B6083
:104C0000143940380A6010BD314A000870B501F00F
:104C1000ADFB174901F094FA164D294601F0BAFB95
:104C200004461548844201DB144870BD21462846DD
:104C300001F07CFC124E05463146204601F0AAFBED
:104C4000294601F07DFA314601F07AFAFFF7DEF9E4
:104C50000C4901F075FA0C4901F00AFA01464FF0CF
:104C60007E5001F06DFABDE87040084901F05EBC6D
:104C700000F07F455C8F5240547450400000C8C221
:104C800000401C4600E076450FCF5B3B33938843E2
:104C900010B5040020D00E2000F026F801F066FBCD
:104CA0000E4901F04DFA0E4901F074FB0D4901F077
:104CB00071FB20600B2000F017F8FFF7A7FF606082
:104CC0000C2000F011F8FFF7A1FFA060082000F011
:104CD0000BF8FFF79BFFE06010BD000000F07F4580
:104CE0005C8F5240A9130B413EB500240090012077
:104CF00001900720029069460D48FDF7A7F90025AD
:104D00000B48FDF791FB0A210948FDF7EFFA084827
:104D1000FDF71AFA04440648FDF7E6FB6D1CEDB2F8
:104D20000A2DEDD30A20B4FBF0F080B23EBD0000A6
:104D3000A4000020D0E9013201699A60D0E9012382
:104D40005A604A68824201D182684A600022026148
:104D50000868401E08600868704700002DE9F047A9
:104D600017460A4605460024382600F007FBDFF800
:104D70008C80D8F8080082423AD3DFF88490761EFF
:104D800006EB860104EBC40009EB810105EB800012
:104D90000122FFF7DFFC0444002EF0D104EBC40035
:104DA00005EB800002224646D8F83410FFF7D2FC0B
:104DB000044404EBC40005EB80000222B16BFFF752
:104DC000C9FC044404EBC40005EB800004220D4937
:104DD000FFF7C0FC04440B4904EBC40005EB800062
:104DE00003221431FFF7B6FC04440FB100203860F1
:104DF00001F04CF82046BDE8F087000014000020C8
:104E000034020020D0060020034B036003F15C0055
:104E1000086080201060704710080020044B036079
:104E200003F15C0008604FF4807010607047000070
:104E30006C0A00207047502080F31188BFF34F8F19
:104E4000BFF36F8FFEE700F108014FF0FF32C0E9BA
:104E50000112C16001610021016070470021016100
:104E6000704730B50B685A1C02D000F1080202E00E
:104E7000026904E02246546825689D42FAD95368C5
:104E80004B6099608A60516008610168491C01604B
:104E900030BD42684A6093688B6093685960916046
:104EA00008610168491C016070470000502080F3D0
:104EB0001188BFF34F8FBFF36F8F0A494868401CBA
:104EC000486001280CD10848006810F0FF0F07D097
:104ED000502080F31188BFF34F8FBFF36F8FFEE731
:104EE000704700008800002004ED00E00849486891
:104EF00028B1401E486001D180F3118870475020CE
:104F000080F31188BFF34F8FBFF36F8FFEE7000070
:104F10008800002070B500282AD0164DA0F10804A2
:104F200060686969084207D1502080F31188BFF397
:104F30004F8FBFF36F8FFEE722683AB1502080F3A6
:104F40001188BFF34F8FBFF36F8FFEE78843606018
:104F500000F014FA60686968084468602046FFF74A
:104F6000A9FB2869401C2861BDE8704000F08EBF95
:104F700070BD0000680000204FF0E02000210161BA
:104F8000816105494FF47A720968B1FBF2F1491E5B
:104F900041610721016170471000002010B5FBF747
:104FA000B3F9114910280ED300F1E02090F8F00376
:104FB0000A78904207D2502080F31188BFF34F8FB8
:104FC000BFF36F8FFEE709480068896800F4E0606E
:104FD000884207D9502080F31188BFF34F8FBFF369
:104FE0006F8FFEE710BD0000880000200CED00E090
:104FF00010B5084B002200BF53F832401CB1521CC0
:10500000082AF9D310BD43F8321003EBC2014860FF
:1050100010BD0000F401002070B515460E46044690
:10502000FFF744FF94F944100020491C01D184F893
:10503000440094F94510491C01D184F84500FFF75C
:1050400055FFA06B28B92A46314604F1240000F030
:10505000EDF82046BDE87040FFF710BD10B5020026
:1050600014D00F48006B38B1502080F31188BFF383
:105070004F8FBFF36F8FFEE700F080F900211046DD
:10508000FFF726F900F002FF002807D105494FF08D
:1050900080500860BFF34F8FBFF36F8F10BD0000CB
:1050A0001400002004ED00E02DE9F0410C461A49FF
:1050B0001646B0B14FEA000505F13400C4E90050CE
:1050C000E86A2061286BE061686CA0600027E86CEA
:1050D000C4E90507052B12D00868854203D1277360
:1050E00011E00D68E8E72373032B0CD100F046F9BB
:1050F000A86A08B10220207300F0C8FE03E0284629
:10510000FEF7ACFE20732EB1286BFFF787FC2084DE
:10511000BDE8F0812784FBE71400002002490A6AF9
:105120000260C96841607047140000202DE9FC4707
:105130004FF00009044680F8009028488568806890
:1051400000EBC0008000FFF7CFFC070044D0002236
:105150002946FFF703FE8046002536E005EBC50033
:1051600007EB8006307B052817D2DFE800F0030547
:1051700010121400582000E0522082462046716828
:10518000FBF75EFA2046FBF78AFA202109E042206D
:10519000F3E75320F1E74420EFE70020EDE7215447
:1051A000401C0F28FBD304F800900444B168308CF5
:1051B000CDE9000152460AA120463369FBF7E4F825
:1051C0002046FBF76CFA04446D1C4545C6D33846AF
:1051D000BDE8FC47FFF79EBEBDE8FC871400002039
:1051E0000925630925750925750925750D0A00002E
:1051F00001490120C86170471400002010B50C4619
:1052000050B1094909681831FFF72BFE2046BDE867
:1052100010400121FFF75CB8502080F31188BFF3E4
:105220004F8FBFF36F8FFEE71400002070B5144658
:105230000D4668B10A4909681831FFF72AFE0CB11A
:105240004FF0FF3521462846BDE87040FFF740B8D3
:10525000502080F31188BFF34F8FBFF36F8FFEE7AD
:105260001400002070B504003ED0226DA2B1E06CA5
:10527000884200D30146E06A884235D0012A33D102
:105280001A4D2A6894420FD1502080F31188BFF341
:105290004F8FBFF36F8FFEE7502080F31188BFF36D
:1052A0004F8FBFF36F8FFEE7E162A269002A02DB36
:1052B000C1F13801A1610E4E00EB8000616906EB7F
:1052C0008000814210D1201DFFF734FDE06A29697A
:1052D000884200D9286100EB800006EB8000211D88
:1052E000BDE87040FFF7D5BD70BD00001400002080
:1052F0003402002030B587B00024039405AA04A925
:1053000003A80494FFF780FDDDE903010094CDE9D3
:105310000110002315A11748059A00F060FC164DF6
:105320000028E8621FD000F013FE012809D0401CBD
:1053300019D1502080F31188BFF34F8FBFF36F8FC7
:10534000FEE7502080F31188BFF34F8FBFF36F8FBC
:105350004FF0FF30A86201206861EC6007B0BDE843
:10536000304000F05FB807B030BD000049444C4504
:105370000000000069450008140000200248016B8D
:10538000491C0163704700001400002010B5204C38
:10539000206B10B10120E06110BD0020E0612068A9
:1053A0004FF0A531006B02688A4208D142688A42F8
:1053B00005D182688A4202D1C068884204D021683F
:1053C00020683431FFF737FD2069124901E0B8B198
:1053D000401E00EB800251F82220002AF7D000EB9B
:1053E000800201EB820101F108034A6852684A60B9
:1053F0009A4201D152684A60D1682160206110BD93
:10540000502080F31188BFF34F8FBFF36F8FFEE7FB
:10541000140000203402002001484068704700005A
:10542000680000201CB5264908780190FF2008700C
:1054300008788DF800009DF800009DF8002000F02D
:10544000F000904207D0502080F31188BFF34F8FB7
:10545000BFF36F8FFEE79DF800001A4C00F050007C
:1054600020700720A06005E09DF8002052008DF814
:105470000020401E9DF800201206F5D4A0600328ED
:1054800007D0502080F31188BFF34F8FBFF36F8F89
:10549000FEE74FF44070A060019808700A48016868
:1054A00041F470010160016841F070410160FFF753
:1054B00063FD00206060FAF7F1FE00201CBD0000D3
:1054C00000E400E08800002020ED00E010B550204E
:1054D00080F31188BFF34F8FBFF36F8F00F0BEFBD7
:1054E00018B104494FF080500860002080F3118803
:1054F00010BD000004ED00E010B5024600210120BF
:1055000000F005F80446FFF75FF8204610BDF8B537
:1055100017460E46050013D005FB06F05030FFF786
:10552000E3FA04000AD0002084F8460004F1500297
:105530003B46314628460094FFF752F82046F8BD16
:10554000502080F31188BFF34F8FBFF36F8FFEE7BA
:1055500038B5049D18B153B1CAB181B120E05020D3
:1055600080F31188BFF34F8FBFF36F8FFEE750209A
:1055700080F31188BFF34F8FBFF36F8FFEE750208A
:1055800080F31188BFF34F8FBFF36F8FFEE739B100
:10559000502080F31188BFF34F8FBFF36F8FFEE76A
:1055A00050241C46012384F846302B460094FFF714
:1055B00017F8204638BD000070B50D46040025D010
:1055C000FFF774FCD4E90F20216802FB0011A160F1
:1055D0000021A163216861600A46D4E90F01401EE1
:1055E00000FB0121E16021464FF0FF3001F8440F3C
:1055F000487004F110008DB1FFF725FC04F1240080
:10560000FFF721FCFFF772FC012070BD502080F3F2
:105610001188BFF34F8FBFF36F8FFEE72169002919
:10562000F0D000F0FBFB0028ECD004494FF0805094
:105630000860BFF34F8FBFF36F8FE3E704ED00E027
:105640002DE9FF4782B01D468A464FF0000804004E
:1056500003D0BAF1000F08D011E0502080F3118878
:10566000BFF34F8FBFF36F8FFEE7206C38B1502030
:1056700080F31188BFF34F8FBFF36F8FFEE7022DCA
:105680000AD1E06B012807D0502080F31188BFF3C6
:105690004F8FBFF36F8FFEE700F0CCFA3F4F4FF014
:1056A00000094FF0805648B9049838B1502080F373
:1056B0001188BFF34F8FBFF36F8FFEE7FFF7F6FB45
:1056C000A06BE16B884207D3022D05D00498D0B1BE
:1056D000B8F1000F1AD01EE02A4651462046FEF7C8
:1056E000CCFE616A19B104F1240000F097FB20B1EF
:1056F0003E60BFF34F8FBFF36F8FFFF7F7FB0120C3
:1057000006B0BDE8F087FFF7F1FB22E06846FFF73F
:1057100005FD4FF00108FFF7E9FBFFF72FFEFFF74C
:10572000C5FB94F94400401C01D184F8449094F9DD
:105730004500401C01D184F84590FFF7D7FB04A930
:10574000684600F0E5F930B12046FFF797F900F020
:105750009DFB0020D4E7FFF7A9FBA06BE16B88421B
:1057600013D1FFF7C3FB04F110000499FFF746FDC6
:105770002046FFF783F900F089FB00289ED13E60A8
:10578000BFF34F8FBFF36F8F98E7FFF7AFFB204654
:10579000FFF774F900F07AFB90E7000004ED00E0F9
:1057A0002DE9F0471F4690468946040003D0B9F121
:1057B000000F08D011E0502080F31188BFF34F8F05
:1057C000BFF36F8FFEE7206C38B1502080F3118853
:1057D000BFF34F8FBFF36F8FFEE7022F0AD1E06B4D
:1057E000012807D0502080F31188BFF34F8FBFF3FB
:1057F0006F8FFEE7FFF7D2FB5020EFF3118680F3A7
:105800001188BFF34F8FBFF36F8FA06BE16B88429E
:1058100006D3022F04D0002086F31188BDE8F0875C
:1058200094F94550A06B3A4649462046FEF725FEBE
:10583000681C04D06D1C84F845500120ECE7606AB8
:105840000028FAD004F1240000F0E8FA0028F4D08F
:10585000B8F1000FF1D00121C8F80010EDE7000009
:105860002DE9F747002683B08A46040003D0BAF139
:10587000000F08D011E0502080F31188BFF34F8F44
:10588000BFF36F8FFEE7206C38B1502080F3118892
:10589000BFF34F8FBFF36F8FFEE700F0CBF9DFF858
:1058A000F4804FF000094FF0805748B9059838B19F
:1058B000502080F31188BFF34F8FBFF36F8FFEE747
:1058C000FFF7F4FAA56BC5B151462046FEF7C2FDBD
:1058D0006D1EA563206950B104F1100000F09EFA1E
:1058E00028B1C8F80070BFF34F8FBFF36F8FFFF779
:1058F000FDFA012006B0BDE8F087059808B11EB199
:1059000006E0FFF7F3FA27E06846FFF707FC0126F9
:10591000FFF7ECFAFFF732FDFFF7C8FA94F94400FD
:10592000401C01D184F8449094F94500401C01D1F9
:1059300084F84590FFF7DAFA05A9684600F0E8F820
:10594000002820460AD0FFF799F800F09FFA204679
:10595000FEF7F2FE0028B3D00020CBE7FEF7ECFE06
:1059600090B104F124000599FFF748FC2046FFF7A9
:1059700085F800F08BFA0028A2D1C8F80070BFF3B8
:105980004F8FBFF36F8F9BE72046FFF777F800F04C
:105990007DFA95E704ED00E02DE9F343002683B09E
:1059A0000400354609D0206C78B1502080F311886E
:1059B000BFF34F8FBFF36F8FFEE7502080F3118846
:1059C000BFF34F8FBFF36F8FFEE700F033F9DFF8BF
:1059D0003C814FF000094FF0805748B9049838B126
:1059E000502080F31188BFF34F8FBFF36F8FFEE716
:1059F000FFF75CFAA06BC8B1401EA063206810B925
:105A0000FFF7E6F8A060206950B104F1100000F043
:105A100005FA28B1C8F80070BFF34F8FBFF36F8F3E
:105A2000FFF764FA012005B0BDE8F083049808B1DF
:105A300066B10FE03DB1502080F31188BFF34F8F66
:105A4000BFF36F8FFEE7FFF751FA5DE06846FFF79F
:105A500065FB0126FFF74AFAFFF790FCFFF726FAED
:105A600094F94400401C01D184F8449094F9450015
:105A7000401C01D184F84590FFF738FA04A9684624
:105A800000F046F80028204612D0FEF7F7FF00F09D
:105A9000FDF92046FEF750FE0028A9D09DB3FFF780
:105AA00005FA606A50B3206B0068C0F1380126E047
:105AB000FEF742FEE0B1206838B9FFF7F7F9A068B9
:105AC00000F070F90546FFF711FA04F1240004997B
:105AD000FFF794FB2046FEF7D1FF00F0D7F900282E
