:020000040800F2
:10000000F0220020790200088F1600084114000831
:100010008D160008F9070008F1180008000000001C
:10002000000000000000000000000000E1010008E6
:10003000FB070008000000002502000899160008D0
:10004000930200089302000893020008930200083C
:10005000930200089302000893020008930200082C
:10006000930200089302000893020008930200081C
:10007000930200089302000893020008930200080C
:1000800093020008930200089302000893020008FC
:1000900093020008930200089302000893020008EC
:1000A00093020008930200089302000893020008DC
:1000B0009302000893020008151700089302000835
:1000C00093020008930200089302000893020008BC
:1000D00093020008930200089302000893020008AC
:1000E000930200089302000893020008930200089C
:1000F000930200089302000893020008930200088C
:10010000930200089302000893020008930200087B
:10011000930200089302000893020008930200086B
:10012000930200089302000893020008930200085B
:1001300000F002F800F045F80AA090E8000C8244B4
:100140008344AAF10107DA4501D100F03AF8AFF291
:10015000090EBAE80F0013F0010F18BFFB1A43F0A5
:1001600001031847CC320000EC320000103A24BFE3
:1001700078C878C1FAD8520724BF30C830C144BF0C
:1001800004680C607047000000230024002500264E
:10019000103A28BF78C1FBD8520728BF30C148BFEA
:1001A0000B607047752900F00781632900F07B829E
:1001B000732900F08082002070471FB51FBD10B565
:1001C00010BD00F0E7FA1146FFF7F7FF01F0E8FB7A
:1001D00000F005FB03B4FFF7F2FF03BC01F099FB4D
:1001E000224B19680868B0E8F00F80F30988BFF364
:1001F0006F8F4FF0000080F311884EF00D0E7047A6
:100200000000000006480068006880F3088862B6B5
:1002100061B6BFF34F8FBFF36F8F00DF00BF00BF2A
:1002200008ED00E0EFF30980BFF36F8F0F4B1A6802
:1002300020E9F00F106008B54FF0500080F31188EE
:10024000BFF34F8FBFF36F8F02F0A8FB4FF000009A
:1002500080F31188BDE8084019680868B0E8F00F1D
:1002600080F30988BFF36F8F704700BF180000202C
:10027000EFF30580704700000948804709480047B0
:10028000FEE7FEE7FEE7FEE7FEE7FEE7FEE7FEE746
:10029000FEE7FEE704480549054A064B70470000A3
:1002A0001117000831010008F01C0020F022002086
:1002B000F01E0020F01E0020704700000FB404491B
:1002C00010B503AA029800F0FBF910BC5DF814FB0E
:1002D000040000200FB41CB5074B06AA7B446946F6
:1002E0000090059800F0BDF90020694600F0CCF9B7
:1002F0001CBC5DF814FB0000A90300002DE9F041CF
:100300000E460446002020622046E168884730B34C
:10031000252805D0D4E901219047206A401CF2E746
:10032000E168204600278847050018D0A5F1410064
:10033000192802D820354FF4006732462946204656
:100340002760FFF72FFF40B1012804D0F61D26F0EB
:1003500007060836D8E7361DD6E72846DAE7206ACA
:10036000BDE8F08170B50C460546012A05D0287815
:10037000800600D5EA69002302E0012305E05B1C4A
:10038000934202D2E05C0028F9D1A869E618C01AAD
:10039000A861286A184428622846AFF3008004E068
:1003A000D5E9012114F8010B9047B442F8D328464F
:1003B000AFF3008070BD00002DE9F0410646002437
:1003C00010687529314616A510D0AFF300800028BB
:1003D00002DA404213A507E031688A0701D512A569
:1003E00002E0490704D511A5012401E0AFF3008024
:1003F00000210A2206F1240709E0B0FBF2FCB0FB61
:10040000F2F302FB1C00303078541846491C0028D7
:10041000F3D123462A463046BDE8F04100F0C3B888
:10042000000000002D0000002B0000002000000054
:1004300040EA0103024630B59B0710D14FF001346A
:1004400000E008C208C91D1B9D4315EAC41FF8D06F
:1004500013F0FF0102F8011B0DD01B0AF8E711F899
:10046000013B002B02F8013B05D011F8013B002BAA
:1004700002F8013BF3D130BD10B5431C02E010F887
:10048000011B71B18107FAD14FF0013202C88C1AF9
:100490008C4314EAC211F9D0C01A0A0603D0C01E58
:1004A00010BDC01A10BD0A0401D0801E10BD090283
:1004B000FCD0401E10BD032A40F2308010F0030C27
:1004C00000F0158011F8013BBCF1020F624498BFA7
:1004D00011F801CB00F8013B38BF11F8013BA2F144
:1004E000040298BF00F801CB38BF00F8013B11F0BF
:1004F000030300F0F780083AC0F0088051F8043B8D
:10050000083A51F804CBA0E80810F5E7121D5CBFCB
:1005100051F8043B40F8043BAFF30080D20724BFFE
:1005200011F8013B11F801CB48BF11F8012B24BF92
:1005300000F8013B00F801CB48BF00F8012B7047E1
:1005400002F0FF0343EA032242EA024200F0FEB84F
:100550004FF0000200B5134694469646203922BF5C
:10056000A0E80C50A0E80C50B1F12001BFF4F7AFA7
:10057000090728BFA0E80C5048BF0CC05DF804EB89
:10058000890028BF40F8042B08BF704748BF20F8F7
:10059000022B11F0804F18BF00F8012B70477047F5
:1005A0007047704770472DE9F0470D4699469246CF
:1005B000044600F124080168880604D5E06921F0AA
:1005C0001001216000E00120A84201DD471B00E08E
:1005D0000027A1697A1902EB0900081AA0612078A6
:1005E000C00602D42046AFF30080002608E0D4E91C
:1005F00001211AF806009047206A401C761C2062F0
:100600004E45F4DB2078C0060AD52046AFF30080C3
:1006100006E0D4E9012130209047206A401C206286
:10062000381EA7F10107F4DC07E0D4E9012118F82E
:1006300005009047206A401C2062281EA5F1010594
:10064000F3DC2046AFF300802078000602D50220BC
:10065000BDE8F0870120FBE701694A1C02610878C8
:10066000704700B58FB0CDE90131002105910549F2
:100670007944CDE9031011466846FFF73FFE0FB0FD
:1006800000BD0000E5FFFFFF0A6802F8010B0A60E9
:10069000704710B5436913B1AFF3008001E0FFF775
:1006A00061FE012010BD127800F124010A700022C1
:1006B0004A700122EDE711684FF0FF32E9E70000D0
:1006C000074B70B50D467B44FFF7CBFF0446284629
:1006D00000F05CF810B14FF0FF3070BD204670BDE7
:1006E000BF12000010B5203AC0F00B80B1E81850DE
:1006F000203AA0E81850B1E81850A0E81850BFF40C
:10070000F5AF5FEA027C24BFB1E81850A0E81850AA
:1007100044BF18C918C0BDE810405FEA827C24BFFE
:1007200051F8043B40F8043B08BF7047D20728BF8C
:1007300031F8023B48BF11F8012B28BF20F8023BDB
:1007400048BF00F8012B70474FF000020429C0F0A9
:10075000128010F0030C3FF4FDAECCF1040CBCF1A0
:10076000020F18BF00F8012BA8BF20F8022BA1EB45
:100770000C01FFF7EFBE5FEAC17C24BF00F8012B3C
:1007800000F8012B48BF00F8012B7047007B00F0F8
:1007900080007047754600F02BF8AE4605006946AC
:1007A000534620F00700854618B020B5FFF772FDCC
:1007B000BDE820404FF000064FF000074FF0000862
:1007C0004FF0000B21F00701AC46ACE8C009ACE8E3
:1007D000C009ACE8C009ACE8C0098D46704710B547
:1007E0000446AFF300802046BDE81040FFF7F2BC9E
:1007F000004870478C1C0020FEE7704772B6FEE789
:100800002DE9F84FDFF8C8910024A9F1040B234625
:100810000F2709F1040AABF1040ED1E00125A54030
:1008200006EA0502AA4276D1DFF8A8C14E68A6EB17
:100830000C0866452BD00DDC032E34D005DC36B316
:10084000012E19D0022E2FD11BE0112E16D0122E00
:100850002AD119E0B8F5881F19D006DCB8F5803F19
:1008600015D0B8F5801F1FD111E0B8F5001F0ED0CC
:10087000B8F5041F18D10AE0CB6815E0CB681B1D42
:1008800012E0CB6808330FE0CB680C330CE08B68C8
:100890002BB1012B4FF0080303D0456104E0042382
:1008A00002E0056100E00023FF2A01D8064601E0CE
:1008B00000F104064FEA840501D9A5F12005D6F818
:1008C000008007FA05FC28EA0C0803FA05F548EA57
:1008D0000508C6F800804D68ED0070D53E4DAE6944
:1008E00046F00106AE61AD6924F0030605F001058E
:1008F00000953A4D06EB050CDCF80850A607360FBC
:1009000007FA06F825EA0805DFF8D480404503D148
:100910004FF0000825E052E0DFF8C880404502D1E2
:100920004FF001081DE0DFF8C080404502D14FF0D4
:10093000020816E0DFF8B480404502D14FF003080A
:100940000FE0DFF8AC80404502D14FF0040808E02A
:10095000DFF8A080404502D14FF0050801E04FF0DC
:10096000060808FA06F848EA0508CCF808804D6839
:10097000D9F80060ED024D4601D5164300E09643DC
:100980002E604D68DAF80060AD02554601D5164379
:1009900000E096432E604D68DBF80060AD035D46D5
:1009A00001D5164300E096432E604D68DEF80060E6
:1009B000ED03754601D5164300E096432E60641C96
:1009C0000A681646E2407FF429AFBDE8F88F0000C0
:1009D0000804014000001110001002400000014016
:1009E00000080140000C01400010014000140140CB
:1009F00000180140001C0140C26821EA02030A40BD
:100A000043EA0241016170470AB10161704709047C
:100A1000FBE70000014880687047000008000020E4
:100A20000248816802781144816070470800002004
:100A3000074810B5016841F010010160032000F083
:100A4000A7F80F2000F006F800F050F8002010BDC5
:100A50000020024030B505461F4887B0C16941F00B
:100A60000401C161C06906A900F00400009001A85A
:100A700000F036F90498B0B100F052F9400017497F
:100A8000174AB0FBF1F11748491E0260416040F27D
:100A9000E7320021C0E903218160816100F018FB89
:100AA000040003D015E000F03BF9E8E70D4800F042
:100AB0003DFB04000DD11E2000F03CF8102D07D2A4
:100AC000002229461E2000F043F80748056000E098
:100AD000012407B0204630BD0010024040420F0004
:100AE00000080040700100200C0000200F4808B5ED
:100AF000816941F001018161816901F00101009189
:100B0000C16941F08051C161C069002200F080508C
:100B100000900F21901E00F01BF80548416821F05D
:100B2000E06141F00071416008BD0000001002402A
:100B300000000140002809DB00F01F020121914064
:100B40004009800000F1E020C0F80011704700006B
:100B5000F0B40E4B1B680C46C3F30223C3F1070528
:100B6000042D00D90425191D072901D2002300E016
:100B7000DB1E012606FA05F1491E214099409E40E0
:100B8000761E16403143F0BC00F0B3BE0CED00E021
:100B9000064900F0070208684FF6FF03184040EAD4
:100BA0000220034A10430860704700000CED00E08B
:100BB0000000FA052DE9F0470F46050061D0434ECD
:100BC000306800F00700B84209D2306820F0070012
:100BD00038433060306800F00700B84251D12868CF
:100BE0003B4C810712D5400703D5606840F4E060B4
:100BF00060602878000703D5606840F4605060604A
:100C00006068A96820F0F000084360602878C00799
:100C100028D06868012810D02168022810D08907E0
:100C200000292EDA616821F0030101436160FFF7BA
:100C3000F1FE804641F288390DE021688903EFE733
:100C40008901EDE7FFF7E6FEA0EB0801494502D96F
:100C50000320BDE8F0876068696800F00C00B0EB25
:100C6000810FEFD1306800F00700B8420BD930682F
:100C700020F0070038433060306800F00700B842C9
:100C800001D00120E5E72878400705D56068E968CC
:100C900020F4E060084360602878000706D56068AB
:100CA000296920F4605040EAC100606000F058F803
:100CB0006168084AC1F30311515CC84006490860E5
:100CC00006480068FFF7C6FE0020C2E70020024089
:100CD000001002400A340008140000200C0000201C
:100CE0000F2202600C4A536803F003034360536809
:100CF00003F0F0038360536803F4E063C360526859
:100D00004FF4E06303EAD20202610448006800F095
:100D100007000860704700000010024000200240F9
:100D20000448054900684968044AC1F30221515C3E
:100D3000C840704714000020001002401A34000818
:100D40000448054900684968044AC1F3C221515C5E
:100D5000C840704714000020001002401A340008F8
:100D60000E4A51680E4801F00C03042B11D0082BD9
:100D70000FD10C48C1F38343C903C05C0AD5516845
:100D8000084AC1F34041921E515C054A5043B0FBF2
:100D9000F1F07047044948437047000000100240DA
:100DA00000127A00FA33000800093D002DE9F84FDF
:100DB000040070D02078C04DC00749D06868C0F3E7
:100DC0008100012807D06868C0F38100022809D19A
:100DD0006868C00306D52868800339D56068002894
:100DE000E7D035E06068B0F5803F0BD010B1B0F5CA
:100DF000A02F11D0286820F480302860286820F4C3
:100E0000802002E0286840F480302860606890B15B
:100E1000FFF700FE06460AE0286840F480202860BC
:100E2000F0E700BFFFF7F6FD801B642873D8286841
:100E30008003F7D50CE0FFF7EDFD064605E000BFA7
:100E4000FFF7E8FD801B6428F0D828688003F7D4FA
:100E500020789A4E80074FF001094FF0000839D5ED
:100E6000686810F00C0F07D06868C0F38100022892
:100E700009D16868C00306D42868800714D52069A2
:100E8000012808D110E02069B0B1C6F80090FFF742
:100E9000C1FD074605E00AE1FFF7BCFDC01B0228C3
:100EA000C4D828688007F7D52868616920F0F80061
:100EB00040EAC10028600DE0C6F80080FFF7AAFDF7
:100EC000074604E0FFF7A6FDC01B022823D82868C8
:100ED0008007F7D4207800072CD57948A169D9B1CB
:100EE000C0F80090FFF796FD074604E0FFF792FD7B
:100EF000C01B02280FD8686A8007F7D571484FF4E5
:100F0000FA510068B0FBF1F0009000BF0098411E5C
:100F10000091FAD20EE080E0C0F80080FFF77AFD81
:100F2000074604E0FFF776FDC01B022875D8686A03
:100F30008007F7D42078400760D5E8690027C00013
:100F400008D4E86940F08050E861E869012700F0C2
:100F5000805000905C480168C90513D4016883463D
:100F600041F480710160FFF755FD824606E000BF45
:100F7000FFF750FDA0EB0A0064284ED8DBF8000014
:100F8000C005F5D5E06801280AD008B1052813D0BE
:100F9000286A20F001002862286A20F0040002E09C
:100FA000286A40F001002862E06841F2883B98B16D
:100FB000FFF730FD82460BE0286A40F0040028620B
:100FC000EEE700BFFFF726FDA0EB0A0159455AD80E
:100FD000286A8007F6D50CE0FFF71CFD824605E085
:100FE000FFF718FDA0EB0A0159454CD8286A800785
:100FF000F6D41FB1E86920F08050E861E06988B359
:101000006968C1F38101022944D00228C6F86080D2
:1010100004D0FFF7FFFC044638E034E0FFF7FAFCA9
:10102000074604E0FFF7F6FCC01B02282BD828680F
:101030008001F7D4206AB0F5803F05D16868A168C7
:1010400020F4003008436860D4E908010843696867
:1010500021F4741108436860C6F86090FFF7DAFC69
:10106000044606E025E000BFFFF7D4FC001B022881
:1010700009D828688001F7D51BE000BFFFF7CAFC3C
:10108000001B022802D90320BDE8F88F28688001E0
:10109000F4D40EE00128F7D06868226A00F48031A9
:1010A000914204D1616A00F47010884201D001209D
:1010B000EAE70020E8E7000000100240000042429A
:1010C00080044242140000200070004070477047C6
:1010D00010B5040003D094F83D0010B107E00120E2
:1010E00010BD002084F83C00204600F01EF80220CD
:1010F00084F83D00211D206800F012FB012084F8D7
:10110000460084F83E0084F83F0084F8400084F8EC
:10111000410084F8420084F8430084F8440084F8D5
:10112000450084F83D00002010BD704790F83D1048
:10113000012901D001207047022180F83D1001688B
:10114000CA6842F00102CA6000680E4988420ED0A7
:101150000D4988420BD0B0F1804F08D00B4988422E
:1011600005D00B49884202D00A49884204D18168DF
:1011700001F00701062903D0016841F00101016077
:1011800000207047002C0140003401400004004062
:1011900000080040000C004070472DE9F041044673
:1011A0000068C66805694FF00007A90713D5B107A5
:1011B00011D5F91E01610120207720688069800720
:1011C000204602D0FFF7E8FF04E000F07EF820465A
:1011D00000F07CF82777680716D5700714D52168CA
:1011E0006FF004000861022020772068806910F405
:1011F000407F204602D0FFF7CFFF04E000F065F803
:10120000204600F063F82777280715D5300713D557
:1012100021686FF008000861042020772068C06909
:101220008007204602D0FFF7B7FF04E000F04DF83A
:10123000204600F04BF82777E80616D5F00614D5BF
:1012400021686FF010000861082020772068C069CD
:1012500010F4407F204602D0FFF79EFF04E000F02C
:1012600034F8204600F032F82777E80708D0F00776
:1012700006D021686FF001000861204600F028F8D0
:10128000280608D5300606D521686FF08000086171
:101290002046FFF71BFF680608D5700606D52168B3
:1012A0006FF040000861204600F01CF8A8060AD53F
:1012B000B00608D521686FF0200008612046BDE81F
:1012C000F041FFF704BFBDE8F081704770470000B0
:1012D00000680349884201D1FFF7A2BB70470000B4
:1012E00000080040704770B5040004D094F8410035
:1012F000002510B106E0012070BD84F84050204662
:1013000000F024F8242084F841002068C16821F40A
:101310000051C160204600F08FFA2068016921F475
:10132000904101612068416921F02A0141612068F2
:10133000C16841F40051C1606564202084F8410017
:1013400084F842006563002070BD0000F0B585B0F0
:10135000002400940194029403940368324F022005
:1013600032490322324D4602BB421AD18B6943F403
:1013700080438B618B6903F4804304938B6943F052
:1013800004038B618969039201F004010491010255
:10139000CDE9001069462846FFF732FACDE900642E
:1013A0001CE0244FBB4220D1CB6943F40033CB6116
:1013B000CB6903F4003304938B6943F004038B611E
:1013C0008969039201F0040104910421CDE9001020
:1013D00069462846FFF714FA082022E069462846A5
:1013E0000294FFF70DFA05B0F0BD134DAB42FAD1F0
:1013F000CB6943F48023CB61CB6903F4802304934E
:101400008B6943F008038B6189690C4D01F0080179
:10141000CDE90321CDE9006069462846FFF7F0F9E0
:10142000E814CDE90004D9E700380140001002407B
:10143000000801400044004000480040000C01400A
:10144000FEE700001CB500210120CDE900010B469C
:10145000C02206A1084801F0AFFD084A0021084853
:1014600000F0ECFA074908601CBD00006865617275
:101470007462656174000000BD170008D433000871
:1014800091160008000000202DE9F04F85B00024DF
:101490004D480094019402940394816941F0100135
:1014A0008161816901F010010491816941F00401B9
:1014B0008161816901F004010491816941F0400179
:1014C0008161816901F040010491816941F0080165
:1014D0008161816901F008010491816941F0200175
:1014E0008161816901F020010491816941F4807179
:1014F00081618069DFF8D4A000F48070049000223C
:1015000008215046FFF780FADFF8C4B0002240F609
:1015100011015846FFF778FA4FF40078002241464F
:101520002C48FFF771FA012211035846FFF76CFAB5
:10153000002298212848FFF767FA4FF4005900224B
:1015400049462648FFF760FA002208212448FFF7A1
:101550005BFA08270226012500970396CDE901547E
:1015600069465046FFF74CF941F61100CDE90005F8
:10157000CDE9024669465846FFF742F9CDF80080AA
:101580000396CDE9015469461248FFF739F99820CE
:10159000CDE90005CDE9024669460F48FFF730F96D
:1015A000CDF800900396CDE9015469460B48FFF74A
:1015B00027F900970396CDE9015469460848FFF7DB
:1015C0001FF905B0BDE8F08F001002400010014087
:1015D00000080140001801400014014000200140B3
:1015E000000C01400C4810B50A4901604FF4E1318C
:1015F0004160002181600C22C160C0E90412816158
:10160000C161FFF770FE002803D0BDE81040FFF76E
:10161000F5B810BD00380140980000200C4810B506
:101620000A4901604FF4E1314160002181600C22E0
:10163000C160C0E904128161C161FFF754FE002856
:1016400003D0BDE81040FFF7D9B810BD00440040FA
:10165000E00000200C4810B50A4901604FF4E13168
:101660004160002181600C22C160C0E904128161E7
:10167000C161FFF738FE002803D0BDE81040FFF736
:10168000BDB810BD0048004028010020FEE7FEE77D
:10169000012000F098F9FBE710B54FF0E020006959
:1016A00001F0E2FC012803D0BDE8104001F010BABF
:1016B00010BD30B58FB028216846FEF749FF1421D0
:1016C0000AA8FEF745FF01210804CDE90010002417
:1016D000029402250491CDE907504FF4E0100990DF
:1016E0006846FFF763FB08B172B6FEE70F20CDE94D
:1016F0000A054FF48060CDE90C4002210AA80E943F
:10170000FFF758FA002801D072B6FEE70FB030BDDF
:10171000704700000148FFF740BD00007001002045
:10172000F0B50268204C214D214E224F224B4FF044
:10173000804CA04209D0984207D0604505D0A8420D
:1017400003D0B04201D0B84204D122F0700E4A68F2
:1017500042EA0E02A04209D0984207D0604505D067
:10176000A84203D0B04201D0B84203D122F4407560
:10177000CA682A434D6922F080022A4302608A68BF
:10178000C2620A688262A04201D0984201D109690E
:101790000163012141610169C90703D0016921F099
:1017A00001010161F0BD0000002C01400004004077
:1017B00000080040000C00400034014000240E4EA0
:1017C0004FF4FA7741F2883510213046FFF714F9CB
:1017D000384600F093FF01F055FC001BA842F3D3FC
:1017E00001F050FC0446054800F0F0FF034904A056
:1017F000FEF764FDE8E70000001401408C1A0020A9
:10180000E4BBBBE58AA1E5908D5C74E78AB6E6800F
:10181000815C74E4BC98E58588E7BAA75C74E589C7
:10182000A9E4BD99E6A0885C74E5BA8FE58FB70D91
:101830000A25730D0A00000070B5044600680169AE
:10184000E26821F44051114301612169A068084315
:10185000616908432168CA6841F20C639A430243F4
:10186000CA6020684169A26921F440711143416155
:101870001E492068884202D1FFF762FA01E0FFF7B3
:101880004FFA00EBC00101EB001260686421800098
:10189000B2FBF0F3B3FBF1F36FF018067343B2FB46
:1018A000F0F5B2FBF0F605EB8305322303EB0515EB
:1018B000B5FBF1F5B6FBF1F605F0F00505EB061505
:1018C000B2FBF0F6B2FBF0F0B0FBF1F06FF01802F3
:1018D000504306EB800003EB0010B0FBF1F02168F1
:1018E00000F00F002844886070BD000000380140FF
:1018F000FEE70907090E002804DB00F1E02080F86C
:101900000014704700F00F0000F1E02080F8141D73
:10191000704770472DE9F041040006D0184E30683A
:1019200084420AD10020BDE8F081502080F3118864
:10193000BFF34F8FBFF36F8FFEE700F007FE6569BF
:10194000776BB66B00F022FEBD4201D0B54201D1EB
:101950000220E8E70B48854208D1A06A0028F7D1A9
:1019600094F858000128F3D00320DCE70548143828
:10197000854202D00DB10120D5E70420D3E7000055
:1019800018000020A806002004490A685206FCD569
:10199000024AC1B2121D11607047000000380140B8
:1019A000FFF746F8FFF785FEFFF76EFDFFF71AFE1B
:1019B000FFF734FEFFF74EFE00F012F8FFF742FD8E
:1019C00000F020F8FEE710B5EFF3058111B16FF0DC
:1019D000050403E0002408B100F090FE204610BD8D
:1019E000EFF3058010B16FF00500704704480168FF
:1019F00011B14FF0FF3070470121016000207047A6
:101A00006800002010B5EFF3058010B16FF00500FD
:101A100010BD08480168012902D04FF0FF3010BD09
:101A2000054A002182F8141D0221016000F06AFFBE
:101A3000002010BD680000200BE000E02DE9FF4110
:101A40004FEA01034FF00005EFF30581039549BB11
:101A500040B38027182100244AB3166806B13446E3
:101A600096691EB13146761E382E02D21679F607D7
:101A700003D0002004B0BDE8F081566906B1B70874
:101A8000D2F808C0BCF1000F0DD0D5685C2D18D37A
:101A900012693AB136B18DE806103A46214601F096
:101AA000B8FA03900DE0D6685EB912694AB903AA84
:101AB000CDE90012BAB2214601F07EFA012800D029
:101AC00003950398D6E700002DE9F041134C0F462B
:101AD0000546E6682068001D00F07CFC681C07D104
:101AE00037B12168BDE8F0410D48091D00F021BD66
:101AF00020683544B5424560216805D2A06BBDE839
:101B0000F041091D00F0FDBC606B091D00F0F9FCFF
:101B1000A06A854200D2A562BDE8F08118000020CD
:101B2000A80600202DE9F041054600F00FFD2D4CE0
:101B3000A068401CA06020682B4F10B1606930B3D2
:101B40002BE02560A068012827D1002606EB86003F
:101B500007EB800000F0C7FC761C382EF6D3234834
:101B600000F0C1FC2148143000F0BDFC1F482830B3
:101B700000F0B9FC1D483C3000F0B5FC1B4850306B
:101B800000F0B1FC194860631430A06305E02068E0
:101B9000E96AC06A884200D82560606A401C6062B9
:101BA0006864E86A2169884200D9206100EB8000FE
:101BB00007EB8000291D00F0BCFC00F0E7FC606929
:101BC00000280CD02068E96AC06A884207D2084918
:101BD0004FF080500860BFF34F8FBFF36F8FBDE8A9
:101BE000F081000018000020F801002058060020B5
:101BF00004ED00E038B500F0A9FC104C2068C8B92D
:101C00000F4800F070FC0E48143000F06CFC0C48DB
:101C1000E060143020610A4B0020F03B009003F19B
:101C2000500210210A2000F069FF206010B105A1C8
:101C300000F02EFDBDE8384000F0A8BC54000020A4
:101C4000AC070020546D72510000000030B4026CEB
:101C50000B46002A0BD0C1681144C1608468A142C0
:101C600001D30168C16030BC1846FEF724BC30BC0B
:101C700070472DE9F041856B174604460026026C3B
:101C800082B1C7B1E068FEF716FCE168206C091A62
:101C9000E1602268914202D2A168081AE060022F36
:101CA00016D017E02068A8B9A06801F055FA0646DA
:101CB0000020A0600EE06068FEF7FDFB216C60680C
:101CC00008446060A168884204D32068606001E035
:101CD00005B16D1E6D1CA5633046BDE8F08110B5E1
:101CE000044690F8590058B101280CD002280FD0B2
:101CF000502080F31188BFF34F8FBFF36F8FFEE743
:101D0000206B00F057FC2046BDE8104000F052BCAC
:101D100010BD000010484FF44061420706D0C01DBE
:101D20000D4920F00700411AC1F540610B4A00231C
:101D30000144C2E900030839183A21F00701116093
:101D40004B600B600B1AC0E9001393604FF000402A
:101D500053605061704700008C0E0020840000200A
:101D6000144E154CA6F29C474FF08058DFF84C906B
:101D700012E000BF00F0EAFBF068C568281D00F023
:101D800029FBA068401EA0606068401E606000F0F3
:101D9000FDFB2846FFF7A3FF60680028EAD13868FA
:101DA0000128F9D9C9F80080BFF34F8FBFF36F8FB7
:101DB000F2E70000940600201800002004ED00E087
:101DC00070B51D46049C51B1C4F80020C4E90F0150
:101DD0000121204600F0C6FE84F84C5070BD2460FE
:101DE000F4E700002DE9F05F8846DDE90B94154625
:101DF000834691009A460A9EA522206BFEF7A0FB1F
:101E00006FF00301206B01EB8501084420F0070708
:101E1000780707D0502080F31188BFF34F8FBFF3AE
:101E20006F8FFEE70025B8F1000F0FD05FF00000C4
:101E3000221818F8001082F8341018F8001011B1A8
:101E4000401C1028F4D384F8435001E084F8345047
:101E5000382E00D33726E662C4E91365201D00F052
:101E60004DFB04F1180000F049FB2461C6F1380075
:101E70006462A061656584F85850524659463846F8
:101E800000F096FA2060B9F1000F01D0C9F80040C7
:101E9000BDE8F09F30B5114900E011460A68824262
:101EA000FBD34B685C18844203D1406818444860F7
:101EB000084643681C18944209D1084C183C246811
:101EC000A24209D052681A4442600A68126802604D
:101ED000814200D0086030BD0460F9E78400002032
:101EE00070B5002441600B4D0061914206D8D11AB3
:101EF0008269914206D2011D286907E09A4203D205
:101F0000994201D3012403E0011DE86800F0F9FAC9
:101F1000204670BD5400002010B5044600F016FBAA
:101F2000A06B28B15FF0000400F030FB204610BD2C
:101F30000124F9E72DE9F0478146086892460C46EE
:101F4000002600B3606804F1080540686060A8429C
:101F500001D1416861606068D0F80C8060684068B9
:101F60006060A84201D141686160606806EBC6010B
:101F700009EB8101C76853460122384600F0E4FBB3
:101F8000761C4745EAD13046BDE8F08730B589B0C8
:101F90003C4D6EE00498002806DADDE90601059A5A
:101FA00090470498002864DB069C606910B1201DEE
:101FB00000F010FA03A800F0D7F8024604980A28A7
:101FC00057D2DFE800F00505052D334A05052D330E
:101FD00094F8280040F0010084F828000599A069D1
:101FE000059B01442046FFF77BFF68B3216A20462A
:101FF000884794F8280040073BD5002000900598BA
:10200000A169002342181946204601F0AFF9D8B95A
:10201000502080F31188BFF34F8FBFF36F8FFEE71F
:1020200014F8280F20F00100207022E094F8280016
:1020300040F0010084F828000598A06128B18118BB
:1020400013462046FFF74CFF13E0502080F3118821
:10205000BFF34F8FBFF36F8FFEE794F8280081071F
:1020600003D4204600F0A6FA03E020F0010084F833
:102070002800002204A9286800F0C8FE002889D1A1
:1020800009B030BD540000202DE9FC410F46054643
:1020900000F07CFC01A800F067F80446019818B134
:1020A00001F0D2F8BDE8FC81254EAFB1306900687F
:1020B000D0B30027291B3A46306800F0FDFA01F042
:1020C000C3F80028EED11F494FF080500860BFF3DD
:1020D0004F8FBFF36F8FE5E7A542EBD801F0B4F85F
:1020E000F0682746C068C468201D00F073F994F8B2
:1020F0002800410719D5A0692B4641193A462046C8
:10210000FFF7EEFEA8B100200346014600902A46E4
:10211000204601F02BF960B9502080F31188BFF3FD
:102120004F8FBFF36F8FFEE707E020F0010084F8C8
:102130002800216A20468847B4E70127BAE7000053
:102140005400002004ED00E00648416B096829B105
:10215000416BC968C9684968816270474FF0FF31B7
:10216000FAE700001800002070B5054600F08AFF6D
:10217000064E0446B068844203D200F009F80120FC
:1021800000E0002028602046B46070BD54000020AC
:10219000F8B5194D20E0C068C4680668201D00F03D
:1021A00019F9216A2046884794F82800400713D57A
:1021B000A0693044B04206D924616060211DE868FE
:1021C00000F09FF908E000200346014600903246E7
:1021D000204601F0CBF838B1E86801680029DAD16F
:1021E0002969C5E90310F8BD502080F31188BFF3B9
:1021F0004F8FBFF36F8FFEE754000020002101E0F6
:10220000401C491C0278A52AFAD0C1F38F00704700
:1022100008484068401C4FF0500080F3118804D0FB
:10222000BFF34F8FBFF36F8FFEE7BFF34F8FBFF347
:102230006F8FFEE78C000020074CE068016841B119
:10224000C0680021D0F80000FFF71EFFFFF79EFED8
:10225000F3E701210020F7E7540000202DE9F041C9
:10226000044600F073F994F9455004F1240609E09E
:10227000606A48B1304600F0AFFF08B100F008FBDB
:102280006D1E6DB2002DF3DC4FF0FF3684F8456013
:1022900000F07CF900F05AF994F9445004F1100769
:1022A00009E0206948B1384600F096FF08B100F017
:1022B000EFFA6D1E6DB2002DF3DC84F84460BDE8CA
:1022C000F04100F063B900002DE9F0410546002718
:1022D00000F05CFB354E306808B9FFF71BFD7069F4
:1022E000054216D1ADB1083568070ED005F00700DC
:1022F000C0F108000544680707D0502080F311881A
:10230000BFF34F8FBFF36F8FFEE715B17068854243
:1023100002D900F099FF39E02448183001460C68D2
:1023200001E020460C466168A94202D221680029DA
:10233000F7D131688C42ECD0076821680160606891
:102340000837411B10290ED96019420707D05020C9
:1023500080F31188BFF34F8FBFF36F8FFEE74160AB
:102360006560FFF797FD61687068401A7060B26839
:10237000904200D2B060706901430020C4E90001BE
:10238000F068401CF06000F05FFF0FB900F0A2F8A9
:10239000780707D0502080F31188BFF34F8FBFF329
:1023A0006F8FFEE73846BDE8F08100006C0000202A
:1023B00010B5031F4FF080741C601B1F21F001013A
:1023C0001960191F024B0B60143940380A6010BDA8
:1023D00011220008D0E9013201699A60D0E9012395
:1023E0005A604A68824201D182684A6000220261D2
:1023F0000868401E08600868704700002DE9F04733
:1024000017460A4605460024382600F0BFFADFF8D2
:102410008C80D8F8080082423AD3DFF88490761E88
:1024200006EB860104EBC40009EB810105EB80009B
:102430000122FFF77FFD0444002EF0D104EBC4001D
:1024400005EB800002224646D8F83410FFF772FDF3
:10245000044404EBC40005EB80000222B16BFFF7DB
:1024600069FD044404EBC40005EB800004220D491F
:10247000FFF760FD04440B4904EBC40005EB80004A
:1024800003221431FFF756FD04440FB100203860D9
:1024900000F0DAFE2046BDE8F087000018000020BA
:1024A000F801002094060020034B036003F15C0058
:1024B0000860802010607047D4070020044B036040
:1024C00003F15C0008604FF48070106070470000FA
:1024D000300A00207047502080F31188BFF34F8FDF
:1024E000BFF36F8FFEE700F108014FF0FF32C0E944
:1024F0000112C1600161002101607047002101618A
:10250000704730B50B685A1C02D000F1080202E097
:10251000026904E02246546825689D42FAD953684E
:102520004B6099608A60516008610168491C0160D4
:1025300030BD42684A6093688B60936859609160CF
:1025400008610168491C016070470000502080F359
:102550001188BFF34F8FBFF36F8F0A494868401C43
:10256000486001280CD10848006810F0FF0F07D020
:10257000502080F31188BFF34F8FBFF36F8FFEE7BA
:10258000704700008C00002004ED00E00849486816
:1025900028B1401E486001D180F311887047502057
:1025A00080F31188BFF34F8FBFF36F8FFEE70000FA
:1025B0008C00002070B500282AD0164DA0F1080428
:1025C00060686969084207D1502080F31188BFF321
:1025D0004F8FBFF36F8FFEE722683AB1502080F330
:1025E0001188BFF34F8FBFF36F8FFEE788436060A2
:1025F00000F0CCF960686968084468602046FFF71D
:1026000049FC2869401C2861BDE8704000F01CBEF0
:1026100070BD00006C0000204FF0E020002101613F
:10262000816105494FF47A720968B1FBF2F1491EE4
:1026300041610721016170471400002010B5FDF7CA
:1026400017FE114910280ED300F1E02090F8F00396
:102650000A78904207D2502080F31188BFF34F8F41
:10266000BFF36F8FFEE709480068896800F4E060F7
:10267000884207D9502080F31188BFF34F8FBFF3F2
:102680006F8FFEE710BD00008C0000200CED00E015
:1026900010B5084B002200BF53F832401CB1521C49
:1026A000082AF9D310BD43F8321003EBC201486089
:1026B00010BD0000B801002070B515460E46044656
:1026C000FFF744FF94F944100020491C01D184F81D
:1026D000440094F94510491C01D184F84500FFF7E6
:1026E00055FFA06B28B92A46314604F1240000F0BA
:1026F000EDF82046BDE87040FFF7B0BD10B5020010
:1027000014D00F48006B38B1502080F31188BFF30C
:102710004F8FBFF36F8FFEE700F038F900211046AE
:10272000FFF7D2F900F090FD002807D105494FF0DE
:1027300080500860BFF34F8FBFF36F8F10BD000054
:102740001800002004ED00E02DE9F0410C461A4984
:102750001646B0B14FEA000505F13400C4E9005057
:10276000E86A2061286BE061686CA0600027E86C73
:10277000C4E90507052B12D00868854203D12773E9
:1027800011E00D68E8E72373032B0CD100F0FEF88D
:10279000A86A08B10220207300F056FD03E0284625
:1027A000FFF7B8F820732EB1286BFFF727FD2084C0
:1027B000BDE8F0812784FBE71800002002490A6A7F
:1027C0000260C96841607047180000202DE9FC478D
:1027D0004FF00009044680F800902848856880681A
:1027E00000EBC0008000FFF76FFD070044D000221F
:1027F0002946FFF703FE8046002536E005EBC500BD
:1028000007EB8006307B052817D2DFE800F00305D0
:1028100010121400582000E05220824620467168B1
:10282000FDF706FE2046FDF727FE202109E04220A5
:10283000F3E75320F1E74420EFE70020EDE72154D0
:10284000401C0F28FBD304F800900444B168308C7E
:10285000CDE9000152460AA120463369FDF73AFD51
:102860002046FDF709FE04446D1C4545C6D3384695
:10287000BDE8FC47FFF79EBEBDE8FC8718000020BE
:102880000925630925750925750925750D0A0000B7
:1028900001490120C86170471800002010B50C469E
:1028A00050B1094909681831FFF72BFE2046BDE8F1
:1028B00010400121FFF708B9502080F31188BFF3C1
:1028C0004F8FBFF36F8FFEE71800002070B51446DE
:1028D0000D4668B10A4909681831FFF72AFE0CB1A4
:1028E0004FF0FF3521462846BDE87040FFF7ECB8B1
:1028F000502080F31188BFF34F8FBFF36F8FFEE737
:102900001800002030B587B00024039405AA04A95C
:1029100003A80494FFF7C8FDDDE903010094CDE9A5
:102920000110002315A11748059A00F072FB164DFF
:102930000028E8621FD000F0E9FC012809D0401C03
:1029400019D1502080F31188BFF34F8FBFF36F8FE1
:10295000FEE7502080F31188BFF34F8FBFF36F8FD6
:102960004FF0FF30A86201206861EC6007B0BDE85D
:10297000304000F059B807B030BD000049444C4524
:1029800000000000611D0008180000200248016BD3
:10299000491C0163704700001800002010B5204C4E
:1029A000206B10B10120E06110BD0020E0612068C3
:1029B0004FF0A531006B02688A4208D142688A4212
:1029C00005D182688A4202D1C068884204D0216859
:1029D00020683431FFF77FFD2069124901E0B8B16A
:1029E000401E00EB800251F82220002AF7D000EBB5
:1029F000800201EB820101F108034A6852684A60D3
:102A00009A4201D152684A60D1682160206110BDAC
:102A1000502080F31188BFF34F8FBFF36F8FFEE715
:102A200018000020F80100201CB526490878019004
:102A3000FF20087008788DF800009DF800009DF8D0
:102A4000002000F0F000904207D0502080F3118861
:102A5000BFF34F8FBFF36F8FFEE79DF800001A4C56
:102A600000F0500020700720A06005E09DF80020D5
:102A700052008DF80020401E9DF800201206F5D46B
:102A8000A060032807D0502080F31188BFF34F8F38
:102A9000BFF36F8FFEE74FF44070A060019808709D
:102AA0000A48016841F470010160016841F0704119
:102AB0000160FFF7B1FD00206060FDF7A3FB00207F
:102AC0001CBD000000E400E08C00002020ED00E0D0
:102AD00010B5502080F31188BFF34F8FBFF36F8F75
:102AE00000F0D6FA18B104494FF080500860002079
:102AF00080F3118810BD000004ED00E038B5049D9E
:102B000018B153B1CAB181B120E0502080F31188CF
:102B1000BFF34F8FBFF36F8FFEE7502080F3118814
:102B2000BFF34F8FBFF36F8FFEE7502080F3118804
:102B3000BFF34F8FBFF36F8FFEE739B1502080F3A3
:102B40001188BFF34F8FBFF36F8FFEE750241C46F1
:102B5000012384F846302B460094FFF731F92046D4
:102B600038BD000070B50D46040025D0FFF7EEFC1F
:102B7000D4E90F20216802FB0011A1600021A163AC
:102B8000216861600A46D4E90F01401E00FB012163
:102B9000E16021464FF0FF3001F8440F487004F126
:102BA00010008DB1FFF79FFC04F12400FFF79BFCA0
:102BB000FFF7ECFC012070BD502080F31188BFF3BB
:102BC0004F8FBFF36F8FFEE721690029F0D000F02F
:102BD00003FB0028ECD004494FF080500860BFF39D
:102BE0004F8FBFF36F8FE3E704ED00E02DE9FF4760
:102BF00082B01D468A464FF00008040003D0BAF1A7
:102C0000000F08D011E0502080F31188BFF34F8FE0
:102C1000BFF36F8FFEE7206C38B1502080F311882E
:102C2000BFF34F8FBFF36F8FFEE7022D0AD1E06B2A
:102C3000012807D0502080F31188BFF34F8FBFF3D6
:102C40006F8FFEE700F010FA3F4F4FF000094FF092
:102C5000805648B9049838B1502080F31188BFF3EA
:102C60004F8FBFF36F8FFEE7FFF770FCA06BE16B38
:102C7000884207D3022D05D00498D0B1B8F1000FD7
:102C80001AD01EE02A4651462046FEF7F2FF616A3E
:102C900019B104F1240000F09FFA20B13E60BFF3A7
:102CA0004F8FBFF36F8FFFF771FC012006B0BDE8B7
:102CB000F087FFF76BFC22E06846FFF77FFD4FF0DF
:102CC0000108FFF763FCFFF761FEFFF73FFC94F993
:102CD0004400401C01D184F8449094F94500401C04
:102CE00001D184F84590FFF751FC04A9684600F033
:102CF00029F930B12046FFF7B1FA00F0A5FA00201B
:102D0000D4E7FFF723FCA06BE16B884213D1FFF7F8
:102D10003DFC04F110000499FFF7C0FD2046FFF7C9
:102D20009DFA00F091FA00289ED13E60BFF34F8FCC
:102D3000BFF36F8F98E7FFF729FC2046FFF78EFA65
:102D400000F082FA90E7000004ED00E02DE9F04782
:102D50001F4690468946040003D0B9F1000F08D001
:102D600011E0502080F31188BFF34F8FBFF36F8FB6
:102D7000FEE7206C38B1502080F31188BFF34F8FED
:102D8000BFF36F8FFEE7022F0AD1E06B012807D057
:102D9000502080F31188BFF34F8FBFF36F8FFEE792
:102DA000FFF74CFC5020EFF3118680F31188BFF33E
:102DB0004F8FBFF36F8FA06BE16B884206D3022F5A
:102DC00004D0002086F31188BDE8F08794F94550BF
:102DD000A06B3A4649462046FEF74BFF681C04D0DC
:102DE0006D1C84F845500120ECE7606A0028FAD099
:102DF00004F1240000F0F0F90028F4D0B8F1000F3D
:102E0000F1D00121C8F80010EDE700002DE9F747E7
:102E1000002683B08A46040003D0BAF1000F08D020
:102E200011E0502080F31188BFF34F8FBFF36F8FF5
:102E3000FEE7206C38B1502080F31188BFF34F8F2C
:102E4000BFF36F8FFEE700F00FF9DFF8F4804FF06B
:102E500000094FF0805748B9059838B1502080F3E9
:102E60001188BFF34F8FBFF36F8FFEE7FFF76EFB45
:102E7000A56BC5B151462046FEF7E8FE6D1EA56361
:102E8000206950B104F1100000F0A6F928B1C8F88B
:102E90000070BFF34F8FBFF36F8FFFF777FB0120F9
:102EA00006B0BDE8F087059808B11EB106E0FFF74F
:102EB0006DFB27E06846FFF781FC0126FFF766FB04
:102EC000FFF764FDFFF742FB94F94400401C01D179
:102ED00084F8449094F94500401C01D184F8459051
:102EE000FFF754FB05A9684600F02CF8002820469F
:102EF0000AD0FFF7B3F900F0A7F92046FFF70CF866
:102F00000028B3D00020CBE7FFF706F890B104F11A
:102F100024000599FFF7C2FC2046FFF79FF900F057
:102F200093F90028A2D1C8F80070BFF34F8FBFF308
:102F30006F8F9BE72046FFF791F900F085F995E741
:102F400004ED00E02DE9F0410C46050011D0C4B1BC
:102F5000FFF7FCFA174BDA686E682068911B471C74
:102F600017D02F681B6A9F4219D0964217D80124A8
:102F700010E0502080F31188BFF34F8FBFF36F8FA5
:102F8000FEE7502080F31188BFF34F8FBFF36F8FA0
:102F9000FEE70024FFF7FAFA2046BDE8F0818842F8
:102FA00005D9401A20602846FFF708FCF1E7002009
:102FB0002060DCE7180000202DE9FF5F8346DDE993
:102FC0000E87994616468A469000FFF77DF9050060
:102FD0001CD05C20FFF778F9040014D00020256392
:102FE00084F85900CDE90240CDE900874B463246CE
:102FF00051465846FEF7F6FE2046FEF793FD0120A7
:1030000004B0BDE8F09F2846FFF7D4FA4FF0FF3038
:10301000F6E7F0B585B0DDE90B640A9DA6B1DCB139
:103020005C2700972663022684F85960002604AFC7
:10303000CDE90246CDE90057FEF7D4FE2046FEF763
:1030400071FD049805B0F0BD502080F31188BFF3E6
:103050004F8FBFF36F8FFEE7502080F31188BFF3CF
:103060004F8FBFF36F8FFEE70548416919B1006BC1
:1030700018B10020704701207047022070470000FF
:10308000180000200148C0687047000018000020A8
:103090002DE9F0412E4C0027206B28B1A069401C7F
:1030A000A0613846BDE8F081E668761CE66013D181
:1030B000606B006838B1502080F31188BFF34F8FE8
:1030C000BFF36F8FFEE7606BA16B6163A063206A43
:1030D000401C2062FFF738F8A06ADFF8788086424B
:1030E00009D3606B0068A0B1606BC068C568686890
:1030F000864211D2A0622068C06A00EB800158F8B5
:103100002100012800D90127E0690028C9D0012742
:10311000C7E74FF0FF30EDE7281DFFF75BF9A86A1E
:1031200018B105F11800FFF755F9E86A21698842DE
:1031300000D9206100EB800108EB8100291DFFF719
:10314000F8F9E86A2168C96A8842CAD30127C8E742
:1031500018000020F801002070B504004FF00001B5
:1031600033D01B4D2868844207D0502080F311884B
:10317000BFF34F8FBFF36F8FFEE7206D38B1401E56
:103180002065E36CE26A9A421FD040B11DE05020F6
:1031900080F31188BFF34F8FBFF36F8FFEE7201DC1
:1031A000FFF718F9E06CE062C0F13800A061E06A56
:1031B0002969884200D92861064900EB800001EBAB
:1031C0008000211DFFF7B5F90121084670BD000000
:1031D00018000020F801002070B5C068C46854B120
:1031E00004F118000646FFF7F5F8144D286B50B1AE
:1031F0003146134815E0502080F31188BFF34F8FFC
:10320000BFF36F8FFEE7201DFFF7E4F8E06A29693E
:10321000884200D928610B4900EB800001EB800057
:10322000211DFFF786F9E06A2968C96A884202D938
:103230000120E86170BD002070BD00001800002072
:1032400080060020F80100202DE9F0472C4D0024D5
:103250002746286B38B1FFF779F9286B401E2863A1
:10326000286B40B146E0502080F31188BFF34F8FA8
:10327000BFF36F8FFEE7A968224E0120D1B3A6F5F8
:10328000916980463068E0B1F068C46804F11800C4
:10329000FFF7A0F8201DFFF79DF8E06A2969884232
:1032A00000D9286100EB800109EB8100211DFFF7A7
:1032B00040F9E06A2968C96A8842E3D3C5F81C80EE
:1032C000E0E70CB1FEF740FFAC694CB14FEA0806ED
:1032D000FFF7DEFE00B1EE61641EF9D10020A861A7
:1032E000E86938B10849012738070860BFF34F8FF4
:1032F000BFF36F8FFFF74AF93846BDE8F08700004B
:10330000180000208006002004ED00E010B586B013
:10331000FEF770FC114C2068B8B1002003900490B7
:1033200005AA04A903A8FFF7C9F8DDE903210220D3
:103330008DE8070000230AA10B48059AFFF769FEF4
:10334000606010B106B0012010BD502080F31188DC
:10335000BFF34F8FBFF36F8FFEE7000054000020D4
:10336000546D722053766300392200082DE9FF4125
:103370001E46134602000A9D4FF0000016D0144C62
:103380002768002F0FD0CDE900130292062917DA23
:10339000FFF76AFE02284FF000030FD000226946B3
:1033A0002068FFF723FC04B0BDE8F081502080F3D3
:1033B0001188BFF34F8FBFF36F8FFEE72A46EEE70A
:1033C0000023324669463846FFF7C0FCEBE70000B1
:1033D0005400002024340008000000000000000019
:1033E00000000000000000000002000018000000C3
:1033F00000000000000000000102020304050607AF
:1034000008090A0B0C0D0E0F101000000000000040
:103410000000010203040607080900000000010281
:103420000304000064656661756C745461736B001D
:103430005034000800000020980000006C010008D3
:10344000E834000898000020582200008801000895
:10345000000000000000000001000000100000005B
:103460000000000000127A000000000000000000D0
:10347000000000000000000000000000000000004C
:10348000000000000000000000000000000000003C
:10349000000000000000000000000000000000002C
:1034A000000000000000000000000000000000001C
:1034B000000000000000000000000000000000000C
:1034C00000000000000000000000000000000000FC
:1034D00000000000000000000000000000000000EC
:0834E000AAAAAAAA000000003C
:0400000508000131BD
:00000001FF
