:020000040800F2
:10000000203F002081020008871F0008E51C00082F
:10001000851F000845090008F923000800000000BA
:10002000000000000000000000000000E9010008DE
:1000300047090008000000002D020008911F000879
:100040009B0200089B0200089B0200089B0200081C
:100050009B0200089B0200089B0200089B0200080C
:100060009B0200089B0200089B0200089B020008FC
:100070009B0200089B0200089B0200089B020008EC
:100080009B0200089B0200089B0200089B020008DC
:100090009B0200089B0200089B0200089B020008CC
:1000A0009B0200089B0200089B0200089B020008BC
:1000B0009B0200089B020008292000089B02000800
:1000C0009B0200089B0200089B0200089B0200089C
:1000D0009B0200089B0200089B0200089B0200088C
:1000E0009B0200089B0200089B0200089B0200087C
:1000F0009B0200089B0200089B0200089B0200086C
:100100009B0200089B0200089B0200089B0200085B
:100110009B0200089B0200089B0200089B0200084B
:100120009B0200089B0200089B0200089B0200083B
:1001300000F002F800F048F80AA090E8000C8244B1
:100140008344AAF10107DA4501D100F03DF8AFF28E
:10015000090EBAE80F0013F0010F18BFFB1A43F0A5
:1001600001031847D0470000F0470000103A24BFB1
:1001700078C878C1FAD8520724BF30C830C144BF0C
:1001800004680C607047000000230024002500264E
:10019000103A28BF78C1FBD8520728BF30C148BFEA
:1001A0000B607047642900F0D780752900F0D48077
:1001B000632900F0B082732900F0B58200207047F7
:1001C0001FB51FBD10B510BD00F024FB1146FFF791
:1001D000F7FF02F03DFA00F042FB03B4FFF7F2FF35
:1001E00003BC02F026F90000224B19680868B0E849
:1001F000F00F80F30988BFF36F8F4FF0000080F39A
:1002000011884EF00D0E704700000000064800688F
:10021000006880F3088862B661B6BFF34F8FBFF302
:100220006F8F00DF00BF00BF08ED00E0EFF3098033
:10023000BFF36F8F0F4B1A6820E9F00F106008B5FD
:100240004FF0500080F31188BFF34F8FBFF36F8FD3
:1002500003F092FA4FF0000080F31188BDE80840E7
:1002600019680868B0E8F00F80F30988BFF36F8F52
:10027000704700BF18000020EFF3058070470000B2
:100280000948804709480047FEE7FEE7FEE7FEE72A
:10029000FEE7FEE7FEE7FEE7FEE7FEE70448054966
:1002A000054A064B70470000252000083101000870
:1002B00020390020203F0020203B0020203B002050
:1002C000704700000FB4044910B503AA029800F06B
:1002D0002FFA10BC5DF814FB040000200FB41CB50D
:1002E000074B06AA7B4469460090059800F0F1F997
:1002F0000020694600F000FA1CBC5DF814FB000009
:100300001104000070B50C460546012A05D0287876
:10031000800600D5EA69002302E0012305E05B1CAA
:10032000934202D2E05C0028F9D1A869E618C01A0D
:10033000A861286A184428622846AFF3008004E0C8
:10034000D5E9012114F8010B9047B442F8D32846AF
:10035000AFF3008070BD00002DE9F0410646002497
:1003600010687529314616A510D0AFF3008000281B
:1003700002DA404213A507E031688A0701D512A5C9
:1003800002E0490704D511A5012401E0AFF3008084
:1003900000210A2206F1240709E0B0FBF2FCB0FBC1
:1003A000F2F302FB1C00303078541846491C002838
:1003B000F3D123462A463046BDE8F04100F02AB981
:1003C000000000002D0000002B00000020000000B5
:1003D0002DE9F0410F460546002028622846E968CD
:1003E000884770B3252805D0D5E901219047286AB0
:1003F000401CF2E7E9682846002688476C28044636
:100400000AD0682C08D04C2C35D06A2C31D0742CF2
:1004100031D07A2C2FD016E0E96806462846884766
:10042000B042044608D16C2E23D04FF48066284693
:10043000E9688847044606E06C2E03D04FF48076C6
:1004400001E01EE04026E4B1A4F14100192802D8E1
:10045000203446F400663A46214628462E60FFF7CF
:10046000A1FE60B1012808D0FF1D27F0070708375B
:10047000B4E78026DBE70026D9E73F1DAEE720463C
:10048000B2E7286ABDE8F08140EA0103024630B5D0
:100490009B0710D14FF0013400E008C208C91D1BB2
:1004A0009D4315EAC41FF8D013F0FF0102F8011BA9
:1004B0000DD01B0AF8E711F8013B002B02F8013BB5
:1004C00005D011F8013B002B02F8013BF3D130BD00
:1004D00010B5431C02E010F8011B71B18107FAD17D
:1004E0004FF0013202C88C1A8C4314EAC211F9D0C1
:1004F000C01A0A0603D0C01E10BDC01A10BD0A04DF
:1005000001D0801E10BD0902FCD0401E10BD032A80
:1005100040F2308010F0030C00F0158011F8013B20
:10052000BCF1020F624498BF11F801CB00F8013B07
:1005300038BF11F8013BA2F1040298BF00F801CBCB
:1005400038BF00F8013B11F0030300F00381083AC3
:10055000C0F0088051F8043B083A51F804CBA0E8F9
:100560000810F5E7121D5CBF51F8043B40F8043B4E
:10057000AFF30080D20724BF11F8013B11F801CB83
:1005800048BF11F8012B24BF00F8013B00F801CB54
:1005900048BF00F8012B704702F0FF0343EA032233
:1005A00042EA024200F00AB94FF0000200B51346D9
:1005B00094469646203922BFA0E80C50A0E80C5083
:1005C000B1F12001BFF4F7AF090728BFA0E80C5034
:1005D00048BF0CC05DF804EB890028BF40F8042B2D
:1005E00008BF704748BF20F8022B11F0804F18BF9A
:1005F00000F8012B7047704770477047704710B57F
:1006000000F0FCF8006810BD10B5044600F0F6F8E4
:10061000046010BD2DE9F0470D4699469246044608
:1006200000F124080168880604D5E06921F0100172
:10063000216000E00120A84201DD471B00E0002707
:10064000A1697A1902EB0900081AA0612078C00696
:1006500002D42046AFF30080002608E0D4E901214F
:100660001AF806009047206A401C761C20624E450E
:10067000F4DB2078C0060AD52046AFF3008006E000
:10068000D4E9012130209047206A401C2062381EA6
:10069000A7F10107F4DC07E0D4E9012118F805000F
:1006A0009047206A401C2062281EA5F10105F3DC5A
:1006B0002046AFF300802078000602D50220BDE876
:1006C000F0870120FBE7000001694A1C02610878FD
:1006D000704700B58FB0CDE9013100210591054982
:1006E0007944CDE9031011466846FFF771FE0FB05B
:1006F00000BD0000E5FFFFFF0A6802F8010B0A6079
:10070000704710B5436913B1AFF3008001E0FFF704
:10071000F9FD012010BD127800F124010A700022B9
:100720004A700122EDE711684FF0FF32E9E700005F
:10073000074B70B50D467B44FFF7CBFF04462846B8
:1007400000F060F810B14FF0FF3070BD204670BD72
:100750006F1D000010B5203AC0F00B80B1E81850B2
:10076000203AA0E81850B1E81850A0E81850BFF49B
:10077000F5AF5FEA027C24BFB1E81850A0E818503A
:1007800044BF18C918C0BDE810405FEA827C24BF8E
:1007900051F8043B40F8043B08BF7047D20728BF1C
:1007A00031F8023B48BF11F8012B28BF20F8023B6B
:1007B00048BF00F8012B70474FF000020429C0F039
:1007C000128010F0030C3FF4F1AECCF1040CBCF13C
:1007D000020F18BF00F8012BA8BF20F8022BA1EBD5
:1007E0000C01FFF7E3BE5FEAC17C24BF00F8012BD8
:1007F00000F8012B48BF00F8012B704700487047F4
:10080000BC380020007B00F0800070470048704733
:10081000BC3800207546FFF7F9FFAE460500694673
:10082000534620F00700854618B020B5FFF736FD87
:10083000BDE820404FF000064FF000074FF00008E1
:100840004FF0000B21F00701AC46ACE8C009ACE862
:10085000C009ACE8C009ACE8C0098D46704710B5C6
:100860000446AFF300802046BDE81040FFF7B5BC5A
:1008700070B5044600688168C943C90717D181680B
:1008800021F00101816000F03FFC05460AE000BF55
:1008900000F03AFC401B022804D920688068C0435D
:1008A000C00706D020688068C043C007F0D0002091
:1008B00070BDA06A40F01000A062E06A40F0010044
:1008C000E062012070BD0000F8B5002604460096E5
:1008D00000688168C943C9072DD0816841F00101D2
:1008E0008160164816490068B0FBF1F000E0401E38
:1008F00000900028FBD100F007FC054616E000BF81
:1009000000F002FC401B022810D920688068C04318
:10091000C0070BD0A06A40F01000A062E06A40F06F
:100920000100E06284F824600120F8BD206880683E
:10093000C043C007E4D10020F8BD0000140000202F
:1009400040420F00FEE7704772B6FEE7F8B500259B
:100950000446009590F8240001280BD0012084F86B
:1009600024002046FFF784FF2046FFF7ADFF060076
:1009700002D050E00220F8BDA06A20F4885040F078
:100980000200A062022000F08FFC25490968B1FB3B
:10099000F0F0400000E0401E00900028FBD12068ED
:1009A000816841F00801816000F0AEFB074608E075
:1009B00000F0AAFBC01B0A2803D920688068000742
:1009C00015D4206880680007F2D42068816841F05F
:1009D0000401816000F098FB074612E000F094FBF0
:1009E000C01B0A280DD920688068400709D5A06A75
:1009F00020F0020040F01000A06284F82450012092
:100A0000F8BD206880684007E8D4A06A20F00200A2
:100A100040F00100A06284F824503046F8BD000088
:100A200014000020F8B50024009490F824202546F6
:100A3000012A12D0012280F824204A681F23072AA5
:100A40000DD20668776B521E02EB820293409F43E1
:100A50000B6893401F43776319E00220F8BD0668D6
:100A60000D2A0AD2376BD21F02EB820293409F43BA
:100A70000B6893401F43376309E0F76A0D3A02EBB6
:100A8000820293409F430B6893401F43F7620A68BA
:100A9000072306680A2A0AD3F7680A3A02EB4202D9
:100AA00093409F438B6893401F43F76008E037698A
:100AB00002EB420293409F438B6893401F43376190
:100AC0000A68102A01D0112A20D1124B02689A42DA
:100AD00017D193681B0219D4936843F40003936001
:100AE0000968102912D10C490C4A0968B1FBF2F1CE
:100AF00001EB8101490000E0491E00910029FBD172
:100B000004E0816A41F020018162012480F82450D0
:100B10002046F8BD002401401400002040420F0090
:100B20000068C06C704700002DE9F04104004FF0F0
:100B300000057FD0A06A002628B9E66284F8246008
:100B4000204600F081F82046FFF792FEA16AC90610
:100B500000D420B1A06A40F01000A0626AE0A16A4F
:100B600021F4885141F00201A162334923688B428C
:100B7000E16904D1B1F5402F01D14FF40021277B69
:100B80004FF4807C41EA470261680A43A1686145ED
:100B900008D0012906D0002194F814E0BEF1010F1D
:100BA00002D00AE06146F7E7C7B1A76A47F020071D
:100BB000A762E76A47F00107E7625F6827F46947C1
:100BC0000F435F60236899681C4F39401143996057
:100BD000A16861450BD0012909D00CE0DFF860E085
:100BE000A7690EEB47370F4347F40061E5E7218A19
:100BF0000D05A5F580152168CB6A23F470032B43FE
:100C0000CB62216889680F4B1940914208D1E66296
:100C1000A16A21F0020141F00101A162BDE8F08169
:100C2000A06A20F0020040F01000A062E06A40F0EC
:100C30000100E0620120F1E7003C0140FDF7E1FF27
:100C400000E0FFFFFE0E1FFF10B586B000210091EF
:100C500001910291039100681649884227D11648F4
:100C6000816941F400718161816901F4007104912D
:100C7000816941F010018161816901F010010491E5
:100C8000816941F0080181618069032400F0080056
:100C900004901620CDE900046946084800F02AF9BE
:100CA0000120CDE900046946054800F023F906B0AB
:100CB00010BD00000024014000100240001001405F
:100CC000000C01402DE9F84300270D46044600972B
:100CD00000F01AFA804620688168C90508D5A06A24
:100CE00040F02000A06284F824700120BDE8F88361
:100CF0004168C90503D4C06A10F4700F2AD00220DD
:100D000000F0D2FA3B490968B1FBF0F620680369AC
:100D100039490B424FEA61014FEAA1121FD1C36862
:100D20004FEA611C13EA0C0F19D103690B4225D15C
:100D3000C068104222D1142023E0681C0AD02DB1D3
:100D400000F0E2F9A0EB0800A84203D9206800688F
:100D5000800725D5206800688007EED52DE003695F
:100D60000B4202D1C168114206D0026923490A42EE
:100D700006D1C068084203D1542002E0292000E0D7
:100D8000FC204643009816E0681C11D02DB100F0FD
:100D9000BBF9A0EB0800A8420AD90098B04207D2DC
:100DA000A06A40F00400A06284F8247003209DE74C
:100DB0000098401C0090B042E6D321686FF012000A
:100DC0000860A06A40F40070A06220688068C0F3E8
:100DD000424007280CD1207B50B9A06A20F48070D3
:100DE000A062A06AC00403D4A06A40F00100A0621F
:100DF00000207BE71400002024499224499224001B
:100E000070B5044690F8240001280DD0012084F824
:100E100024002046FFF758FD02004FF0000005D0E7
:100E200084F82400104670BD022070BDA16A40F213
:100E30000123994341F48071A1621F4D23681F492A
:100E4000AB4218D10E6816F4702F14D0A66A46F47F
:100E50008016A6620E68760505D5A66A26F40056A9
:100E600046F48056A662A66AF6040AD5E66A26F01B
:100E70000606E66206E0A66A26F48016A6625E68AA
:100E8000E9E7E06284F824006FF00200186020684F
:100E90008368C3F34243072B05D1A84208D10968F0
:100EA00011F4702F04D0816841F480118160B9E79A
:100EB000816841F4A001F9E70028014004240140C1
:100EC00010B5044690F82400012807D0012084F8CA
:100ED00024002046FFF7CCFC10B107E0022010BD33
:100EE000A16A21F4885141F00101A162002184F836
:100EF000241010BD2DE9F84FDFF8C8910024A9F1A6
:100F0000040B23460F2709F1040AABF1040ED1E0CC
:100F10000125A54006EA0502AA4276D1DFF8A8C15C
:100F20004E68A6EB0C0866452BD00DDC032E34D0A2
:100F300005DC36B3012E19D0022E2FD11BE0112E65
:100F400016D0122E2AD119E0B8F5881F19D006DC68
:100F5000B8F5803F15D0B8F5801F1FD111E0B8F566
:100F6000001F0ED0B8F5041F18D10AE0CB6815E0B9
:100F7000CB681B1D12E0CB6808330FE0CB680C3345
:100F80000CE08B682BB1012B4FF0080303D04561B7
:100F900004E0042302E0056100E00023FF2A01D8F9
:100FA000064601E000F104064FEA840501D9A5F1E7
:100FB0002005D6F8008007FA05FC28EA0C0803FA99
:100FC00005F548EA0508C6F800804D68ED0070D5C3
:100FD0003E4DAE6946F00106AE61AD6924F00306F0
:100FE00005F0010500953A4D06EB050CDCF80850BC
:100FF000A607360F07FA06F825EA0805DFF8D480B9
:10100000404503D14FF0000825E052E0DFF8C880EA
:10101000404502D14FF001081DE0DFF8C080404597
:1010200002D14FF0020816E0DFF8B480404502D14B
:101030004FF003080FE0DFF8AC80404502D14FF0DD
:10104000040808E0DFF8A080404502D14FF0050811
:1010500001E04FF0060808FA06F848EA0508CCF85F
:1010600008804D68D9F80060ED024D4601D5164361
:1010700000E096432E604D68DAF80060AD025546F8
:1010800001D5164300E096432E604D68DBF8006002
:10109000AD035D4601D5164300E096432E604D68D2
:1010A000DEF80060ED03754601D5164300E0964377
:1010B0002E60641C0A681646E2407FF429AFBDE842
:1010C000F88F0000080401400000111000100240D9
:1010D0000000014000080140000C014000100140E8
:1010E0000014014000180140001C0140C26821EAC0
:1010F00002030A4043EA0241016170470AB10161FB
:1011000070470904FBE70000014880687047000051
:10111000080000200248816802781144816070470D
:1011200008000020074810B5016841F01001016077
:10113000032000F0A7F80F2000F006F800F050F8A8
:10114000002010BD0020024030B505461F4887B082
:10115000C16941F00401C161C06906A900F0040041
:10116000009001A800F008FA0498B0B100F02AFA43
:1011700040001749174AB0FBF1F11748491E0260B9
:10118000416040F2E7320021C0E9032181608161C2
:1011900000F0F0FB040003D015E000F013FAE8E7DC
:1011A0000D4800F015FC04000DD11E2000F03CF8A5
:1011B000102D07D2002229461E2000F043F80748D0
:1011C000056000E0012407B0204630BD0010024059
:1011D00040420F0000080040A00100200C00002049
:1011E0000F4808B5816941F001018161816901F011
:1011F00001010091C16941F08051C161C0690022C3
:1012000000F0805000900F21901E00F01BF8054860
:10121000416821F0E06141F00071416008BD0000CB
:101220000010024000000140002809DB00F01F020E
:10123000012191404009800000F1E020C0F8001138
:1012400070470000F0B40E4B1B680C46C3F302233A
:10125000C3F10705042D00D90425191D072901D262
:10126000002300E0DB1E012606FA05F1491E21409D
:1012700099409E40761E16403143F0BC01F0BDB847
:101280000CED00E0064900F0070208684FF6FF0386
:10129000184040EA0220034A1043086070470000EB
:1012A0000CED00E00000FA0510B501460020284CC6
:1012B00004292FD00BDC012930D0022929D100F0DC
:1012C00091F96168C1F38131491C49001FE0082987
:1012D00020D010291DD161682268D20119D51D487E
:1012E000C1F38342C903805C0AD56168194AC1F31E
:1012F0004041921E515C184AB2FBF1F1484301E0B3
:10130000164948436168490203D440000321B0FBF9
:10131000F1F010BDBDE8104000F074B9226AC2F3CC
:101320000121012903D1920701D5C80310BD02296B
:1013300005D1626A920702D549F6404010BD0329E3
:10134000FCD121688903F9D54FF2244010BD00007B
:10135000001002407C48000800127A0000093D009D
:101360002DE9F84305460078354CC00754D0E069B4
:101370000026C00008D4E06940F08050E061E069D8
:10138000012600F0805000902E480168C90512D453
:101390000168804641F480710160FFF7B5FE0746A1
:1013A00005E000BFFFF7B0FEC01B642823D8D8F8C3
:1013B0000000C005F6D5206A10F4407021D0A9883D
:1013C00001F4407181421CD0206A1F49012220F49F
:1013D00040700A6000220A602062C00711D0FFF747
:1013E00093FE074641F2883808E000BFFFF78CFE05
:1013F000C11B414502D90320BDE8F883206A80075C
:10140000F4D5206A696820F44070084320621EB158
:10141000E06920F08050E0612878800705D5606899
:10142000A96820F44040084360602878C00605D5CC
:101430006068696920F48000084360600020DBE791
:101440000010024000700040400442422DE9F04785
:101450000F46050061D0434E306800F00700B842E7
:1014600009D2306820F0070038433060306800F05F
:101470000700B84251D128683B4C810712D540077C
:1014800003D5606840F4E06060602878000703D509
:10149000606840F4605060606068A96820F0F00007
:1014A000084360602878C00728D06868012810D0F9
:1014B0002168022810D0890700292EDA616821F0FE
:1014C000030101436160FFF71FFE804641F2883946
:1014D0000DE021688903EFE78901EDE7FFF714FECE
:1014E000A0EB0801494502D90320BDE8F0876068F8
:1014F000696800F00C00B0EB810FEFD1306800F0AC
:101500000700B8420BD9306820F00700384330603C
:10151000306800F00700B84201D00120E5E72878E4
:10152000400705D56068E96820F4E0600843606022
:101530002878000706D56068296920F4605040EAE1
:10154000C100606000F05EF86168084AC1F30311F1
:10155000515CC8400649086006480068FFF7F4FD82
:101560000020C2E700200240001002408C48000822
:10157000140000200C0000200F2202600C4A536867
:1015800003F003034360536803F0F0038360536880
:1015900003F4E063C36052684FF4E06303EAD202ED
:1015A00002610448006800F007000860704700000E
:1015B000001002400020024001480068704700000F
:1015C000140000200448054900684968044AC1F332
:1015D0000221515CC84070471400002000100240F6
:1015E0009C4800080448054900684968044AC1F35A
:1015F000C221515CC8407047140000200010024016
:101600009C4800080E4A51680E4801F00C03042B58
:1016100011D0082B0FD10C48C1F38343C903C05C20
:101620000AD55168084AC1F34041921E515C054AEF
:101630005043B0FBF1F07047044948437047000045
:101640000010024000127A006A48000800093D00BC
:101650002DE9F84F040070D02078C04DC00749D064
:101660006868C0F38100012807D06868C0F3810072
:10167000022809D16868C00306D52868800339D5D7
:1016800060680028E7D035E06068B0F5803F0BD097
:1016900010B1B0F5A02F11D0286820F48030286058
:1016A000286820F4802002E0286840F48030286018
:1016B000606890B1FFF728FD06460AE0286840F40C
:1016C00080202860F0E700BFFFF71EFD801B642824
:1016D00073D828688003F7D50CE0FFF715FD0646A0
:1016E00005E000BFFFF710FD801B6428F0D82868D4
:1016F0008003F7D420789A4E80074FF001094FF00D
:10170000000839D5686810F00C0F07D06868C0F37E
:101710008100022809D16868C00306D428688007C0
:1017200014D52069012808D110E02069B0B1C6F8AD
:101730000090FFF7E9FC074605E00AE1FFF7E4FC4B
:10174000C01B0228C4D828688007F7D528686169BB
:1017500020F0F80040EAC10028600DE0C6F80080E3
:10176000FFF7D2FC074604E0FFF7CEFCC01B0228BF
:1017700023D828688007F7D4207800072CD579482B
:10178000A169D9B1C0F80090FFF7BEFC074604E09C
:10179000FFF7BAFCC01B02280FD8686A8007F7D58C
:1017A00071484FF4FA510068B0FBF1F0009000BFAF
:1017B0000098411E0091FAD20EE080E0C0F800804F
:1017C000FFF7A2FC074604E0FFF79EFCC01B0228BF
:1017D00075D8686A8007F7D42078400760D5E86933
:1017E0000027C00008D4E86940F08050E861E8694B
:1017F000012700F0805000905C480168C90513D4AF
:101800000168834641F480710160FFF77DFC8246E8
:1018100006E000BFFFF778FCA0EB0A0064284ED872
:10182000DBF80000C005F5D5E06801280AD008B152
:10183000052813D0286A20F001002862286A20F0C9
:10184000040002E0286A40F001002862E06841F2EA
:10185000883B98B1FFF758FC82460BE0286A40F0BD
:1018600004002862EEE700BFFFF74EFCA0EB0A0180
:1018700059455AD8286A8007F6D50CE0FFF744FC92
:10188000824605E0FFF740FCA0EB0A0159454CD821
:10189000286A8007F6D41FB1E86920F08050E8611B
:1018A000E06988B36968C1F38101022944D0022844
:1018B000C6F8608004D0FFF727FC044638E034E027
:1018C000FFF722FC074604E0FFF71EFCC01B0228BE
:1018D0002BD828688001F7D4206AB0F5803F05D165
:1018E0006868A16820F4003008436860D4E9080102
:1018F0000843696821F4741108436860C6F8609071
:10190000FFF702FC044606E025E000BFFFF7FCFB02
:10191000001B022809D828688001F7D51BE000BF0A
:10192000FFF7F2FB001B022802D90320BDE8F88F65
:1019300028688001F4D40EE00128F7D06868226A94
:1019400000F48031914204D1616A00F47010884241
:1019500001D00120EAE70020E8E700000010024083
:101960000000424280044242140000200070004007
:101970007047704710B5040003D094F83D0010B1D3
:1019800007E0012010BD002084F83C00204600F054
:101990001EF8022084F83D00211D206800F04AFB5B
:1019A000012084F8460084F83E0084F83F0084F863
:1019B000400084F8410084F8420084F8430084F831
:1019C000440084F8450084F83D00002010BD7047B5
:1019D00090F83D10012901D001207047022180F8C4
:1019E0003D100168CA6842F00102CA6000680E49F1
:1019F00088420ED00D4988420BD0B0F1804F08D0FC
:101A00000B49884205D00B49884202D00A498842D6
:101A100004D1816801F00701062903D0016841F073
:101A20000101016000207047002C0140003401409A
:101A30000004004000080040000C004070472DE901
:101A4000F04104460068C66805694FF00007A90721
:101A500013D5B10711D5F91E016101202077206847
:101A600080698007204602D0FFF7E8FF04E000F01D
:101A70007EF8204600F07CF82777680716D57007B7
:101A800014D521686FF004000861022020772068D7
:101A9000806910F4407F204602D0FFF7CFFF04E0BA
:101AA00000F065F8204600F063F82777280715D581
:101AB000300713D521686FF00800086104202077F3
:101AC0002068C0698007204602D0FFF7B7FF04E016
:101AD00000F04DF8204600F04BF82777E80616D5C1
:101AE000F00614D521686FF01000086108202077F7
:101AF0002068C06910F4407F204602D0FFF79EFFA7
:101B000004E000F034F8204600F032F82777E807C8
:101B100008D0F00706D021686FF001000861204668
:101B200000F028F8280608D5300606D521686FF0A1
:101B3000800008612046FFF71BFF680608D5700685
:101B400006D521686FF040000861204600F01CF8BF
:101B5000A8060AD5B00608D521686FF020000861F4
:101B60002046BDE8F041FFF704BFBDE8F0817047B3
:101B70007047000000680349884201D1FFF7CABAE4
:101B80007047000000080040704770B5040004D0A2
:101B900094F84100002510B106E0012070BD84F8E2
:101BA0004050204600F024F8242084F841002068AA
:101BB000C16821F40051C160204600F0C1FB2068DB
:101BC000016921F4904101612068416921F02A01F5
:101BD00041612068C16841F40051C1606564202002
:101BE00084F8410084F842006563002070BD000065
:101BF000F0B585B000240094019402940394036826
:101C0000324F022032490322324D4602BB421AD1E2
:101C10008B6943F480438B618B6903F480430493A5
:101C20008B6943F004038B618969039201F004011D
:101C300004910102CDE9001069462846FFF75AF9E0
:101C4000CDE900641CE0244FBB4220D1CB6943F4B2
:101C50000033CB61CB6903F4003304938B6943F009
:101C600004038B618969039201F00401049104214A
:101C7000CDE9001069462846FFF73CF9082022E02C
:101C8000694628460294FFF735F905B0F0BD134DBB
:101C9000AB42FAD1CB6943F48023CB61CB6903F427
:101CA000802304938B6943F008038B6189690C4D91
:101CB00001F00801CDE90321CDE90060694628461D
:101CC000FFF718F9E814CDE90004D9E7003801401E
:101CD000001002400008014000440040004800405D
:101CE000000C0140FEE700000C4810B50A490160F5
:101CF00000218160017301754FF46022C26141606F
:101D000001210161FEF710FF08B1FEF71DFEBDE8DD
:101D100010400248FEF71ABE00240140980000203F
:101D20007CB5002501242B4680220BA10D48CDE96E
:101D3000004502F035F8002322020BA10C48CDE942
:101D4000004502F02DF80B4A00210B4800F0D0FCB2
:101D50000A4908607CBD0000686561727462656153
:101D600074000000D12000086D6F6E69746F7200FE
:101D7000AD22000844480008891F00080000002028
:101D80002DE9F04F85B000244D4800940194029451
:101D90000394816941F010018161816901F01001B2
:101DA0000491816941F004018161816901F00401BC
:101DB0000491816941F008018161816901F00801A4
:101DC0000491816941F040018161816901F0400124
:101DD0000491816941F020018161816901F0200154
:101DE0000491816941F4807181618069DFF8D4A038
:101DF00000F480700490002208215046FFF77EF91D
:101E0000DFF8C4B0002240F611015846FFF776F91A
:101E10004FF40078002241462C48FFF76FF9012269
:101E200011035846FFF76AF9002298212848FFF766
:101E300065F94FF40059002249462648FFF75EF93C
:101E4000002208212448FFF759F908270226012516
:101E500000970396CDE9015469465046FFF74AF8CA
:101E600041F61100CDE90005CDE902466946584624
:101E7000FFF740F8CDF800800396CDE9015469469C
:101E80001248FFF737F89820CDE90005CDE9024662
:101E900069460F48FFF72EF8CDF800900396CDE97C
:101EA000015469460B48FFF725F800970396CDE9E2
:101EB000015469460848FFF71DF805B0BDE8F08FEA
:101EC00000100240001001400008014000180140CD
:101ED0000014014000200140000C01400C4810B5E6
:101EE0000A4901604FF4E1314160002181600C2218
:101EF000C160C0E904128161C161FFF746FE00289C
:101F000003D0BDE81040FEF71FBD10BD00380140F2
:101F1000C80000200C4810B50A4901604FF4E131B7
:101F20004160002181600C22C160C0E9041281611E
:101F3000C161FFF72AFE002803D0BDE81040FEF77C
:101F400003BD10BD00440040100100200C4810B536
:101F50000A4901604FF4E1314160002181600C22A7
:101F6000C160C0E904128161C161FFF70EFE002863
:101F700003D0BDE81040FEF7E7BC10BD00480040AC
:101F800058010020FEE7FEE7012000F076FBFBE7AA
:101F900010B54FF0E020006901F05AFF012803D08E
:101FA000BDE8104001F088BC10BD30B595B02821C7
:101FB0006846FEF7F9FA14210AA8FEF7F5FA182187
:101FC0000FA8FEF7F1FA01210804CDE90010002561
:101FD000029502240491CDE907404FF4E0100990E6
:101FE0006846FFF735FB08B172B6FEE70AA90F2075
:101FF00081E831004FF48060CDE90D0502210AA887
:10200000FFF724FA08B172B6FEE74FF400401190D2
:102010000F940FA8FFF7A4F9002801D072B6FEE7CD
:1020200015B030BD704700000148FFF708BD000043
:10203000A0010020F0B50268204C214D214E224F16
:10204000224B4FF0804CA04209D0984207D0604507
:1020500005D0A84203D0B04201D0B84204D122F04A
:10206000700E4A6842EA0E02A04209D0984207D098
:10207000604505D0A84203D0B04201D0B84203D198
:1020800022F44075CA682A434D6922F080022A432F
:1020900002608A68C2620A688262A04201D09842E5
:1020A00001D109690163012141610169C90703D0B7
:1020B000016921F001010161F0BD0000002C014027
:1020C0000004004000080040000C004000340140C3
:1020D000002422A0FEF7F6F82948416A890001D5BC
:1020E00028A00AE0416AC90001D536A005E0406A8F
:1020F000000101D53EA000E049A0FEF7E3F85049F9
:1021000001200860FFF758FA01464EA0FEF7DAF802
:1021100001F078FB01464FA0FEF7D4F8534E4FF480
:10212000FA7741F2883510213046FEF7DFFF384656
:1021300001F0D2F901F09AFE001BA842F3D301F09E
:1021400095FE04464A4801F02FFA01F00DFB48497C
:1021500048A0FEF7B7F801F06BFFE4E70D0A3D3D3C
:102160003D3D3D20E7B3BBE7BB9FE590AFE58AA8C7
:10217000E4BFA1E681AF203D3D3D3D3D0D0A00009D
:1021800000100240E4B88AE6ACA1E5A48DE4BD8D60
:10219000EFBC9AE78BACE7AB8BE79C8BE997A8E7A2
:1021A0008B97EFBC88E8AFB4E6988EE7A88BE5BACA
:1021B0008FE69BBEE58DA1E6ADBBE8BF87EFBC898E
:1021C0000D0A0000E4B88AE6ACA1E5A48DE4BD8D5B
:1021D000EFBC9AE8BDAFE4BBB6E5A48DE4BD8D2F9E
:1021E000E9878DE590AFE591BDE4BBA40D0A000041
:1021F000E4B88AE6ACA1E5A48DE4BD8DEFBC9AE419
:10220000B88AE794B5E68896E68E89E794B5EFBC80
:1022100088E6ADA3E5B8B8EFBC890D0A0000000060
:10222000E4B88AE6ACA1E5A48DE4BD8DEFBC9AE5E7
:1022300085B6E4BB962FE69CAAE79FA50D0A000091
:10224000E004424248434C4B203D20256C75204819
:102250007A0D0A00E589A9E4BD99E5A086203D2014
:10226000257520E5AD97E88A820D0A00001401402B
:10227000BC360020E4BBBBE58AA1E5908D5C74E729
:102280008AB6E680815C74E4BC98E58588E7BAA7E5
:102290005C74E589A9E4BD99E6A0885C74E5BA8F11
:1022A000E58FB70D0A25730D0A0000008AB0DFF82C
:1022B00088B00A2405A800F029FF01F055FA594614
:1022C000089802F00DF902F0A3F890FBF4F190FBEE
:1022D000F4F904FB110A5946079802F001F902F0DB
:1022E00097F890FBF4F190FBF4F704FB11085946C2
:1022F000069802F0F5F802F08BF890FBF4F190FBF1
:10230000F4F504FB11065946059802F0E9F802F0CD
:102310009BF8B0FBF4F104FB1102B0FBF4F18DE883
:10232000C0072B460548FDF7CDFF01F081FE4FF4B5
:102330007A7001F0D1F8BDE700002041F0480008B4
:1023400070B5044600680169E26821F44051114308
:1023500001612169A0680843616908432168CA686E
:1023600041F20C639A430243CA6020684169A26942
:1023700021F44071114341611E492068884202D115
:10238000FFF730F901E0FFF71DF900EBC00101EBA9
:102390000012606864218000B2FBF0F3B3FBF1F33C
:1023A0006FF018067343B2FBF0F5B2FBF0F605EBE5
:1023B0008305322303EB0515B5FBF1F5B6FBF1F60A
:1023C00005F0F00505EB0615B2FBF0F6B2FBF0F0F8
:1023D000B0FBF1F06FF01802504306EB800003EB06
:1023E0000010B0FBF1F0216800F00F002844886075
:1023F00070BD000000380140FEE70907090E002803
:1024000004DB00F1E02080F80014704700F00F00BA
:1024100000F1E02080F8141D704700214FF07E503D
:1024200001F034BF012102F0CEB90021084601F0CD
:102430002DBF70472DE9F041040006D0184E3068DA
:1024400084420AD10020BDE8F081502080F3118839
:10245000BFF34F8FBFF36F8FFEE700F065FF656935
:10246000776BB66B00F080FFBD4201D0B54201D161
:102470000220E8E70B48854208D1A06A0028F7D17E
:1024800094F858000128F3D00320DCE705481438FD
:10249000854202D00DB10120D5E70420D3E700002A
:1024A00018000020D806002004490A685206FCD50E
:1024B000024AC1B2121D116070470000003801408D
:1024C0002DE9F0410026A0F50001B1F1FE4F7DD2CB
:1024D00000F500226FF07E0101EBE251C2F30254DD
:1024E00077184FF07E52A0EBC15602EB045557EA25
:1024F000040047D02946304601F060FE8046294658
:10250000304602F0B9F8414601F0C0FE05460146EA
:1025100001F0E6FF8046454901F0E2FF444901F041
:102520004DFE06464146284601F0DAFF314601F0ED
:10253000D7FF0646384601F0A7FF07463D4901F0A0
:10254000CFFF3D49794451F8241001F037FE314660
:1025500001F034FE06460121284602F034F93146E6
:1025600001F02CFE05463846344901F0B9FF3449E4
:10257000794451F8241001F021FE2946BDE8F041CC
:1025800001F01CBE4FF07E51304602F075F8054652
:102590002C4901F0A5FF2C4901F010FE294601F05D
:1025A0009FFF2A4901F00AFE294601F099FF6FF0CA
:1025B000824101F003FE04462946084601F090FFDF
:1025C000214601F08DFF0146284600E003E0BDE80A
:1025D000F04101F0F3BD4FF07F42B2EB400F03D268
:1025E000BDE8F041FFF71EBFB0F1FF4F08BFBDE8E7
:1025F000F081B0F1004F06D90120FEF705F8BDE8E3
:10260000F041FFF712BF30F0004105D06FF0160621
:10261000172102F0D8F85BE70220FDF7F5FFFFF77E
:10262000FCFE80F00040BDE8F081000066F1CC3E89
:10263000AAAA2A3FF4FD05387C2300000070313F30
:102640003023000021ED423E0A1180BEC1ABAA3EFC
:10265000FEF768FDFFF7A9FCFFF792FBFFF73EFCD2
:10266000FFF758FCFFF772FCFFF73EFB00F012F893
:10267000FFF756FB00F020F8FEE710B5EFF30581F9
:1026800011B16FF0050403E0002408B100F024FF4D
:10269000204610BDEFF3058010B16FF005007047C4
:1026A0000448016811B14FF0FF307047012101600B
:1026B000002070476800002010B5EFF3058010B1CE
:1026C0006FF0050010BD08480168012902D04FF0E5
:1026D000FF3010BD054A002182F8141D022101605F
:1026E00000F0FEFF002010BD680000200BE000E0BD
:1026F0002DE9FF414FEA01034FF00005EFF305819B
:10270000039549BB40B38027182100244AB31668BB
:1027100006B1344696691EB13146761E382E02D275
:102720001679F60703D0002004B0BDE8F0815669A1
:1027300006B1B708D2F808C0BCF1000F0DD0D568BB
:102740005C2D18D312693AB136B18DE806103A46BD
:10275000214601F052FB03900DE0D6685EB9126984
:102760004AB903AACDE90012BAB2214601F018FB1A
:10277000012800D003950398D6E700002DE9F04129
:10278000134C0F460546E6682068001D00F010FD5A
:10279000681C07D137B12168BDE8F0410D48091D1B
:1027A00000F0B5BD20683544B5424560216805D2CA
:1027B000A06BBDE8F041091D00F091BD606B091DE3
:1027C00000F08DFDA06A854200D2A562BDE8F081CF
:1027D00018000020D80600202DE9F041054600F041
:1027E000A3FD2D4CA068401CA06020682B4F10B1A9
:1027F000606930B32BE02560A068012827D100264E
:1028000006EB860007EB800000F05BFD761C382E9F
:10281000F6D3234800F055FD2148143000F051FD57
:102820001F48283000F04DFD1D483C3000F049FDA8
:102830001B48503000F045FD194860631430A06318
:1028400005E02068E96AC06A884200D82560606AAD
:10285000401C60626864E86A2169884200D920618E
:1028600000EB800007EB8000291D00F050FD00F018
:102870007BFD606900280CD02068E96AC06A884244
:1028800007D208494FF080500860BFF34F8FBFF365
:102890006F8FBDE8F08100001800002028020020A2
:1028A0008806002004ED00E038B500F03DFD104C36
:1028B0002068C8B90F4800F004FD0E48143000F03D
:1028C00000FD0C48E060143020610A4B0020F03B12
:1028D000009003F1500210210A2001F003F820605B
:1028E00010B105A100F0C2FDBDE8384000F03CBDCC
:1028F00054000020DC070020546D725100000000DD
:1029000030B4026C0B46002A0BD0C1681144C16080
:102910008468A14201D30168C16030BC1846FDF74C
:10292000F6BD30BC70472DE9F041856B1746044673
:102930000026026C82B1C7B1E068FDF7E8FDE168EE
:10294000206C091AE1602268914202D2A168081A3B
:10295000E060022F16D017E02068A8B9A06801F047
:10296000EFFA06460020A0600EE06068FDF7CFFD9C
:10297000216C606808446060A168884204D32068C4
:10298000606001E005B16D1E6D1CA5633046BDE8B9
:10299000F08110B5044690F8590058B101280CD0C8
:1029A00002280FD0502080F31188BFF34F8FBFF360
:1029B0006F8FFEE7206B00F0EBFC2046BDE8104077
:1029C00000F0E6BC10BD000010484FF42051420753
:1029D00006D0C01D0D4920F00700411AC1F5205155
:1029E0000B4A00230144C2E900030839183A21F0D8
:1029F000070111604B600B600B1AC0E90013936074
:102A00004FF000405360506170470000BC0E002042
:102A100084000020144E154CA6F29C474FF08058BD
:102A2000DFF84C9012E000BF00F07EFCF068C56853
:102A3000281D00F0BDFBA068401EA0606068401E1D
:102A4000606000F091FC2846FFF7A3FF6068002853
:102A5000EAD138680128F9D9C9F80080BFF34F8F4F
:102A6000BFF36F8FF2E70000C406002018000020BB
:102A700004ED00E070B51D46049C51B1C4F800207F
:102A8000C4E90F010121204600F060FF84F84C509A
:102A900070BD2460F4E700002DE9F05F8846DDE9B1
:102AA0000B941546834691009A460A9EA522206BF8
:102AB000FDF772FD6FF00301206B01EB8501084407
:102AC00020F00707780707D0502080F31188BFF364
:102AD0004F8FBFF36F8FFEE70025B8F1000F0FD0C7
:102AE0005FF00000221818F8001082F8341018F86F
:102AF000001011B1401C1028F4D384F8435001E0B9
:102B000084F83450382E00D33726E662C4E91365C2
:102B1000201D00F0E1FB04F1180000F0DDFB246152
:102B2000C6F138006462A061656584F85850524669
:102B30005946384600F096FA2060B9F1000F01D0EE
:102B4000C9F80040BDE8F09F30B5114900E01146DA
:102B50000A688242FBD34B685C18844203D1406808
:102B600018444860084643681C18944209D1084C30
:102B7000183C2468A24209D052681A4442600A688C
:102B800012680260814200D0086030BD0460F9E73D
:102B90008400002070B5002441600B4D006191421B
:102BA00006D8D11A8269914206D2011D286907E030
:102BB0009A4203D2994201D3012403E0011DE8683F
:102BC00000F08DFB204670BD5400002010B5044677
:102BD00000F0AAFBA06B28B15FF0000400F0C4FB7A
:102BE000204610BD0124F9E72DE9F0478146086829
:102BF00092460C46002600B3606804F10805406860
:102C00006060A84201D1416861606068D0F80C80C2
:102C1000606840686060A84201D141686160606896
:102C200006EBC60109EB8101C7685346012238460D
:102C300000F078FC761C4745EAD13046BDE8F087C5
:102C400030B589B03C4D6EE00498002806DADDE925
:102C50000601059A90470498002864DB069C606989
:102C600010B1201D00F0A4FA03A800F0D7F8024626
:102C700004980A2857D2DFE800F00505052D334AED
:102C800005052D3394F8280040F0010084F8280051
:102C90000599A069059B01442046FFF77BFF68B3B7
:102CA000216A2046884794F8280040073BD5002039
:102CB00000900598A169002342181946204601F0AA
:102CC00049FAD8B9502080F31188BFF34F8FBFF372
:102CD0006F8FFEE714F8280F20F00100207022E02B
:102CE00094F8280040F0010084F828000598A061BD
:102CF00028B1811813462046FFF74CFF13E05020FF
:102D000080F31188BFF34F8FBFF36F8FFEE794F806
:102D10002800810703D4204600F03AFB03E020F0AE
:102D2000010084F82800002204A9286800F062FF4E
:102D3000002889D109B030BD540000202DE9FC41A4
:102D40000F46054600F010FD01A800F067F80446A4
:102D5000019818B101F06CF9BDE8FC81254EAFB1C6
:102D600030690068D0B30027291B3A46306800F06C
:102D700091FB01F05DF90028EED11F494FF0805022
:102D80000860BFF34F8FBFF36F8FE5E7A542EBD825
:102D900001F04EF9F0682746C068C468201D00F0B5
:102DA00007FA94F82800410719D5A0692B46411964
:102DB0003A462046FFF7EEFEA8B100200346014642
:102DC00000902A46204601F0C5F960B9502080F3F2
:102DD0001188BFF34F8FBFF36F8FFEE707E020F03E
:102DE000010084F82800216A20468847B4E70127BB
:102DF000BAE700005400002004ED00E00648416BF3
:102E0000096829B1416BC968C9684968816270471E
:102E10004FF0FF31FAE700001800002070B50546BA
:102E200001F024F8064E0446B068844203D200F054
:102E300009F8012000E0002028602046B46070BD41
:102E400054000020F8B5194D20E0C068C468066839
:102E5000201D00F0ADF9216A2046884794F828002B
:102E6000400713D5A0693044B04206D924616060A0
:102E7000211DE86800F033FA08E00020034601460F
:102E800000903246204601F065F938B1E8680168E3
:102E90000029DAD12969C5E90310F8BD502080F373
:102EA0001188BFF34F8FBFF36F8FFEE754000020F0
:102EB000002101E0401C491C0278A52AFAD0C1F388
:102EC0008F00704708484068401C4FF0500080F366
:102ED000118804D0BFF34F8FBFF36F8FFEE7BFF3AE
:102EE0004F8FBFF36F8FFEE78C000020074CE06828
:102EF000016841B1C0680021D0F80000FFF71EFF53
:102F0000FFF79EFEF3E701210020F7E754000020C1
:102F10002DE9F041044600F007FA94F9455004F118
:102F2000240609E0606A48B1304601F049F808B16A
:102F300000F09CFB6D1E6DB2002DF3DC4FF0FF36F0
:102F400084F8456000F010FA00F0EEF994F944506E
:102F500004F1100709E0206948B1384601F030F863
:102F600008B100F083FB6D1E6DB2002DF3DC84F818
:102F70004460BDE8F04100F0F7B900002DE9F041F0
:102F80000546002700F0F0FB354E306808B9FFF722
:102F90001BFD7069054216D1ADB1083568070ED02A
:102FA00005F00700C0F108000544680707D050206D
:102FB00080F31188BFF34F8FBFF36F8FFEE715B11A
:102FC0007068854202D901F033F839E0244818309E
:102FD00001460C6801E020460C466168A94202D215
:102FE00021680029F7D131688C42ECD0076821684C
:102FF000016060680837411B10290ED9601942072B
:1030000007D0502080F31188BFF34F8FBFF36F8F2D
:10301000FEE741606560FFF797FD61687068401AE0
:103020007060B268904200D2B060706901430020C5
:10303000C4E90001F068401CF06000F0F9FF0FB92E
:1030400000F036F9780707D0502080F31188BFF3DD
:103050004F8FBFF36F8FFEE73846BDE8F081000069
:103060006C00002010B5031F4FF080741C601B1F04
:1030700021F001011960191F024B0B60143940380F
:103080000A6010BDC52E000870B501F015FA174989
:1030900001F0FCF8164D294601F022FA04461548C5
:1030A000844201DB144870BD2146284601F0E4FA51
:1030B000124E05463146204601F012FA294601F02B
:1030C000E5F8314601F0E2F8FFF7FAF90C4901F0B2
:1030D000DDF80C4901F072F801464FF07E5001F026
:1030E000D5F8BDE87040084901F0C6BA00F07F4548
:1030F0005C8F5240547450400000C8C200401C46CF
:1031000000E076450FCF5B3B3393884310B5040056
:1031100020D00E2000F026F801F0CEF90E4901F083
:10312000B5F80E4901F0DCF90D4901F0D9F920603C
:103130000B2000F017F8FFF7A7FF60600C2000F0ED
:1031400011F8FFF7A1FFA060082000F00BF8FFF7CF
:103150009BFFE06010BD000000F07F455C8F524097
:10316000A9130B413EB500240090012001900720D7
:10317000029069460D48FDF755FC00250B48FDF708
:103180003FFE0A210948FDF79DFD0848FDF7C8FCF0
:1031900004440648FDF794FE6D1CEDB20A2DEDD3F4
:1031A0000A20B4FBF0F080B23EBD00009800002081
:1031B000D0E9013201699A60D0E901235A604A6876
:1031C000824201D182684A60002202610868401E82
:1031D00008600868704700002DE9F04717460A4666
:1031E00005460024382600F0BFFADFF88C80D8F8B6
:1031F000080082423AD3DFF88490761E06EB8601FF
:1032000004EBC40009EB810105EB80000122FFF70C
:10321000EBFC0444002EF0D104EBC40005EB80006D
:1032200002224646D8F83410FFF7DEFC044404EBD3
:10323000C40005EB80000222B16BFFF7D5FC04440B
:1032400004EBC40005EB800004220D49FFF7CCFC21
:1032500004440B4904EBC40005EB80000322143145
:10326000FFF7C2FC04440FB10020386000F0E0FE1C
:103270002046BDE8F087000018000020280200204A
:10328000C4060020034B036003F15C00086080204B
:103290001060704704080020044B036003F15C00D9
:1032A00008604FF48070106070470000600A0020D2
:1032B0007047502080F31188BFF34F8FBFF36F8F9B
:1032C000FEE700F108014FF0FF32C0E90112C160D2
:1032D000016100210160704700210161704730B534
:1032E0000B685A1C02D000F1080202E0026904E0F7
:1032F0002246546825689D42FAD953684B6099600C
:103300008A60516008610168491C016030BD4268F3
:103310004A6093688B6093685960916008610168A6
:10332000491C016070470000502080F31188BFF3F2
:103330004F8FBFF36F8F0A494868401C48600128CF
:103340000CD10848006810F0FF0F07D0502080F320
:103350001188BFF34F8FBFF36F8FFEE770470000F8
:103360008C00002004ED00E00849486828B1401EA8
:10337000486001D180F311887047502080F3118894
:10338000BFF34F8FBFF36F8FFEE700008C0000206C
:1033900070B500282AD0164DA0F10804606869694C
:1033A000084207D1502080F31188BFF34F8FBFF33D
:1033B0006F8FFEE722683AB1502080F31188BFF387
:1033C0004F8FBFF36F8FFEE78843606000F0CCF94A
:1033D00060686968084468602046FFF7B5FB2869A3
:1033E000401C2861BDE8704000F022BE70BD0000A6
:1033F0006C0000204FF0E02000210161816105494F
:103400004FF47A720968B1FBF2F1491E416107215C
:10341000016170471400002010B5FCF72DFF114921
:1034200010280ED300F1E02090F8F0030A789042C3
:1034300007D2502080F31188BFF34F8FBFF36F8FF7
:10344000FEE709480068896800F4E060884207D90F
:10345000502080F31188BFF34F8FBFF36F8FFEE7CB
:1034600010BD00008C0000200CED00E010B5084BF2
:10347000002200BF53F832401CB1521C082AF9D375
:1034800010BD43F8321003EBC201486010BD0000CC
:10349000E801002070B515460E460446FFF744FFCC
:1034A00094F944100020491C01D184F8440094F997
:1034B0004510491C01D184F84500FFF755FFA06B6A
:1034C00028B92A46314604F1240000F0EDF82046E0
:1034D000BDE87040FFF71CBD10B5020014D00F48C6
:1034E000006B38B1502080F31188BFF34F8FBFF3CA
:1034F0006F8FFEE700F038F900211046FFF73EF924
:1035000000F096FD002807D105494FF08050086073
:10351000BFF34F8FBFF36F8F10BD00001800002066
:1035200004ED00E02DE9F0410C461A491646B0B111
:103530004FEA000505F13400C4E90050E86A206153
:10354000286BE061686CA0600027E86CC4E905079F
:10355000052B12D00868854203D1277311E00D684E
:10356000E8E72373032B0CD100F0FEF8A86A08B13A
:103570000220207300F05CFD03E02846FEF75AFFAE
:1035800020732EB1286BFFF793FC2084BDE8F081F7
:103590002784FBE71800002002490A6A0260C96814
:1035A00041607047180000202DE9FC474FF00009EA
:1035B000044680F8009028488568806800EBC000C9
:1035C0008000FFF7DBFC070044D000222946FFF70C
:1035D00003FE8046002536E005EBC50007EB8006BC
:1035E000307B052817D2DFE800F003051012140025
:1035F000582000E05220824620467168FCF744FFC4
:103600002046FCF765FF202109E04220F3E7532024
:10361000F1E74420EFE70020EDE72154401C0F289C
:10362000FBD304F800900444B168308CCDE900016C
:1036300052460AA120463369FCF750FE2046FCF7AB
:1036400047FF04446D1C4545C6D33846BDE8FC47DA
:10365000FFF79EBEBDE8FC8718000020092563091E
:1036600025750925750925750D0A000001490120F8
:10367000C86170471800002010B50C4650B10949C8
:1036800009681831FFF72BFE2046BDE810400121E4
:10369000FFF774B8502080F31188BFF34F8FBFF34A
:1036A0006F8FFEE71800002070B514460D4668B114
:1036B0000A4909681831FFF72AFE0CB14FF0FF35AF
:1036C00021462846BDE87040FFF758B8502080F3E7
:1036D0001188BFF34F8FBFF36F8FFEE718000020F4
:1036E00030B587B00024039405AA04A903A8049464
:1036F000FFF7C8FDDDE903010094CDE901100023C7
:1037000015A11748059A00F078FB164D0028E862CD
:103710001FD000F0EFFC012809D0401C19D1502027
:1037200080F31188BFF34F8FBFF36F8FFEE75020F8
:1037300080F31188BFF34F8FBFF36F8F4FF0FF30CF
:10374000A86201206861EC6007B0BDE8304000F07D
:103750005FB807B030BD000049444C450000000090
:10376000152A0008180000200248016B491C01635B
:10377000704700001800002010B5204C206B10B1DD
:103780000120E06110BD0020E06120684FF0A5310C
:10379000006B02688A4208D142688A4205D1826879
:1037A0008A4202D1C068884204D02168206834313E
:1037B000FFF77FFD2069124901E0B8B1401E00EB20
:1037C000800251F82220002AF7D000EB800201EBA2
:1037D000820101F108034A6852684A609A4201D1A5
:1037E00052684A60D1682160206110BD502080F38A
:1037F0001188BFF34F8FBFF36F8FFEE718000020D3
:103800002802002001484068704700006C0000203A
:103810001CB5264908780190FF20087008788DF8BB
:1038200000009DF800009DF8002000F0F00090429C
:1038300007D0502080F31188BFF34F8FBFF36F8FF5
:10384000FEE79DF800001A4C00F0500020700720A1
:10385000A06005E09DF8002052008DF80020401E79
:103860009DF800201206F5D4A060032807D0502050
:1038700080F31188BFF34F8FBFF36F8FFEE74FF4D4
:103880004070A060019808700A48016841F4700116
:103890000160016841F070410160FFF7ABFD00205D
:1038A0006060FCF7B3FC00201CBD000000E400E0F9
:1038B0008C00002020ED00E010B5502080F311882E
:1038C000BFF34F8FBFF36F8F00F0D6FA18B10449E2
:1038D0004FF080500860002080F3118810BD000078
:1038E00004ED00E038B5049D18B153B1CAB181B1FF
:1038F00020E0502080F31188BFF34F8FBFF36F8F0C
:10390000FEE7502080F31188BFF34F8FBFF36F8F16
:10391000FEE7502080F31188BFF34F8FBFF36F8F06
:10392000FEE739B1502080F31188BFF34F8FBFF30A
:103930006F8FFEE750241C46012384F846302B4647
:103940000094FFF797F8204638BD000070B50D468B
:10395000040025D0FFF7E8FCD4E90F20216802FB22
:103960000011A1600021A163216861600A46D4E9C9
:103970000F01401E00FB0121E16021464FF0FF30A6
:1039800001F8440F487004F110008DB1FFF799FC65
:1039900004F12400FFF795FCFFF7E6FC012070BD61
:1039A000502080F31188BFF34F8FBFF36F8FFEE776
:1039B00021690029F0D000F003FB0028ECD0044975
:1039C0004FF080500860BFF34F8FBFF36F8FE3E776
:1039D00004ED00E02DE9FF4782B01D468A464FF016
:1039E0000008040003D0BAF1000F08D011E0502005
:1039F00080F31188BFF34F8FBFF36F8FFEE7206C0A
:103A000038B1502080F31188BFF34F8FBFF36F8F11
:103A1000FEE7022D0AD1E06B012807D0502080F389
:103A20001188BFF34F8FBFF36F8FFEE700F010FADE
:103A30003F4F4FF000094FF0805648B9049838B115
:103A4000502080F31188BFF34F8FBFF36F8FFEE7D5
:103A5000FFF76AFCA06BE16B884207D3022D05D00B
:103A60000498D0B1B8F1000F1AD01EE02A46514692
:103A70002046FEF758FF616A19B104F1240000F0F6
:103A80009FFA20B13E60BFF34F8FBFF36F8FFFF7F8
:103A90006BFC012006B0BDE8F087FFF765FC22E073
:103AA0006846FFF779FD4FF00108FFF75DFCFFF76F
:103AB0005BFEFFF739FC94F94400401C01D184F807
:103AC000449094F94500401C01D184F84590FFF7DB
:103AD0004BFC04A9684600F029F930B12046FFF7F5
:103AE00017FA00F0A5FA0020D4E7FFF71DFCA06B41
:103AF000E16B884213D1FFF737FC04F11000049901
:103B0000FFF7BAFD2046FFF703FA00F091FA00280C
:103B10009ED13E60BFF34F8FBFF36F8F98E7FFF7E3
:103B200023FC2046FFF7F4F900F082FA90E700004A
:103B300004ED00E02DE9F0471F4690468946040059
:103B400003D0B9F1000F08D011E0502080F31188A4
:103B5000BFF34F8FBFF36F8FFEE7206C38B150205B
:103B600080F31188BFF34F8FBFF36F8FFEE7022FF3
:103B70000AD1E06B012807D0502080F31188BFF3F1
:103B80004F8FBFF36F8FFEE7FFF746FC5020EFF338
:103B9000118680F31188BFF34F8FBFF36F8FA06B37
:103BA000E16B884206D3022F04D0002086F31188EF
:103BB000BDE8F08794F94550A06B3A464946204647
:103BC000FEF7B1FE681C04D06D1C84F8455001203E
:103BD000ECE7606A0028FAD004F1240000F0F0F964
:103BE0000028F4D0B8F1000FF1D00121C8F800107E
:103BF000EDE700002DE9F747002683B08A46040070
:103C000003D0BAF1000F08D011E0502080F31188E2
:103C1000BFF34F8FBFF36F8FFEE7206C38B150209A
:103C200080F31188BFF34F8FBFF36F8FFEE700F073
:103C30000FF9DFF8F4804FF000094FF0805748B9D2
:103C4000059838B1502080F31188BFF34F8FBFF330
:103C50006F8FFEE7FFF768FBA56BC5B151462046A5
:103C6000FEF74EFE6D1EA563206950B104F11000F1
:103C700000F0A6F928B1C8F80070BFF34F8FBFF36A
:103C80006F8FFFF771FB012006B0BDE8F087059844
:103C900008B11EB106E0FFF767FB27E06846FFF7B3
:103CA0007BFC0126FFF760FBFFF75EFDFFF73CFBA7
:103CB00094F94400401C01D184F8449094F94500E3
:103CC000401C01D184F84590FFF74EFB05A96846DA
:103CD00000F02CF8002820460AD0FFF719F900F070
:103CE000A7F92046FEF772FF0028B3D00020CBE7EB
:103CF000FEF76CFF90B104F124000599FFF7BCFCBE
:103D00002046FFF705F900F093F90028A2D1C8F882
:103D10000070BFF34F8FBFF36F8F9BE72046FFF715
:103D2000F7F800F085F995E704ED00E02DE9F041A2
:103D30000C46050011D0C4B1FFF7F6FA174BDA684C
:103D40006E682068911B471C17D02F681B6A9F4222
:103D500019D0964217D8012410E0502080F3118822
:103D6000BFF34F8FBFF36F8FFEE7502080F31188B2
:103D7000BFF34F8FBFF36F8FFEE70024FFF7F4FA16
:103D80002046BDE8F081884205D9401A20602846C7
:103D9000FFF702FCF1E700202060DCE718000020BC
:103DA0002DE9FF5F8346DDE90E87994616468A4670
:103DB0009000FFF7E3F805001CD05C20FFF7DEF869
:103DC000040014D00020256384F85900CDE9024096
:103DD000CDE900874B46324651465846FEF75CFE19
:103DE0002046FEF7F9FC012004B0BDE8F09F28460C
:103DF000FFF7CEFA4FF0FF30F6E7F0B585B0DDE91A
:103E00000B640A9DA6B1DCB15C27009726630226ED
:103E100084F85960002604AFCDE90246CDE9005789
:103E2000FEF73AFE2046FEF7D7FC049805B0F0BD39
:103E3000502080F31188BFF34F8FBFF36F8FFEE7E1
:103E4000502080F31188BFF34F8FBFF36F8FFEE7D1
:103E50000548416919B1006B18B100207047012075
:103E60007047022070470000180000200148C06819
:103E700070470000180000202DE9F0412E4C00276B
:103E8000206B28B1A069401CA0613846BDE8F081D4
:103E9000E668761CE66013D1606B006838B150208C
:103EA00080F31188BFF34F8FBFF36F8FFEE7606B16
:103EB000A16B6163A063206A401C2062FEF79EFF35
:103EC000A06ADFF87880864209D3606B0068A0B1F1
:103ED000606BC068C5686868864211D2A0622068BD
:103EE000C06A00EB800158F82100012800D90127A1
:103EF000E0690028C9D00127C7E74FF0FF30EDE7A0
:103F0000281DFFF755F9A86A18B105F11800FFF749
:103F10004FF9E86A2169884200D9206100EB8001ED
:103F200008EB8100291DFFF7F2F9E86A2168C96AE8
:103F30008842CAD30127C8E71800002028020020C1
:103F400070B504004FF0000133D01B4D2868844247
:103F500007D0502080F31188BFF34F8FBFF36F8FCE
:103F6000FEE7206D38B1401E2065E36CE26A9A429C
:103F70001FD040B11DE0502080F31188BFF34F8F58
:103F8000BFF36F8FFEE7201DFFF712F9E06CE062D0
:103F9000C0F13800A061E06A2969884200D928612F
:103FA000064900EB800001EB8000211DFFF7AFF90F
:103FB0000121084670BD00001800002028020020E2
:103FC00070B5C068C46854B104F118000646FFF724
:103FD000EFF8144D286B50B13146134815E05020CE
:103FE00080F31188BFF34F8FBFF36F8FFEE7201D63
:103FF000FFF7DEF8E06A2969884200D928610B4999
:1040000000EB800001EB8000211DFFF780F9E06AE2
:104010002968C96A884202D90120E86170BD002080
:1040200070BD000018000020B0060020280200200B
:104030002DE9F0472C4D00242746286B38B1FFF7B7
:1040400073F9286B401E2863286B40B146E050206E
:1040500080F31188BFF34F8FBFF36F8FFEE7A9681E
:10406000224E0120D1B3A6F5916980463068E0B1B7
:10407000F068C46804F11800FFF79AF8201DFFF7F4
:1040800097F8E06A2969884200D9286100EB80012D
:1040900009EB8100211DFFF73AF9E06A2968C96A36
:1040A0008842E3D3C5F81C80E0E70CB1FEF7A6FE1A
:1040B000AC694CB14FEA0806FFF7DEFE00B1EE61D5
:1040C000641EF9D10020A861E86938B108490127C8
:1040D00038070860BFF34F8FBFF36F8FFFF744F9C6
:1040E0003846BDE8F087000018000020B006002028
:1040F00004ED00E010B586B0FEF7D6FB114C206849
:10410000B8B100200390049005AA04A903A8FFF702
:10411000C3F8DDE9032102208DE8070000230AA18E
:104120000B48059AFFF769FE606010B106B00120E8
:1041300010BD502080F31188BFF34F8FBFF36F8FF6
:10414000FEE7000054000020546D72205376630097
:10415000ED2E00082DE9FF411E46134602000A9D80
:104160004FF0000016D0144C2768002F0FD0CDE977
:1041700000130292062917DAFFF76AFE02284FF0B1
:1041800000030FD0002269462068FFF723FC04B02B
:10419000BDE8F081502080F31188BFF34F8FBFF34B
:1041A0006F8FFEE72A46EEE700233246694638461F
:1041B000FFF7C0FCEBE700005400002090EA010F7D
:1041C00048BF81F0004100F15E82421A3CBF801A74
:1041D00089184FEAD0524FF07F4C1CEA410FA2EBF6
:1041E000D15318BF9CEA026F00F03B804FF0004CA7
:1041F0004CEA00204CEA012121FA03FC10EB0C0CE4
:104200001ED202F1FF325FEA1C2040EBC25038BFE1
:1042100070471CF07F0F4FEA400C18BFBCF17F4F76
:1042200038BF7047C3F12003994008BF20F0010058
:10423000BCF17F4F38BF7047A0F1C04000F017BA03
:104240004FEA3C00000A40EBC25028BF1CF0FF0FB1
:104250004FEA400CE6D018BFBCF17F4F38BF704723
:10426000EAE79CEA026F05D010EA5C0F08BF00F095
:104270000040704710B500F0B4F900BF64FBBE3ECB
:10428000014800F06EBA00BF0000C07F4FF47F0C01
:104290001CEAD0121EBF1CEAD11392EA0C0F93EA5B
:1042A0000C0F00F0858090EA010F48BF42F4807245
:1042B00040F4000C41F400002CF07F4120F07F40DE
:1042C00000B58142A2EB03020FF2081CACEB504E8A
:1042D000C0F100009EF800E04FEA4E0E00FB0EFC1D
:1042E00038BF49004FEA2C1C02F5FA020CFB0EF312
:1042F0004FEACE1E4FEA112C4FEAC1210EEB635E4E
:1043000042EB22420EFB0CFC4FEA1C5300FB031154
:104310004FEA112C4FEA01310EFB0CFC4FEADC4C4A
:1043200000FB0C11C14228BF09184CEB03335DF8A8
:1043300004EB10EB410143EBC250B2F57C0F38BFE8
:10434000704729D512F0F00F1CBF00F1C04000F0FB
:1043500000407047008182838485868788898B8CA2
:104360008D8E8F919293959697999A9C9D9FA0A2DE
:10437000A3A5A7A8AAACAEB0B2B3B5B7B9BCBEC02E
:10438000C2C5C7C9CCCED1D4D7D9DCDFE2E6E9ECCF
:10439000F0F3F7FAFE0000004FEA400C0CF1807CCD
:1043A000BCF17E4F28BF7047B0F1C04000F05FB94C
:1043B00090EA010F0CEAD11348BF42F480726245C3
:1043C00038BF634507D213F47F0F16D080EA01008F
:1043D00000F00040704710B500F003F9097EFC3E84
:1043E00000F005B880EA010000F00040704780EA64
:1043F000010000F0004000F03AB912F47F0F04BF52
:104400000248704780EA010000F031B90000C07F27
:1044100041000B0ED3F19E0208D950F400034FEA7D
:10442000032323FA02F048BF4042704710B500F062
:10443000D8F800BF49922480002070476FF00042F6
:1044400082EA200070470000C10DD1F19E0206DB18
:104450004FEA002343F0004323FA02F07047004282
:1044600007D54FEA4001B1F1FE4F02D24FF00000F4
:10447000704710B500F0B5F84992248000207047CD
:104480006FEA20007047000010F0004148BF404232
:10449000B0FA80F310FA03F2C3F19D030BD051EA96
:1044A000C35101EB1220530638BF704700F10100E1
:1044B00008BF20F001007047B0FA80F310FA03F251
:1044C000C3F19D030AD0D90501EB1220530638BF72
:1044D000704700F1010008BF20F0010070470000A4
:1044E0004FF47F0C1CEAD0121EBF1CEAD11392EAD3
:1044F0000C0F93EA0C0F00F0478090EA010F48BFC1
:1045000042F480724FF0004C4CEA00204CEA01214A
:1045100002EB0302A0FB0113A2F50002002918BF61
:1045200043F001035B0028BF4FEA330342EB224212
:104530005FEA132C4CEBC2502EBFBCEB436FB2F5BD
:104540007C0F70474FEA036CBCF1004F08BF20F0AE
:104550000100B2F57C0F38BF70470BD582F0FF0227
:1045600012F5803FC8BF704700F1C040D8BF00F0CF
:104570000040704700F5000C5FEA4C0C48BF7047E4
:10458000B0F1C04000F073B890EA010F0CEAD1130B
:1045900048BF42F48072624538BF634504D280EA66
:1045A000010000F00040704710B500F01AF800BF9D
:1045B0008900013E00F007B800F009B85FEA410C3D
:1045C0005FEA1C6C08D080EA010000F050B85FEA96
:1045D000400C5FEA1C6CF6D14FF00040A0F5800063
:1045E00070470EF1020E2EF0030E5EF8044B2442CB
:1045F00004D44FEA4102B2F17F4F11D84FEA400391
:10460000B3F17F4F0CD80ED14FEAD07CB2F17F4F7F
:104610000CEB4C0C0CF1020C08BF4CEBD17C04E011
:104620004FF0080C01E04FEAD17C0CEB4C0324FA6C
:1046300003F404F00704B4F1040C06D20EEB840C6E
:10464000BDE810404CF0010C6047DFE80CF00708B3
:1046500002024FF00040A0F5800010BD0846420065
:1046600018BFD2F1807288BF00F0004010BDFF215A
:1046700041EAD050C005704790EA010F48BF81F071
:1046800000413FF5A2AD421A04D882F00042A0EBEF
:10469000020011444FEAD0524FF07F4C1CEA410F08
:1046A000A2EBD15318BF9CEA026F4AD04FF0004CE6
:1046B0004CEA00204CEA012121FA03FCB0EB0C0C7F
:1046C0000FD412F0FE0F36D05FEA4C001DD5001259
:1046D00040EBC25038BF70471CF03F0F18BF704707
:1046E0000BE0A2F101025FEA1C2040EBC25038BF90
:1046F00070471CF07F0F18BF7047C3F1200399402B
:1047000014BF401E20F00100704780084FEA1223BA
:1047100008BF7047B0FA80FCA2EB0C02CCF1280C69
:1047200060FA0CF093EA122F04BF00EBC2507047FE
:104730004FEAC3707047130A5FEADC1008BF704786
:10474000F6E79CEA026F04D010EA5C0F08BF002075
:10475000704710B5FFF745FF40DFF63E81F000409F
:1047600070470CF00F03092B08BF082000F05180A0
:104770000A2B0BD0082B18BF704708BF1CF0400F46
:104780000AD04FF000004FF0000170471CF0400FBE
:1047900018BF4FF0004070471CF0100F08D020F0F9
:1047A000704300F07F4242EAD3014FEA4370704702
:1047B00000F0604021F07F4242EA000201F07F40B9
:1047C00040EA727070474FF0FF0212EAD0521CBFED
:1047D00092F0FF038B42C2BFD14200EBC150704741
:1047E000002A0AD0002B0BD0002900F00040A4BF03
:1047F00040F0FE4040F40000704700F00040704779
:1048000043024FF00B0C18BF4CF0806C7FF438ADB6
:1048100070471CF4801F11D01CF4E02F03D06FEA06
:10482000CC31490070474FF04050EFF3008222F046
:10483000704242EA000282F3008870474FF00000A5
:1048400070470000E448000800000000000000007D
:10485000000000000000000000020000180000003E
:10486000000000000000000001020203040506072A
:1048700008090A0B0C0D0E0F1010010202030405AB
:10488000060708090A0B0C0D0E0F1010000000009F
:1048900000000000010203040607080900000000F0
:1048A00001020304000000000030F13D0070643E8E
:1048B0000000A33E0090CF3E0090F83E00400F3F26
:1048C00000E0203F0000000015B78337CDE37B38C0
:1048D0000EE1C53860F69138AF5F0F38E1BC3E3865
:1048E00023F4473964656661756C745461736B00B9
:1048F0005B6D6F6E69746F725D09E794B5E58E8BC1
:104900003D25752E25755609E78EAFE6B8A93D25DC
:10491000642E25644309E4BB93E6B8A93D25642EC3
:1049200025644309E69DBFE6B8A93D25642E2564AC
:10493000430D0A00544900080000002098000000C0
:104940006C010008EC49000898000020883E000037
:1049500088010008000000000000000001000000C5
:10496000100000000000000000127A0000000000AB
:104970000000000000000000000000000000000037
:104980000000000000000000000000000000000027
:104990000000000000000000000000000000000017
:1049A0000000000000000000000000000000000007
:1049B00000000000000000000000000000000000F7
:1049C00000000000000000000000000000000000E7
:1049D00000000000000000000000000000000000D7
:0C49E00000000000AAAAAAAA0000000023
:0400000508000131BD
:00000001FF
